{
  "address": "0xF8FC45462eE6DdD4143C662bf9139db6aFcaFF98",
  "abi": [
    {
      "inputs": [],
      "stateMutability": "nonpayable",
      "type": "constructor"
    },
    {
      "anonymous": false,
      "inputs": [
        {
          "indexed": true,
          "internalType": "address",
          "name": "owner",
          "type": "address"
        },
        {
          "indexed": true,
          "internalType": "address",
          "name": "approved",
          "type": "address"
        },
        {
          "indexed": true,
          "internalType": "uint256",
          "name": "tokenId",
          "type": "uint256"
        }
      ],
      "name": "Approval",
      "type": "event"
    },
    {
      "anonymous": false,
      "inputs": [
        {
          "indexed": true,
          "internalType": "address",
          "name": "owner",
          "type": "address"
        },
        {
          "indexed": true,
          "internalType": "address",
          "name": "operator",
          "type": "address"
        },
        {
          "indexed": false,
          "internalType": "bool",
          "name": "approved",
          "type": "bool"
        }
      ],
      "name": "ApprovalForAll",
      "type": "event"
    },
    {
      "anonymous": false,
      "inputs": [
        {
          "indexed": true,
          "internalType": "address",
          "name": "previousOwner",
          "type": "address"
        },
        {
          "indexed": true,
          "internalType": "address",
          "name": "newOwner",
          "type": "address"
        }
      ],
      "name": "OwnershipTransferred",
      "type": "event"
    },
    {
      "anonymous": false,
      "inputs": [
        {
          "indexed": true,
          "internalType": "address",
          "name": "from",
          "type": "address"
        },
        {
          "indexed": true,
          "internalType": "address",
          "name": "to",
          "type": "address"
        },
        {
          "indexed": true,
          "internalType": "uint256",
          "name": "tokenId",
          "type": "uint256"
        }
      ],
      "name": "Transfer",
      "type": "event"
    },
    {
      "anonymous": false,
      "inputs": [
        {
          "indexed": false,
          "internalType": "address",
          "name": "owner",
          "type": "address"
        },
        {
          "indexed": false,
          "internalType": "uint256",
          "name": "quantity",
          "type": "uint256"
        },
        {
          "indexed": false,
          "internalType": "uint256",
          "name": "totalSupply",
          "type": "uint256"
        }
      ],
      "name": "mintEvent",
      "type": "event"
    },
    {
      "inputs": [],
      "name": "MAX_LION",
      "outputs": [
        {
          "internalType": "uint256",
          "name": "",
          "type": "uint256"
        }
      ],
      "stateMutability": "view",
      "type": "function"
    },
    {
      "inputs": [],
      "name": "PRICE",
      "outputs": [
        {
          "internalType": "uint256",
          "name": "",
          "type": "uint256"
        }
      ],
      "stateMutability": "view",
      "type": "function"
    },
    {
      "inputs": [],
      "name": "STAGE_LIMIT",
      "outputs": [
        {
          "internalType": "uint256",
          "name": "",
          "type": "uint256"
        }
      ],
      "stateMutability": "view",
      "type": "function"
    },
    {
      "inputs": [
        {
          "internalType": "address",
          "name": "to",
          "type": "address"
        },
        {
          "internalType": "uint256",
          "name": "tokenId",
          "type": "uint256"
        }
      ],
      "name": "approve",
      "outputs": [],
      "stateMutability": "nonpayable",
      "type": "function"
    },
    {
      "inputs": [
        {
          "internalType": "address",
          "name": "owner",
          "type": "address"
        }
      ],
      "name": "balanceOf",
      "outputs": [
        {
          "internalType": "uint256",
          "name": "",
          "type": "uint256"
        }
      ],
      "stateMutability": "view",
      "type": "function"
    },
    {
      "inputs": [
        {
          "internalType": "uint256",
          "name": "tokenId",
          "type": "uint256"
        }
      ],
      "name": "burn",
      "outputs": [],
      "stateMutability": "nonpayable",
      "type": "function"
    },
    {
      "inputs": [
        {
          "internalType": "uint256",
          "name": "quantity",
          "type": "uint256"
        },
        {
          "internalType": "uint256",
          "name": "maxQuantity",
          "type": "uint256"
        },
        {
          "internalType": "bytes",
          "name": "SIGNATURE",
          "type": "bytes"
        }
      ],
      "name": "claimLion",
      "outputs": [],
      "stateMutability": "nonpayable",
      "type": "function"
    },
    {
      "inputs": [
        {
          "internalType": "uint256",
          "name": "tokenId",
          "type": "uint256"
        }
      ],
      "name": "getApproved",
      "outputs": [
        {
          "internalType": "address",
          "name": "",
          "type": "address"
        }
      ],
      "stateMutability": "view",
      "type": "function"
    },
    {
      "inputs": [
        {
          "internalType": "address",
          "name": "_to",
          "type": "address"
        },
        {
          "internalType": "uint256",
          "name": "quantity",
          "type": "uint256"
        }
      ],
      "name": "giveawayLion",
      "outputs": [],
      "stateMutability": "nonpayable",
      "type": "function"
    },
    {
      "inputs": [],
      "name": "hasClaimStarted",
      "outputs": [
        {
          "internalType": "bool",
          "name": "",
          "type": "bool"
        }
      ],
      "stateMutability": "view",
      "type": "function"
    },
    {
      "inputs": [
        {
          "internalType": "address",
          "name": "",
          "type": "address"
        }
      ],
      "name": "hasMinted",
      "outputs": [
        {
          "internalType": "uint256",
          "name": "",
          "type": "uint256"
        }
      ],
      "stateMutability": "view",
      "type": "function"
    },
    {
      "inputs": [],
      "name": "hasWhitelistSaleStarted",
      "outputs": [
        {
          "internalType": "bool",
          "name": "",
          "type": "bool"
        }
      ],
      "stateMutability": "view",
      "type": "function"
    },
    {
      "inputs": [
        {
          "internalType": "address",
          "name": "owner",
          "type": "address"
        },
        {
          "internalType": "address",
          "name": "operator",
          "type": "address"
        }
      ],
      "name": "isApprovedForAll",
      "outputs": [
        {
          "internalType": "bool",
          "name": "",
          "type": "bool"
        }
      ],
      "stateMutability": "view",
      "type": "function"
    },
    {
      "inputs": [
        {
          "internalType": "uint256",
          "name": "quantity",
          "type": "uint256"
        },
        {
          "internalType": "uint256",
          "name": "maxQuantity",
          "type": "uint256"
        },
        {
          "internalType": "bytes",
          "name": "SIGNATURE",
          "type": "bytes"
        }
      ],
      "name": "mintWhitelistLion",
      "outputs": [],
      "stateMutability": "payable",
      "type": "function"
    },
    {
      "inputs": [],
      "name": "name",
      "outputs": [
        {
          "internalType": "string",
          "name": "",
          "type": "string"
        }
      ],
      "stateMutability": "view",
      "type": "function"
    },
    {
      "inputs": [],
      "name": "numClaim",
      "outputs": [
        {
          "internalType": "uint256",
          "name": "",
          "type": "uint256"
        }
      ],
      "stateMutability": "view",
      "type": "function"
    },
    {
      "inputs": [],
      "name": "numGiveaway",
      "outputs": [
        {
          "internalType": "uint256",
          "name": "",
          "type": "uint256"
        }
      ],
      "stateMutability": "view",
      "type": "function"
    },
    {
      "inputs": [],
      "name": "numWhitelistSale",
      "outputs": [
        {
          "internalType": "uint256",
          "name": "",
          "type": "uint256"
        }
      ],
      "stateMutability": "view",
      "type": "function"
    },
    {
      "inputs": [],
      "name": "owner",
      "outputs": [
        {
          "internalType": "address",
          "name": "",
          "type": "address"
        }
      ],
      "stateMutability": "view",
      "type": "function"
    },
    {
      "inputs": [
        {
          "internalType": "uint256",
          "name": "tokenId",
          "type": "uint256"
        }
      ],
      "name": "ownerOf",
      "outputs": [
        {
          "internalType": "address",
          "name": "",
          "type": "address"
        }
      ],
      "stateMutability": "view",
      "type": "function"
    },
    {
      "inputs": [],
      "name": "renounceOwnership",
      "outputs": [],
      "stateMutability": "nonpayable",
      "type": "function"
    },
    {
      "inputs": [
        {
          "internalType": "address",
          "name": "from",
          "type": "address"
        },
        {
          "internalType": "address",
          "name": "to",
          "type": "address"
        },
        {
          "internalType": "uint256",
          "name": "tokenId",
          "type": "uint256"
        }
      ],
      "name": "safeTransferFrom",
      "outputs": [],
      "stateMutability": "nonpayable",
      "type": "function"
    },
    {
      "inputs": [
        {
          "internalType": "address",
          "name": "from",
          "type": "address"
        },
        {
          "internalType": "address",
          "name": "to",
          "type": "address"
        },
        {
          "internalType": "uint256",
          "name": "tokenId",
          "type": "uint256"
        },
        {
          "internalType": "bytes",
          "name": "_data",
          "type": "bytes"
        }
      ],
      "name": "safeTransferFrom",
      "outputs": [],
      "stateMutability": "nonpayable",
      "type": "function"
    },
    {
      "inputs": [
        {
          "internalType": "address",
          "name": "operator",
          "type": "address"
        },
        {
          "internalType": "bool",
          "name": "approved",
          "type": "bool"
        }
      ],
      "name": "setApprovalForAll",
      "outputs": [],
      "stateMutability": "nonpayable",
      "type": "function"
    },
    {
      "inputs": [
        {
          "internalType": "bool",
          "name": "_hasClaimStarted",
          "type": "bool"
        }
      ],
      "name": "setClaim",
      "outputs": [],
      "stateMutability": "nonpayable",
      "type": "function"
    },
    {
      "inputs": [
        {
          "internalType": "uint256",
          "name": "_MAX_num",
          "type": "uint256"
        }
      ],
      "name": "setMAX_LION",
      "outputs": [],
      "stateMutability": "nonpayable",
      "type": "function"
    },
    {
      "inputs": [
        {
          "internalType": "uint256",
          "name": "_STAGE_LIMIT",
          "type": "uint256"
        }
      ],
      "name": "setSTAGE_LIMIT",
      "outputs": [],
      "stateMutability": "nonpayable",
      "type": "function"
    },
    {
      "inputs": [
        {
          "internalType": "address",
          "name": "_treasury",
          "type": "address"
        }
      ],
      "name": "setTreasury",
      "outputs": [],
      "stateMutability": "nonpayable",
      "type": "function"
    },
    {
      "inputs": [
        {
          "internalType": "string",
          "name": "_tokenURI",
          "type": "string"
        }
      ],
      "name": "setURI",
      "outputs": [],
      "stateMutability": "nonpayable",
      "type": "function"
    },
    {
      "inputs": [
        {
          "internalType": "bool",
          "name": "_hasWhitelistSaleStarted",
          "type": "bool"
        },
        {
          "internalType": "uint256",
          "name": "_whitelistSaleTimestamp",
          "type": "uint256"
        }
      ],
      "name": "setWhitelistSale",
      "outputs": [],
      "stateMutability": "nonpayable",
      "type": "function"
    },
    {
      "inputs": [
        {
          "internalType": "uint256",
          "name": "_price",
          "type": "uint256"
        }
      ],
      "name": "set_PRICE",
      "outputs": [],
      "stateMutability": "nonpayable",
      "type": "function"
    },
    {
      "inputs": [
        {
          "internalType": "bytes4",
          "name": "interfaceId",
          "type": "bytes4"
        }
      ],
      "name": "supportsInterface",
      "outputs": [
        {
          "internalType": "bool",
          "name": "",
          "type": "bool"
        }
      ],
      "stateMutability": "view",
      "type": "function"
    },
    {
      "inputs": [],
      "name": "symbol",
      "outputs": [
        {
          "internalType": "string",
          "name": "",
          "type": "string"
        }
      ],
      "stateMutability": "view",
      "type": "function"
    },
    {
      "inputs": [
        {
          "internalType": "uint256",
          "name": "tokenId",
          "type": "uint256"
        }
      ],
      "name": "tokenURI",
      "outputs": [
        {
          "internalType": "string",
          "name": "",
          "type": "string"
        }
      ],
      "stateMutability": "view",
      "type": "function"
    },
    {
      "inputs": [],
      "name": "totalSupply",
      "outputs": [
        {
          "internalType": "uint256",
          "name": "",
          "type": "uint256"
        }
      ],
      "stateMutability": "view",
      "type": "function"
    },
    {
      "inputs": [
        {
          "internalType": "address",
          "name": "from",
          "type": "address"
        },
        {
          "internalType": "address",
          "name": "to",
          "type": "address"
        },
        {
          "internalType": "uint256",
          "name": "tokenId",
          "type": "uint256"
        }
      ],
      "name": "transferFrom",
      "outputs": [],
      "stateMutability": "nonpayable",
      "type": "function"
    },
    {
      "inputs": [
        {
          "internalType": "address",
          "name": "newOwner",
          "type": "address"
        }
      ],
      "name": "transferOwnership",
      "outputs": [],
      "stateMutability": "nonpayable",
      "type": "function"
    },
    {
      "inputs": [],
      "name": "treasury",
      "outputs": [
        {
          "internalType": "address",
          "name": "",
          "type": "address"
        }
      ],
      "stateMutability": "view",
      "type": "function"
    },
    {
      "inputs": [
        {
          "internalType": "uint256",
          "name": "maxQuantity",
          "type": "uint256"
        },
        {
          "internalType": "bytes",
          "name": "SIGNATURE",
          "type": "bytes"
        }
      ],
      "name": "verify",
      "outputs": [
        {
          "internalType": "bool",
          "name": "",
          "type": "bool"
        }
      ],
      "stateMutability": "view",
      "type": "function"
    },
    {
      "inputs": [],
      "name": "whitelistSaleTimestamp",
      "outputs": [
        {
          "internalType": "uint256",
          "name": "",
          "type": "uint256"
        }
      ],
      "stateMutability": "view",
      "type": "function"
    },
    {
      "inputs": [],
      "name": "withdrawAll",
      "outputs": [],
      "stateMutability": "payable",
      "type": "function"
    }
  ],
  "transactionHash": "0x9f26686004355c9f3ed11186c7f921a99faa59ded6a96df885c272368d714a6d",
  "args": [],
  "numDeployments": 1,
  "solcInputHash": "23c612c2804e22c2458421988cedf625",
  "bytecode": "0x6101206040526103e760065561014d600755671bc16d674ec8000060085560006009556000600a556000600b556000600c556001600d60006101000a81548160ff0219169083151502179055506000600d60016101000a81548160ff0219169083151502179055506040518060400160405280601981526020017f687474703a2f2f6170692e6c696f6e2f4d657461646174612f00000000000000815250600e9080519060200190620000b4929190620003d7565b50735279246e3626cebe71a4c181382a50a71d2a4156600f60006101000a81548173ffffffffffffffffffffffffffffffffffffffff021916908373ffffffffffffffffffffffffffffffffffffffff160217905550636226f0e06011553480156200011f57600080fd5b506040518060400160405280600881526020017f4c494f4e2044414f0000000000000000000000000000000000000000000000008152506040518060400160405280600481526020017f4c494f4e000000000000000000000000000000000000000000000000000000008152506040518060400160405280600881526020017f4c494f4e2044414f0000000000000000000000000000000000000000000000008152506040518060400160405280600581526020017f312e302e30000000000000000000000000000000000000000000000000000000815250620002186200020c620002cf60201b60201c565b620002d760201b60201c565b60008280519060200120905060008280519060200120905060007f8b73c3c69bb8fe3d512ecc4cf759cc79239f7b179b0ffacaa9a75d522b39400f90508260c081815250508160e081815250504660a08181525050620002808184846200039b60201b60201c565b6080818152505080610100818152505050505050508160019080519060200190620002ad929190620003d7565b508060029080519060200190620002c6929190620003d7565b505050620005c4565b600033905090565b60008060009054906101000a900473ffffffffffffffffffffffffffffffffffffffff169050816000806101000a81548173ffffffffffffffffffffffffffffffffffffffff021916908373ffffffffffffffffffffffffffffffffffffffff1602179055508173ffffffffffffffffffffffffffffffffffffffff168173ffffffffffffffffffffffffffffffffffffffff167f8be0079c531659141344cd1fd0a4f28419497f9722a3daafe3b4186f6b6457e060405160405180910390a35050565b60008383834630604051602001620003b8959493929190620004ba565b6040516020818303038152906040528051906020012090509392505050565b828054620003e5906200055f565b90600052602060002090601f01602090048101928262000409576000855562000455565b82601f106200042457805160ff191683800117855562000455565b8280016001018555821562000455579182015b828111156200045457825182559160200191906001019062000437565b5b50905062000464919062000468565b5090565b5b808211156200048357600081600090555060010162000469565b5090565b620004928162000517565b82525050565b620004a3816200052b565b82525050565b620004b48162000555565b82525050565b600060a082019050620004d1600083018862000498565b620004e0602083018762000498565b620004ef604083018662000498565b620004fe6060830185620004a9565b6200050d608083018462000487565b9695505050505050565b6000620005248262000535565b9050919050565b6000819050919050565b600073ffffffffffffffffffffffffffffffffffffffff82169050919050565b6000819050919050565b600060028204905060018216806200057857607f821691505b602082108114156200058f576200058e62000595565b5b50919050565b7f4e487b7100000000000000000000000000000000000000000000000000000000600052602260045260246000fd5b60805160a05160c05160e05161010051615440620006096000396000612dad01526000612def01526000612dce01526000612d5a01526000612d8201526154406000f3fe6080604052600436106102465760003560e01c80636456c205116101395780639339059c116100b6578063c87b56dd1161007a578063c87b56dd14610849578063e7908b0914610886578063e985e9c5146108a2578063f0f44260146108df578063f2fde38b14610908578063fc89bacd1461093157610246565b80639339059c1461077857806395d89b41146107a1578063a22cb465146107cc578063b88d4fde146107f5578063c341526b1461081e57610246565b8063853828b6116100fd578063853828b6146106b057806385852ce4146106ba5780638b795dcb146106f75780638d859f3e146107225780638da5cb5b1461074d57610246565b80636456c205146105df57806370a0823114610608578063715018a614610645578063717bf3361461065c578063798611a01461068757610246565b806323b872dd116101c757806352e968281161018b57806352e96828146104f657806354465773146105215780635b769c6d1461054c57806361d027b3146105775780636352211e146105a257610246565b806323b872dd1461041357806332a61f5f1461043c57806338e21cce1461046757806342842e0e146104a457806342966c68146104cd57610246565b8063095ea7b31161020e578063095ea7b3146103425780630a61454b1461036b57806318160ddd1461039657806318e77a8e146103c1578063211418ab146103ea57610246565b806301ffc9a71461024b57806302244fd01461028857806302fe5305146102b157806306fdde03146102da578063081812fc14610305575b600080fd5b34801561025757600080fd5b50610272600480360381019061026d9190613ab1565b61095a565b60405161027f9190614309565b60405180910390f35b34801561029457600080fd5b506102af60048036038101906102aa9190613b48565b610a3c565b005b3480156102bd57600080fd5b506102d860048036038101906102d39190613b03565b610ac2565b005b3480156102e657600080fd5b506102ef610b54565b6040516102fc91906143f3565b60405180910390f35b34801561031157600080fd5b5061032c60048036038101906103279190613b48565b610be6565b604051610339919061426b565b60405180910390f35b34801561034e57600080fd5b5061036960048036038101906103649190613a10565b610c6b565b005b34801561037757600080fd5b50610380610d83565b60405161038d91906147f5565b60405180910390f35b3480156103a257600080fd5b506103ab610d89565b6040516103b891906147f5565b60405180910390f35b3480156103cd57600080fd5b506103e860048036038101906103e39190613a10565b610d8f565b005b3480156103f657600080fd5b50610411600480360381019061040c9190613a4c565b610f07565b005b34801561041f57600080fd5b5061043a6004803603810190610435919061390a565b610fa0565b005b34801561044857600080fd5b50610451611000565b60405161045e9190614309565b60405180910390f35b34801561047357600080fd5b5061048e600480360381019061048991906138a5565b611013565b60405161049b91906147f5565b60405180910390f35b3480156104b057600080fd5b506104cb60048036038101906104c6919061390a565b61102b565b005b3480156104d957600080fd5b506104f460048036038101906104ef9190613b48565b61104b565b005b34801561050257600080fd5b5061050b6110d3565b60405161051891906147f5565b60405180910390f35b34801561052d57600080fd5b506105366110d9565b60405161054391906147f5565b60405180910390f35b34801561055857600080fd5b506105616110df565b60405161056e91906147f5565b60405180910390f35b34801561058357600080fd5b5061058c6110e5565b604051610599919061426b565b60405180910390f35b3480156105ae57600080fd5b506105c960048036038101906105c49190613b48565b61110b565b6040516105d6919061426b565b60405180910390f35b3480156105eb57600080fd5b5061060660048036038101906106019190613b48565b6111ee565b005b34801561061457600080fd5b5061062f600480360381019061062a91906138a5565b611274565b60405161063c91906147f5565b60405180910390f35b34801561065157600080fd5b5061065a6113c0565b005b34801561066857600080fd5b50610671611448565b60405161067e9190614309565b60405180910390f35b34801561069357600080fd5b506106ae60048036038101906106a99190613b48565b61145b565b005b6106b86114e1565b005b3480156106c657600080fd5b506106e160048036038101906106dc9190613b71565b6115bf565b6040516106ee9190614309565b60405180910390f35b34801561070357600080fd5b5061070c611666565b60405161071991906147f5565b60405180910390f35b34801561072e57600080fd5b5061073761166c565b60405161074491906147f5565b60405180910390f35b34801561075957600080fd5b50610762611672565b60405161076f919061426b565b60405180910390f35b34801561078457600080fd5b5061079f600480360381019061079a9190613bc5565b61169b565b005b3480156107ad57600080fd5b506107b66119c5565b6040516107c391906143f3565b60405180910390f35b3480156107d857600080fd5b506107f360048036038101906107ee91906139d4565b611a57565b005b34801561080157600080fd5b5061081c60048036038101906108179190613959565b611bd8565b005b34801561082a57600080fd5b50610833611c3a565b60405161084091906147f5565b60405180910390f35b34801561085557600080fd5b50610870600480360381019061086b9190613b48565b611c40565b60405161087d91906143f3565b60405180910390f35b6108a0600480360381019061089b9190613bc5565b611cbc565b005b3480156108ae57600080fd5b506108c960048036038101906108c491906138ce565b612081565b6040516108d69190614309565b60405180910390f35b3480156108eb57600080fd5b50610906600480360381019061090191906138a5565b612115565b005b34801561091457600080fd5b5061092f600480360381019061092a91906138a5565b612267565b005b34801561093d57600080fd5b5061095860048036038101906109539190613a75565b61235f565b005b60007f80ac58cd000000000000000000000000000000000000000000000000000000007bffffffffffffffffffffffffffffffffffffffffffffffffffffffff1916827bffffffffffffffffffffffffffffffffffffffffffffffffffffffff19161480610a2557507f5b5e139f000000000000000000000000000000000000000000000000000000007bffffffffffffffffffffffffffffffffffffffffffffffffffffffff1916827bffffffffffffffffffffffffffffffffffffffffffffffffffffffff1916145b80610a355750610a3482612400565b5b9050919050565b610a4461246a565b73ffffffffffffffffffffffffffffffffffffffff16610a62611672565b73ffffffffffffffffffffffffffffffffffffffff1614610ab8576040517f08c379a0000000000000000000000000000000000000000000000000000000008152600401610aaf906146d5565b60405180910390fd5b8060068190555050565b610aca61246a565b73ffffffffffffffffffffffffffffffffffffffff16610ae8611672565b73ffffffffffffffffffffffffffffffffffffffff1614610b3e576040517f08c379a0000000000000000000000000000000000000000000000000000000008152600401610b35906146d5565b60405180910390fd5b8181600e9190610b4f9291906136e7565b505050565b606060018054610b6390614aa0565b80601f0160208091040260200160405190810160405280929190818152602001828054610b8f90614aa0565b8015610bdc5780601f10610bb157610100808354040283529160200191610bdc565b820191906000526020600020905b815481529060010190602001808311610bbf57829003601f168201915b5050505050905090565b6000610bf182612472565b610c30576040517f08c379a0000000000000000000000000000000000000000000000000000000008152600401610c27906146b5565b60405180910390fd5b6004600083815260200190815260200160002060009054906101000a900473ffffffffffffffffffffffffffffffffffffffff169050919050565b6000610c768261110b565b90508073ffffffffffffffffffffffffffffffffffffffff168373ffffffffffffffffffffffffffffffffffffffff161415610ce7576040517f08c379a0000000000000000000000000000000000000000000000000000000008152600401610cde90614775565b60405180910390fd5b8073ffffffffffffffffffffffffffffffffffffffff16610d0661246a565b73ffffffffffffffffffffffffffffffffffffffff161480610d355750610d3481610d2f61246a565b612081565b5b610d74576040517f08c379a0000000000000000000000000000000000000000000000000000000008152600401610d6b906145d5565b60405180910390fd5b610d7e8383612520565b505050565b60075481565b600c5481565b610d9761246a565b73ffffffffffffffffffffffffffffffffffffffff16610db5611672565b73ffffffffffffffffffffffffffffffffffffffff1614610e0b576040517f08c379a0000000000000000000000000000000000000000000000000000000008152600401610e02906146d5565b60405180910390fd5b600654610e2382600c546125d990919063ffffffff16565b1115610e64576040517f08c379a0000000000000000000000000000000000000000000000000000000008152600401610e5b906145b5565b60405180910390fd5b60005b81811015610eaa57610e7b83600c546125ef565b610e916001600c546125d990919063ffffffff16565b600c819055508080610ea290614b03565b915050610e67565b50610ec081600b546125d990919063ffffffff16565b600b819055507f9670c8b300c38cd3db8d3f9429dd902e67f418c4dd193e2497f06d20efc795608282600c54604051610efb939291906142d2565b60405180910390a15050565b610f0f61246a565b73ffffffffffffffffffffffffffffffffffffffff16610f2d611672565b73ffffffffffffffffffffffffffffffffffffffff1614610f83576040517f08c379a0000000000000000000000000000000000000000000000000000000008152600401610f7a906146d5565b60405180910390fd5b80600d60016101000a81548160ff02191690831515021790555050565b610fb1610fab61246a565b8261260d565b610ff0576040517f08c379a0000000000000000000000000000000000000000000000000000000008152600401610fe790614795565b60405180910390fd5b610ffb8383836126eb565b505050565b600d60009054906101000a900460ff1681565b60106020528060005260406000206000915090505481565b61104683838360405180602001604052806000815250611bd8565b505050565b61105361246a565b73ffffffffffffffffffffffffffffffffffffffff16611071611672565b73ffffffffffffffffffffffffffffffffffffffff16146110c7576040517f08c379a00000000000000000000000000000000000000000000000000000000081526004016110be906146d5565b60405180910390fd5b6110d0816128ca565b50565b60115481565b600a5481565b60065481565b600f60009054906101000a900473ffffffffffffffffffffffffffffffffffffffff1681565b60008060038381548110611148577f4e487b7100000000000000000000000000000000000000000000000000000000600052603260045260246000fd5b9060005260206000200160009054906101000a900473ffffffffffffffffffffffffffffffffffffffff169050600073ffffffffffffffffffffffffffffffffffffffff168173ffffffffffffffffffffffffffffffffffffffff1614156111e5576040517f08c379a00000000000000000000000000000000000000000000000000000000081526004016111dc90614615565b60405180910390fd5b80915050919050565b6111f661246a565b73ffffffffffffffffffffffffffffffffffffffff16611214611672565b73ffffffffffffffffffffffffffffffffffffffff161461126a576040517f08c379a0000000000000000000000000000000000000000000000000000000008152600401611261906146d5565b60405180910390fd5b8060088190555050565b60008073ffffffffffffffffffffffffffffffffffffffff168273ffffffffffffffffffffffffffffffffffffffff1614156112e5576040517f08c379a00000000000000000000000000000000000000000000000000000000081526004016112dc906145f5565b60405180910390fd5b600080600380549050905060005b818110156113b15760038181548110611335577f4e487b7100000000000000000000000000000000000000000000000000000000600052603260045260246000fd5b9060005260206000200160009054906101000a900473ffffffffffffffffffffffffffffffffffffffff1673ffffffffffffffffffffffffffffffffffffffff168573ffffffffffffffffffffffffffffffffffffffff1614156113a0578261139d90614b03565b92505b806113aa90614b03565b90506112f3565b50600090508192505050919050565b6113c861246a565b73ffffffffffffffffffffffffffffffffffffffff166113e6611672565b73ffffffffffffffffffffffffffffffffffffffff161461143c576040517f08c379a0000000000000000000000000000000000000000000000000000000008152600401611433906146d5565b60405180910390fd5b61144660006129d2565b565b600d60019054906101000a900460ff1681565b61146361246a565b73ffffffffffffffffffffffffffffffffffffffff16611481611672565b73ffffffffffffffffffffffffffffffffffffffff16146114d7576040517f08c379a00000000000000000000000000000000000000000000000000000000081526004016114ce906146d5565b60405180910390fd5b8060078190555050565b6114e961246a565b73ffffffffffffffffffffffffffffffffffffffff16611507611672565b73ffffffffffffffffffffffffffffffffffffffff161461155d576040517f08c379a0000000000000000000000000000000000000000000000000000000008152600401611554906146d5565b60405180910390fd5b600f60009054906101000a900473ffffffffffffffffffffffffffffffffffffffff1673ffffffffffffffffffffffffffffffffffffffff166108fc479081150290604051600060405180830381858888f193505050506115bd57600080fd5b565b60008061162561161f7f182854de6a51f3818344a7eb784b9d55c1e6d2d20c9f9aea309f5daaaaddfec16115f161246a565b8760405160200161160493929190614324565b60405160208183030381529060405280519060200120612a96565b84612ab0565b90508073ffffffffffffffffffffffffffffffffffffffff16611646611672565b73ffffffffffffffffffffffffffffffffffffffff161491505092915050565b60095481565b60085481565b60008060009054906101000a900473ffffffffffffffffffffffffffffffffffffffff16905090565b60011515600d60019054906101000a900460ff161515146116f1576040517f08c379a00000000000000000000000000000000000000000000000000000000081526004016116e890614515565b60405180910390fd5b60075461170984600c546125d990919063ffffffff16565b111561174a576040517f08c379a000000000000000000000000000000000000000000000000000000000815260040161174190614675565b60405180910390fd5b61175482826115bf565b611793576040517f08c379a000000000000000000000000000000000000000000000000000000000815260040161178a90614735565b60405180910390fd5b6000831180156117f45750816117f184601060003373ffffffffffffffffffffffffffffffffffffffff1673ffffffffffffffffffffffffffffffffffffffff168152602001908152602001600020546125d990919063ffffffff16565b11155b611833576040517f08c379a000000000000000000000000000000000000000000000000000000000815260040161182a90614715565b60405180910390fd5b60065461184b84600c546125d990919063ffffffff16565b111561188c576040517f08c379a0000000000000000000000000000000000000000000000000000000008152600401611883906145b5565b60405180910390fd5b60005b838110156118d2576118a333600c546125ef565b6118b96001600c546125d990919063ffffffff16565b600c8190555080806118ca90614b03565b91505061188f565b506118e883600a546125d990919063ffffffff16565b600a8190555061194083601060003373ffffffffffffffffffffffffffffffffffffffff1673ffffffffffffffffffffffffffffffffffffffff168152602001908152602001600020546125d990919063ffffffff16565b601060003373ffffffffffffffffffffffffffffffffffffffff1673ffffffffffffffffffffffffffffffffffffffff168152602001908152602001600020819055507f9670c8b300c38cd3db8d3f9429dd902e67f418c4dd193e2497f06d20efc795603384600c546040516119b8939291906142d2565b60405180910390a1505050565b6060600280546119d490614aa0565b80601f0160208091040260200160405190810160405280929190818152602001828054611a0090614aa0565b8015611a4d5780601f10611a2257610100808354040283529160200191611a4d565b820191906000526020600020905b815481529060010190602001808311611a3057829003601f168201915b5050505050905090565b611a5f61246a565b73ffffffffffffffffffffffffffffffffffffffff168273ffffffffffffffffffffffffffffffffffffffff161415611acd576040517f08c379a0000000000000000000000000000000000000000000000000000000008152600401611ac490614555565b60405180910390fd5b8060056000611ada61246a565b73ffffffffffffffffffffffffffffffffffffffff1673ffffffffffffffffffffffffffffffffffffffff16815260200190815260200160002060008473ffffffffffffffffffffffffffffffffffffffff1673ffffffffffffffffffffffffffffffffffffffff16815260200190815260200160002060006101000a81548160ff0219169083151502179055508173ffffffffffffffffffffffffffffffffffffffff16611b8761246a565b73ffffffffffffffffffffffffffffffffffffffff167f17307eab39ab6107e8899845ad3d59bd9653f200f220920489ca2b5937696c3183604051611bcc9190614309565b60405180910390a35050565b611be9611be361246a565b8361260d565b611c28576040517f08c379a0000000000000000000000000000000000000000000000000000000008152600401611c1f90614795565b60405180910390fd5b611c3484848484612ad7565b50505050565b600b5481565b6060611c4b82612472565b611c8a576040517f08c379a0000000000000000000000000000000000000000000000000000000008152600401611c8190614635565b60405180910390fd5b600e611c9583612b33565b604051602001611ca6929190614210565b6040516020818303038152906040529050919050565b60011515600d60009054906101000a900460ff16151514611d12576040517f08c379a0000000000000000000000000000000000000000000000000000000008152600401611d09906147d5565b60405180910390fd5b601154421015611d57576040517f08c379a0000000000000000000000000000000000000000000000000000000008152600401611d4e906147b5565b60405180910390fd5b600754611d6f84600c546125d990919063ffffffff16565b1115611db0576040517f08c379a0000000000000000000000000000000000000000000000000000000008152600401611da790614675565b60405180910390fd5b611dba82826115bf565b611df9576040517f08c379a0000000000000000000000000000000000000000000000000000000008152600401611df090614455565b60405180910390fd5b600083118015611e5a575081611e5784601060003373ffffffffffffffffffffffffffffffffffffffff1673ffffffffffffffffffffffffffffffffffffffff168152602001908152602001600020546125d990919063ffffffff16565b11155b611e99576040517f08c379a0000000000000000000000000000000000000000000000000000000008152600401611e9090614755565b60405180910390fd5b600654611eb184600c546125d990919063ffffffff16565b1115611ef2576040517f08c379a0000000000000000000000000000000000000000000000000000000008152600401611ee9906145b5565b60405180910390fd5b611f0783600854612ce090919063ffffffff16565b3414611f48576040517f08c379a0000000000000000000000000000000000000000000000000000000008152600401611f3f906144b5565b60405180910390fd5b60005b83811015611f8e57611f5f33600c546125ef565b611f756001600c546125d990919063ffffffff16565b600c819055508080611f8690614b03565b915050611f4b565b50611fa4836009546125d990919063ffffffff16565b600981905550611ffc83601060003373ffffffffffffffffffffffffffffffffffffffff1673ffffffffffffffffffffffffffffffffffffffff168152602001908152602001600020546125d990919063ffffffff16565b601060003373ffffffffffffffffffffffffffffffffffffffff1673ffffffffffffffffffffffffffffffffffffffff168152602001908152602001600020819055507f9670c8b300c38cd3db8d3f9429dd902e67f418c4dd193e2497f06d20efc795603384600c54604051612074939291906142d2565b60405180910390a1505050565b6000600560008473ffffffffffffffffffffffffffffffffffffffff1673ffffffffffffffffffffffffffffffffffffffff16815260200190815260200160002060008373ffffffffffffffffffffffffffffffffffffffff1673ffffffffffffffffffffffffffffffffffffffff16815260200190815260200160002060009054906101000a900460ff16905092915050565b61211d61246a565b73ffffffffffffffffffffffffffffffffffffffff1661213b611672565b73ffffffffffffffffffffffffffffffffffffffff1614612191576040517f08c379a0000000000000000000000000000000000000000000000000000000008152600401612188906146d5565b60405180910390fd5b600073ffffffffffffffffffffffffffffffffffffffff16600f60009054906101000a900473ffffffffffffffffffffffffffffffffffffffff1673ffffffffffffffffffffffffffffffffffffffff161415612223576040517f08c379a000000000000000000000000000000000000000000000000000000000815260040161221a90614435565b60405180910390fd5b80600f60006101000a81548173ffffffffffffffffffffffffffffffffffffffff021916908373ffffffffffffffffffffffffffffffffffffffff16021790555050565b61226f61246a565b73ffffffffffffffffffffffffffffffffffffffff1661228d611672565b73ffffffffffffffffffffffffffffffffffffffff16146122e3576040517f08c379a00000000000000000000000000000000000000000000000000000000081526004016122da906146d5565b60405180910390fd5b600073ffffffffffffffffffffffffffffffffffffffff168173ffffffffffffffffffffffffffffffffffffffff161415612353576040517f08c379a000000000000000000000000000000000000000000000000000000000815260040161234a906144d5565b60405180910390fd5b61235c816129d2565b50565b61236761246a565b73ffffffffffffffffffffffffffffffffffffffff16612385611672565b73ffffffffffffffffffffffffffffffffffffffff16146123db576040517f08c379a00000000000000000000000000000000000000000000000000000000081526004016123d2906146d5565b60405180910390fd5b81600d60006101000a81548160ff021916908315150217905550806011819055505050565b60007f01ffc9a7000000000000000000000000000000000000000000000000000000007bffffffffffffffffffffffffffffffffffffffffffffffffffffffff1916827bffffffffffffffffffffffffffffffffffffffffffffffffffffffff1916149050919050565b600033905090565b6000600380549050821080156125195750600073ffffffffffffffffffffffffffffffffffffffff16600383815481106124d5577f4e487b7100000000000000000000000000000000000000000000000000000000600052603260045260246000fd5b9060005260206000200160009054906101000a900473ffffffffffffffffffffffffffffffffffffffff1673ffffffffffffffffffffffffffffffffffffffff1614155b9050919050565b816004600083815260200190815260200160002060006101000a81548173ffffffffffffffffffffffffffffffffffffffff021916908373ffffffffffffffffffffffffffffffffffffffff160217905550808273ffffffffffffffffffffffffffffffffffffffff166125938361110b565b73ffffffffffffffffffffffffffffffffffffffff167f8c5be1e5ebec7d5bd14f71427d1e84f3dd0314c0f7b2291e5b200ac8c7c3b92560405160405180910390a45050565b600081836125e791906148be565b905092915050565b612609828260405180602001604052806000815250612cf6565b5050565b600061261882612472565b612657576040517f08c379a000000000000000000000000000000000000000000000000000000000815260040161264e90614595565b60405180910390fd5b60006126628361110b565b90508073ffffffffffffffffffffffffffffffffffffffff168473ffffffffffffffffffffffffffffffffffffffff1614806126d157508373ffffffffffffffffffffffffffffffffffffffff166126b984610be6565b73ffffffffffffffffffffffffffffffffffffffff16145b806126e257506126e18185612081565b5b91505092915050565b8273ffffffffffffffffffffffffffffffffffffffff1661270b8261110b565b73ffffffffffffffffffffffffffffffffffffffff1614612761576040517f08c379a0000000000000000000000000000000000000000000000000000000008152600401612758906146f5565b60405180910390fd5b600073ffffffffffffffffffffffffffffffffffffffff168273ffffffffffffffffffffffffffffffffffffffff1614156127d1576040517f08c379a00000000000000000000000000000000000000000000000000000000081526004016127c890614535565b60405180910390fd5b6127dc838383612d51565b6127e7600082612520565b8160038281548110612822577f4e487b7100000000000000000000000000000000000000000000000000000000600052603260045260246000fd5b9060005260206000200160006101000a81548173ffffffffffffffffffffffffffffffffffffffff021916908373ffffffffffffffffffffffffffffffffffffffff160217905550808273ffffffffffffffffffffffffffffffffffffffff168473ffffffffffffffffffffffffffffffffffffffff167fddf252ad1be2c89b69c2b068fc378daa952ba7f163c4a11628f55a4df523b3ef60405160405180910390a4505050565b60006128d58261110b565b90506128e381600084612d51565b6128ee600083612520565b60006003838154811061292a577f4e487b7100000000000000000000000000000000000000000000000000000000600052603260045260246000fd5b9060005260206000200160006101000a81548173ffffffffffffffffffffffffffffffffffffffff021916908373ffffffffffffffffffffffffffffffffffffffff16021790555081600073ffffffffffffffffffffffffffffffffffffffff168273ffffffffffffffffffffffffffffffffffffffff167fddf252ad1be2c89b69c2b068fc378daa952ba7f163c4a11628f55a4df523b3ef60405160405180910390a45050565b60008060009054906101000a900473ffffffffffffffffffffffffffffffffffffffff169050816000806101000a81548173ffffffffffffffffffffffffffffffffffffffff021916908373ffffffffffffffffffffffffffffffffffffffff1602179055508173ffffffffffffffffffffffffffffffffffffffff168173ffffffffffffffffffffffffffffffffffffffff167f8be0079c531659141344cd1fd0a4f28419497f9722a3daafe3b4186f6b6457e060405160405180910390a35050565b6000612aa9612aa3612d56565b83612e19565b9050919050565b6000806000612abf8585612e4c565b91509150612acc81612ecf565b819250505092915050565b612ae28484846126eb565b612aee84848484613220565b612b2d576040517f08c379a0000000000000000000000000000000000000000000000000000000008152600401612b2490614495565b60405180910390fd5b50505050565b60606000821415612b7b576040518060400160405280600181526020017f30000000000000000000000000000000000000000000000000000000000000008152509050612cdb565b600082905060005b60008214612bad578080612b9690614b03565b915050600a82612ba69190614914565b9150612b83565b60008167ffffffffffffffff811115612bef577f4e487b7100000000000000000000000000000000000000000000000000000000600052604160045260246000fd5b6040519080825280601f01601f191660200182016040528015612c215781602001600182028036833780820191505090505b5090505b60008514612cd457600182612c3a919061499f565b9150600a85612c499190614b56565b6030612c5591906148be565b60f81b818381518110612c91577f4e487b7100000000000000000000000000000000000000000000000000000000600052603260045260246000fd5b60200101907effffffffffffffffffffffffffffffffffffffffffffffffffffffffffffff1916908160001a905350600a85612ccd9190614914565b9450612c25565b8093505050505b919050565b60008183612cee9190614945565b905092915050565b612d0083836133b7565b612d0d6000848484613220565b612d4c576040517f08c379a0000000000000000000000000000000000000000000000000000000008152600401612d4390614495565b60405180910390fd5b505050565b505050565b60007f0000000000000000000000000000000000000000000000000000000000000000461415612da8577f00000000000000000000000000000000000000000000000000000000000000009050612e16565b612e137f00000000000000000000000000000000000000000000000000000000000000007f00000000000000000000000000000000000000000000000000000000000000007f000000000000000000000000000000000000000000000000000000000000000061353f565b90505b90565b60008282604051602001612e2e929190614234565b60405160208183030381529060405280519060200120905092915050565b600080604183511415612e8e5760008060006020860151925060408601519150606086015160001a9050612e8287828585613579565b94509450505050612ec8565b604083511415612ebf576000806020850151915060408501519050612eb4868383613686565b935093505050612ec8565b60006002915091505b9250929050565b60006004811115612f09577f4e487b7100000000000000000000000000000000000000000000000000000000600052602160045260246000fd5b816004811115612f42577f4e487b7100000000000000000000000000000000000000000000000000000000600052602160045260246000fd5b1415612f4d5761321d565b60016004811115612f87577f4e487b7100000000000000000000000000000000000000000000000000000000600052602160045260246000fd5b816004811115612fc0577f4e487b7100000000000000000000000000000000000000000000000000000000600052602160045260246000fd5b1415613001576040517f08c379a0000000000000000000000000000000000000000000000000000000008152600401612ff890614415565b60405180910390fd5b6002600481111561303b577f4e487b7100000000000000000000000000000000000000000000000000000000600052602160045260246000fd5b816004811115613074577f4e487b7100000000000000000000000000000000000000000000000000000000600052602160045260246000fd5b14156130b5576040517f08c379a00000000000000000000000000000000000000000000000000000000081526004016130ac90614475565b60405180910390fd5b600360048111156130ef577f4e487b7100000000000000000000000000000000000000000000000000000000600052602160045260246000fd5b816004811115613128577f4e487b7100000000000000000000000000000000000000000000000000000000600052602160045260246000fd5b1415613169576040517f08c379a000000000000000000000000000000000000000000000000000000000815260040161316090614575565b60405180910390fd5b6004808111156131a2577f4e487b7100000000000000000000000000000000000000000000000000000000600052602160045260246000fd5b8160048111156131db577f4e487b7100000000000000000000000000000000000000000000000000000000600052602160045260246000fd5b141561321c576040517f08c379a000000000000000000000000000000000000000000000000000000000815260040161321390614655565b60405180910390fd5b5b50565b60006132418473ffffffffffffffffffffffffffffffffffffffff166136d4565b156133aa578373ffffffffffffffffffffffffffffffffffffffff1663150b7a0261326a61246a565b8786866040518563ffffffff1660e01b815260040161328c9493929190614286565b602060405180830381600087803b1580156132a657600080fd5b505af19250505080156132d757506040513d601f19601f820116820180604052508101906132d49190613ada565b60015b61335a573d8060008114613307576040519150601f19603f3d011682016040523d82523d6000602084013e61330c565b606091505b50600081511415613352576040517f08c379a000000000000000000000000000000000000000000000000000000000815260040161334990614495565b60405180910390fd5b805181602001fd5b63150b7a0260e01b7bffffffffffffffffffffffffffffffffffffffffffffffffffffffff1916817bffffffffffffffffffffffffffffffffffffffffffffffffffffffff1916149150506133af565b600190505b949350505050565b600073ffffffffffffffffffffffffffffffffffffffff168273ffffffffffffffffffffffffffffffffffffffff161415613427576040517f08c379a000000000000000000000000000000000000000000000000000000000815260040161341e90614695565b60405180910390fd5b61343081612472565b15613470576040517f08c379a0000000000000000000000000000000000000000000000000000000008152600401613467906144f5565b60405180910390fd5b61347c60008383612d51565b6003829080600181540180825580915050600190039060005260206000200160009091909190916101000a81548173ffffffffffffffffffffffffffffffffffffffff021916908373ffffffffffffffffffffffffffffffffffffffff160217905550808273ffffffffffffffffffffffffffffffffffffffff16600073ffffffffffffffffffffffffffffffffffffffff167fddf252ad1be2c89b69c2b068fc378daa952ba7f163c4a11628f55a4df523b3ef60405160405180910390a45050565b6000838383463060405160200161355a95949392919061435b565b6040516020818303038152906040528051906020012090509392505050565b6000807f7fffffffffffffffffffffffffffffff5d576e7357a4501ddfe92f46681b20a08360001c11156135b457600060039150915061367d565b601b8560ff16141580156135cc5750601c8560ff1614155b156135de57600060049150915061367d565b60006001878787876040516000815260200160405260405161360394939291906143ae565b6020604051602081039080840390855afa158015613625573d6000803e3d6000fd5b505050602060405103519050600073ffffffffffffffffffffffffffffffffffffffff168173ffffffffffffffffffffffffffffffffffffffff1614156136745760006001925092505061367d565b80600092509250505b94509492505050565b6000806000807f7fffffffffffffffffffffffffffffffffffffffffffffffffffffffffffffff85169150601b8560ff1c0190506136c687828885613579565b935093505050935093915050565b600080823b905060008111915050919050565b8280546136f390614aa0565b90600052602060002090601f016020900481019282613715576000855561375c565b82601f1061372e57803560ff191683800117855561375c565b8280016001018555821561375c579182015b8281111561375b578235825591602001919060010190613740565b5b509050613769919061376d565b5090565b5b8082111561378657600081600090555060010161376e565b5090565b600061379d61379884614835565b614810565b9050828152602081018484840111156137b557600080fd5b6137c0848285614a5e565b509392505050565b6000813590506137d7816153ae565b92915050565b6000813590506137ec816153c5565b92915050565b600081359050613801816153dc565b92915050565b600081519050613816816153dc565b92915050565b600082601f83011261382d57600080fd5b813561383d84826020860161378a565b91505092915050565b60008083601f84011261385857600080fd5b8235905067ffffffffffffffff81111561387157600080fd5b60208301915083600182028301111561388957600080fd5b9250929050565b60008135905061389f816153f3565b92915050565b6000602082840312156138b757600080fd5b60006138c5848285016137c8565b91505092915050565b600080604083850312156138e157600080fd5b60006138ef858286016137c8565b9250506020613900858286016137c8565b9150509250929050565b60008060006060848603121561391f57600080fd5b600061392d868287016137c8565b935050602061393e868287016137c8565b925050604061394f86828701613890565b9150509250925092565b6000806000806080858703121561396f57600080fd5b600061397d878288016137c8565b945050602061398e878288016137c8565b935050604061399f87828801613890565b925050606085013567ffffffffffffffff8111156139bc57600080fd5b6139c88782880161381c565b91505092959194509250565b600080604083850312156139e757600080fd5b60006139f5858286016137c8565b9250506020613a06858286016137dd565b9150509250929050565b60008060408385031215613a2357600080fd5b6000613a31858286016137c8565b9250506020613a4285828601613890565b9150509250929050565b600060208284031215613a5e57600080fd5b6000613a6c848285016137dd565b91505092915050565b60008060408385031215613a8857600080fd5b6000613a96858286016137dd565b9250506020613aa785828601613890565b9150509250929050565b600060208284031215613ac357600080fd5b6000613ad1848285016137f2565b91505092915050565b600060208284031215613aec57600080fd5b6000613afa84828501613807565b91505092915050565b60008060208385031215613b1657600080fd5b600083013567ffffffffffffffff811115613b3057600080fd5b613b3c85828601613846565b92509250509250929050565b600060208284031215613b5a57600080fd5b6000613b6884828501613890565b91505092915050565b60008060408385031215613b8457600080fd5b6000613b9285828601613890565b925050602083013567ffffffffffffffff811115613baf57600080fd5b613bbb8582860161381c565b9150509250929050565b600080600060608486031215613bda57600080fd5b6000613be886828701613890565b9350506020613bf986828701613890565b925050604084013567ffffffffffffffff811115613c1657600080fd5b613c228682870161381c565b9150509250925092565b613c35816149d3565b82525050565b613c44816149e5565b82525050565b613c53816149f1565b82525050565b613c6a613c65826149f1565b614b4c565b82525050565b6000613c7b8261487b565b613c858185614891565b9350613c95818560208601614a6d565b613c9e81614c43565b840191505092915050565b6000613cb482614886565b613cbe81856148a2565b9350613cce818560208601614a6d565b613cd781614c43565b840191505092915050565b6000613ced82614886565b613cf781856148b3565b9350613d07818560208601614a6d565b80840191505092915050565b60008154613d2081614aa0565b613d2a81866148b3565b94506001821660008114613d455760018114613d5657613d89565b60ff19831686528186019350613d89565b613d5f85614866565b60005b83811015613d8157815481890152600182019150602081019050613d62565b838801955050505b50505092915050565b6000613d9f6018836148a2565b9150613daa82614c54565b602082019050919050565b6000613dc26014836148a2565b9150613dcd82614c7d565b602082019050919050565b6000613de5601b836148a2565b9150613df082614ca6565b602082019050919050565b6000613e08601f836148a2565b9150613e1382614ccf565b602082019050919050565b6000613e2b6032836148a2565b9150613e3682614cf8565b604082019050919050565b6000613e4e6028836148a2565b9150613e5982614d47565b604082019050919050565b6000613e716026836148a2565b9150613e7c82614d96565b604082019050919050565b6000613e94601c836148a2565b9150613e9f82614de5565b602082019050919050565b6000613eb76015836148a2565b9150613ec282614e0e565b602082019050919050565b6000613eda6002836148b3565b9150613ee582614e37565b600282019050919050565b6000613efd6024836148a2565b9150613f0882614e60565b604082019050919050565b6000613f206019836148a2565b9150613f2b82614eaf565b602082019050919050565b6000613f436022836148a2565b9150613f4e82614ed8565b604082019050919050565b6000613f66602c836148a2565b9150613f7182614f27565b604082019050919050565b6000613f896011836148a2565b9150613f9482614f76565b602082019050919050565b6000613fac6038836148a2565b9150613fb782614f9f565b604082019050919050565b6000613fcf602a836148a2565b9150613fda82614fee565b604082019050919050565b6000613ff26029836148a2565b9150613ffd8261503d565b604082019050919050565b60006140156010836148a2565b91506140208261508c565b602082019050919050565b60006140386022836148a2565b9150614043826150b5565b604082019050919050565b600061405b6017836148a2565b915061406682615104565b602082019050919050565b600061407e6020836148a2565b91506140898261512d565b602082019050919050565b60006140a1602c836148a2565b91506140ac82615156565b604082019050919050565b60006140c46020836148a2565b91506140cf826151a5565b602082019050919050565b60006140e76029836148a2565b91506140f2826151ce565b604082019050919050565b600061410a6027836148a2565b91506141158261521d565b604082019050919050565b600061412d6017836148a2565b91506141388261526c565b602082019050919050565b6000614150601d836148a2565b915061415b82615295565b602082019050919050565b60006141736021836148a2565b915061417e826152be565b604082019050919050565b60006141966031836148a2565b91506141a18261530d565b604082019050919050565b60006141b96015836148a2565b91506141c48261535c565b602082019050919050565b60006141dc6014836148a2565b91506141e782615385565b602082019050919050565b6141fb81614a47565b82525050565b61420a81614a51565b82525050565b600061421c8285613d13565b91506142288284613ce2565b91508190509392505050565b600061423f82613ecd565b915061424b8285613c59565b60208201915061425b8284613c59565b6020820191508190509392505050565b60006020820190506142806000830184613c2c565b92915050565b600060808201905061429b6000830187613c2c565b6142a86020830186613c2c565b6142b560408301856141f2565b81810360608301526142c78184613c70565b905095945050505050565b60006060820190506142e76000830186613c2c565b6142f460208301856141f2565b61430160408301846141f2565b949350505050565b600060208201905061431e6000830184613c3b565b92915050565b60006060820190506143396000830186613c4a565b6143466020830185613c2c565b61435360408301846141f2565b949350505050565b600060a0820190506143706000830188613c4a565b61437d6020830187613c4a565b61438a6040830186613c4a565b61439760608301856141f2565b6143a46080830184613c2c565b9695505050505050565b60006080820190506143c36000830187613c4a565b6143d06020830186614201565b6143dd6040830185613c4a565b6143ea6060830184613c4a565b95945050505050565b6000602082019050818103600083015261440d8184613ca9565b905092915050565b6000602082019050818103600083015261442e81613d92565b9050919050565b6000602082019050818103600083015261444e81613db5565b9050919050565b6000602082019050818103600083015261446e81613dd8565b9050919050565b6000602082019050818103600083015261448e81613dfb565b9050919050565b600060208201905081810360008301526144ae81613e1e565b9050919050565b600060208201905081810360008301526144ce81613e41565b9050919050565b600060208201905081810360008301526144ee81613e64565b9050919050565b6000602082019050818103600083015261450e81613e87565b9050919050565b6000602082019050818103600083015261452e81613eaa565b9050919050565b6000602082019050818103600083015261454e81613ef0565b9050919050565b6000602082019050818103600083015261456e81613f13565b9050919050565b6000602082019050818103600083015261458e81613f36565b9050919050565b600060208201905081810360008301526145ae81613f59565b9050919050565b600060208201905081810360008301526145ce81613f7c565b9050919050565b600060208201905081810360008301526145ee81613f9f565b9050919050565b6000602082019050818103600083015261460e81613fc2565b9050919050565b6000602082019050818103600083015261462e81613fe5565b9050919050565b6000602082019050818103600083015261464e81614008565b9050919050565b6000602082019050818103600083015261466e8161402b565b9050919050565b6000602082019050818103600083015261468e8161404e565b9050919050565b600060208201905081810360008301526146ae81614071565b9050919050565b600060208201905081810360008301526146ce81614094565b9050919050565b600060208201905081810360008301526146ee816140b7565b9050919050565b6000602082019050818103600083015261470e816140da565b9050919050565b6000602082019050818103600083015261472e816140fd565b9050919050565b6000602082019050818103600083015261474e81614120565b9050919050565b6000602082019050818103600083015261476e81614143565b9050919050565b6000602082019050818103600083015261478e81614166565b9050919050565b600060208201905081810360008301526147ae81614189565b9050919050565b600060208201905081810360008301526147ce816141ac565b9050919050565b600060208201905081810360008301526147ee816141cf565b9050919050565b600060208201905061480a60008301846141f2565b92915050565b600061481a61482b565b90506148268282614ad2565b919050565b6000604051905090565b600067ffffffffffffffff8211156148505761484f614c14565b5b61485982614c43565b9050602081019050919050565b60008190508160005260206000209050919050565b600081519050919050565b600081519050919050565b600082825260208201905092915050565b600082825260208201905092915050565b600081905092915050565b60006148c982614a47565b91506148d483614a47565b9250827fffffffffffffffffffffffffffffffffffffffffffffffffffffffffffffffff0382111561490957614908614b87565b5b828201905092915050565b600061491f82614a47565b915061492a83614a47565b92508261493a57614939614bb6565b5b828204905092915050565b600061495082614a47565b915061495b83614a47565b9250817fffffffffffffffffffffffffffffffffffffffffffffffffffffffffffffffff048311821515161561499457614993614b87565b5b828202905092915050565b60006149aa82614a47565b91506149b583614a47565b9250828210156149c8576149c7614b87565b5b828203905092915050565b60006149de82614a27565b9050919050565b60008115159050919050565b6000819050919050565b60007fffffffff0000000000000000000000000000000000000000000000000000000082169050919050565b600073ffffffffffffffffffffffffffffffffffffffff82169050919050565b6000819050919050565b600060ff82169050919050565b82818337600083830152505050565b60005b83811015614a8b578082015181840152602081019050614a70565b83811115614a9a576000848401525b50505050565b60006002820490506001821680614ab857607f821691505b60208210811415614acc57614acb614be5565b5b50919050565b614adb82614c43565b810181811067ffffffffffffffff82111715614afa57614af9614c14565b5b80604052505050565b6000614b0e82614a47565b91507fffffffffffffffffffffffffffffffffffffffffffffffffffffffffffffffff821415614b4157614b40614b87565b5b600182019050919050565b6000819050919050565b6000614b6182614a47565b9150614b6c83614a47565b925082614b7c57614b7b614bb6565b5b828206905092915050565b7f4e487b7100000000000000000000000000000000000000000000000000000000600052601160045260246000fd5b7f4e487b7100000000000000000000000000000000000000000000000000000000600052601260045260246000fd5b7f4e487b7100000000000000000000000000000000000000000000000000000000600052602260045260246000fd5b7f4e487b7100000000000000000000000000000000000000000000000000000000600052604160045260246000fd5b6000601f19601f8301169050919050565b7f45434453413a20696e76616c6964207369676e61747572650000000000000000600082015250565b7f53455454494e475f5a45524f5f41444452455353000000000000000000000000600082015250565b7f4e6f7420656c696769626c6520666f722077686974656c6973742e0000000000600082015250565b7f45434453413a20696e76616c6964207369676e6174757265206c656e67746800600082015250565b7f4552433732313a207472616e7366657220746f206e6f6e20455243373231526560008201527f63656976657220696d706c656d656e7465720000000000000000000000000000602082015250565b7f45746865722076616c75652073656e74206973206e6f7420657175616c20746860008201527f652070726963652e000000000000000000000000000000000000000000000000602082015250565b7f4f776e61626c653a206e6577206f776e657220697320746865207a65726f206160008201527f6464726573730000000000000000000000000000000000000000000000000000602082015250565b7f4552433732313a20746f6b656e20616c7265616479206d696e74656400000000600082015250565b7f436c61696d206861736e277420737461727465642e0000000000000000000000600082015250565b7f1901000000000000000000000000000000000000000000000000000000000000600082015250565b7f4552433732313a207472616e7366657220746f20746865207a65726f2061646460008201527f7265737300000000000000000000000000000000000000000000000000000000602082015250565b7f4552433732313a20617070726f766520746f2063616c6c657200000000000000600082015250565b7f45434453413a20696e76616c6964207369676e6174757265202773272076616c60008201527f7565000000000000000000000000000000000000000000000000000000000000602082015250565b7f4552433732313a206f70657261746f7220717565727920666f72206e6f6e657860008201527f697374656e7420746f6b656e0000000000000000000000000000000000000000602082015250565b7f45786365656473204d41585f4c494f4e2e000000000000000000000000000000600082015250565b7f4552433732313a20617070726f76652063616c6c6572206973206e6f74206f7760008201527f6e6572206e6f7220617070726f76656420666f7220616c6c0000000000000000602082015250565b7f4552433732313a2062616c616e636520717565727920666f7220746865207a6560008201527f726f206164647265737300000000000000000000000000000000000000000000602082015250565b7f4552433732313a206f776e657220717565727920666f72206e6f6e657869737460008201527f656e7420746f6b656e0000000000000000000000000000000000000000000000602082015250565b7f544f4b454e5f4e4f545f45584953545300000000000000000000000000000000600082015250565b7f45434453413a20696e76616c6964207369676e6174757265202776272076616c60008201527f7565000000000000000000000000000000000000000000000000000000000000602082015250565b7f5468697320737461676520697320736f6c64206f757421000000000000000000600082015250565b7f4552433732313a206d696e7420746f20746865207a65726f2061646472657373600082015250565b7f4552433732313a20617070726f76656420717565727920666f72206e6f6e657860008201527f697374656e7420746f6b656e0000000000000000000000000000000000000000602082015250565b7f4f776e61626c653a2063616c6c6572206973206e6f7420746865206f776e6572600082015250565b7f4552433732313a207472616e73666572206f6620746f6b656e2074686174206960008201527f73206e6f74206f776e0000000000000000000000000000000000000000000000602082015250565b7f45786365656420746865207175616e7469747920746861742063616e2062652060008201527f636c61696d656400000000000000000000000000000000000000000000000000602082015250565b7f4e6f7420656c696769626c6520666f7220636c61696d2e000000000000000000600082015250565b7f45786365656473206d61782077686974656c697374206e756d6265722e000000600082015250565b7f4552433732313a20617070726f76616c20746f2063757272656e74206f776e6560008201527f7200000000000000000000000000000000000000000000000000000000000000602082015250565b7f4552433732313a207472616e736665722063616c6c6572206973206e6f74206f60008201527f776e6572206e6f7220617070726f766564000000000000000000000000000000602082015250565b7f4e4f545f494e5f57484954454c4953545f54494d450000000000000000000000600082015250565b7f57484954454c4953545f4e4f545f414354495645000000000000000000000000600082015250565b6153b7816149d3565b81146153c257600080fd5b50565b6153ce816149e5565b81146153d957600080fd5b50565b6153e5816149fb565b81146153f057600080fd5b50565b6153fc81614a47565b811461540757600080fd5b5056fea2646970667358221220f644833a39b7c10ac2ee3dce2f4fda220edc83ec45f5901e6f659f7f80d05f5c64736f6c63430008040033",
  "devdoc": {
    "kind": "dev",
    "methods": {
      "approve(address,uint256)": {
        "details": "See {IERC721-approve}."
      },
      "balanceOf(address)": {
        "details": "See {IERC721-balanceOf}."
      },
      "getApproved(uint256)": {
        "details": "See {IERC721-getApproved}."
      },
      "isApprovedForAll(address,address)": {
        "details": "See {IERC721-isApprovedForAll}."
      },
      "name()": {
        "details": "See {IERC721Metadata-name}."
      },
      "owner()": {
        "details": "Returns the address of the current owner."
      },
      "ownerOf(uint256)": {
        "details": "See {IERC721-ownerOf}."
      },
      "renounceOwnership()": {
        "details": "Leaves the contract without owner. It will not be possible to call `onlyOwner` functions anymore. Can only be called by the current owner. NOTE: Renouncing ownership will leave the contract without an owner, thereby removing any functionality that is only available to the owner."
      },
      "safeTransferFrom(address,address,uint256)": {
        "details": "See {IERC721-safeTransferFrom}."
      },
      "safeTransferFrom(address,address,uint256,bytes)": {
        "details": "See {IERC721-safeTransferFrom}."
      },
      "setApprovalForAll(address,bool)": {
        "details": "See {IERC721-setApprovalForAll}."
      },
      "supportsInterface(bytes4)": {
        "details": "See {IERC165-supportsInterface}."
      },
      "symbol()": {
        "details": "See {IERC721Metadata-symbol}."
      },
      "tokenURI(uint256)": {
        "details": "Returns the Uniform Resource Identifier (URI) for `tokenId` token."
      },
      "transferFrom(address,address,uint256)": {
        "details": "See {IERC721-transferFrom}."
      },
      "transferOwnership(address)": {
        "details": "Transfers ownership of the contract to a new account (`newOwner`). Can only be called by the current owner."
      }
    },
    "version": 1
  },
  "userdoc": {
    "kind": "user",
    "methods": {},
    "version": 1
  },
  "storageLayout": {
    "storage": [
      {
        "astId": 7,
        "contract": "contracts/LionDAO.sol:LionDAO",
        "label": "_owner",
        "offset": 0,
        "slot": "0",
        "type": "t_address"
      },
      {
        "astId": 2845,
        "contract": "contracts/LionDAO.sol:LionDAO",
        "label": "_name",
        "offset": 0,
        "slot": "1",
        "type": "t_string_storage"
      },
      {
        "astId": 2847,
        "contract": "contracts/LionDAO.sol:LionDAO",
        "label": "_symbol",
        "offset": 0,
        "slot": "2",
        "type": "t_string_storage"
      },
      {
        "astId": 2850,
        "contract": "contracts/LionDAO.sol:LionDAO",
        "label": "_owners",
        "offset": 0,
        "slot": "3",
        "type": "t_array(t_address)dyn_storage"
      },
      {
        "astId": 2854,
        "contract": "contracts/LionDAO.sol:LionDAO",
        "label": "_tokenApprovals",
        "offset": 0,
        "slot": "4",
        "type": "t_mapping(t_uint256,t_address)"
      },
      {
        "astId": 2860,
        "contract": "contracts/LionDAO.sol:LionDAO",
        "label": "_operatorApprovals",
        "offset": 0,
        "slot": "5",
        "type": "t_mapping(t_address,t_mapping(t_address,t_bool))"
      },
      {
        "astId": 3619,
        "contract": "contracts/LionDAO.sol:LionDAO",
        "label": "MAX_LION",
        "offset": 0,
        "slot": "6",
        "type": "t_uint256"
      },
      {
        "astId": 3622,
        "contract": "contracts/LionDAO.sol:LionDAO",
        "label": "STAGE_LIMIT",
        "offset": 0,
        "slot": "7",
        "type": "t_uint256"
      },
      {
        "astId": 3625,
        "contract": "contracts/LionDAO.sol:LionDAO",
        "label": "PRICE",
        "offset": 0,
        "slot": "8",
        "type": "t_uint256"
      },
      {
        "astId": 3628,
        "contract": "contracts/LionDAO.sol:LionDAO",
        "label": "numWhitelistSale",
        "offset": 0,
        "slot": "9",
        "type": "t_uint256"
      },
      {
        "astId": 3631,
        "contract": "contracts/LionDAO.sol:LionDAO",
        "label": "numClaim",
        "offset": 0,
        "slot": "10",
        "type": "t_uint256"
      },
      {
        "astId": 3634,
        "contract": "contracts/LionDAO.sol:LionDAO",
        "label": "numGiveaway",
        "offset": 0,
        "slot": "11",
        "type": "t_uint256"
      },
      {
        "astId": 3637,
        "contract": "contracts/LionDAO.sol:LionDAO",
        "label": "totalSupply",
        "offset": 0,
        "slot": "12",
        "type": "t_uint256"
      },
      {
        "astId": 3640,
        "contract": "contracts/LionDAO.sol:LionDAO",
        "label": "hasWhitelistSaleStarted",
        "offset": 0,
        "slot": "13",
        "type": "t_bool"
      },
      {
        "astId": 3643,
        "contract": "contracts/LionDAO.sol:LionDAO",
        "label": "hasClaimStarted",
        "offset": 1,
        "slot": "13",
        "type": "t_bool"
      },
      {
        "astId": 3646,
        "contract": "contracts/LionDAO.sol:LionDAO",
        "label": "_baseTokenURI",
        "offset": 0,
        "slot": "14",
        "type": "t_string_storage"
      },
      {
        "astId": 3649,
        "contract": "contracts/LionDAO.sol:LionDAO",
        "label": "treasury",
        "offset": 0,
        "slot": "15",
        "type": "t_address"
      },
      {
        "astId": 3653,
        "contract": "contracts/LionDAO.sol:LionDAO",
        "label": "hasMinted",
        "offset": 0,
        "slot": "16",
        "type": "t_mapping(t_address,t_uint256)"
      },
      {
        "astId": 3656,
        "contract": "contracts/LionDAO.sol:LionDAO",
        "label": "whitelistSaleTimestamp",
        "offset": 0,
        "slot": "17",
        "type": "t_uint256"
      }
    ],
    "types": {
      "t_address": {
        "encoding": "inplace",
        "label": "address",
        "numberOfBytes": "20"
      },
      "t_array(t_address)dyn_storage": {
        "base": "t_address",
        "encoding": "dynamic_array",
        "label": "address[]",
        "numberOfBytes": "32"
      },
      "t_bool": {
        "encoding": "inplace",
        "label": "bool",
        "numberOfBytes": "1"
      },
      "t_mapping(t_address,t_bool)": {
        "encoding": "mapping",
        "key": "t_address",
        "label": "mapping(address => bool)",
        "numberOfBytes": "32",
        "value": "t_bool"
      },
      "t_mapping(t_address,t_mapping(t_address,t_bool))": {
        "encoding": "mapping",
        "key": "t_address",
        "label": "mapping(address => mapping(address => bool))",
        "numberOfBytes": "32",
        "value": "t_mapping(t_address,t_bool)"
      },
      "t_mapping(t_address,t_uint256)": {
        "encoding": "mapping",
        "key": "t_address",
        "label": "mapping(address => uint256)",
        "numberOfBytes": "32",
        "value": "t_uint256"
      },
      "t_mapping(t_uint256,t_address)": {
        "encoding": "mapping",
        "key": "t_uint256",
        "label": "mapping(uint256 => address)",
        "numberOfBytes": "32",
        "value": "t_address"
      },
      "t_string_storage": {
        "encoding": "bytes",
        "label": "string",
        "numberOfBytes": "32"
      },
      "t_uint256": {
        "encoding": "inplace",
        "label": "uint256",
        "numberOfBytes": "32"
      }
    }
  }
}