{
  "address": "0xEBc1c15FEC60437bCd369B22f6E585aD0C1558DE",
  "abi": [
    {
      "inputs": [],
      "stateMutability": "nonpayable",
      "type": "constructor"
    },
    {
      "anonymous": false,
      "inputs": [
        {
          "indexed": true,
          "internalType": "address",
          "name": "owner",
          "type": "address"
        },
        {
          "indexed": true,
          "internalType": "address",
          "name": "approved",
          "type": "address"
        },
        {
          "indexed": true,
          "internalType": "uint256",
          "name": "tokenId",
          "type": "uint256"
        }
      ],
      "name": "Approval",
      "type": "event"
    },
    {
      "anonymous": false,
      "inputs": [
        {
          "indexed": true,
          "internalType": "address",
          "name": "owner",
          "type": "address"
        },
        {
          "indexed": true,
          "internalType": "address",
          "name": "operator",
          "type": "address"
        },
        {
          "indexed": false,
          "internalType": "bool",
          "name": "approved",
          "type": "bool"
        }
      ],
      "name": "ApprovalForAll",
      "type": "event"
    },
    {
      "anonymous": false,
      "inputs": [
        {
          "indexed": true,
          "internalType": "address",
          "name": "previousOwner",
          "type": "address"
        },
        {
          "indexed": true,
          "internalType": "address",
          "name": "newOwner",
          "type": "address"
        }
      ],
      "name": "OwnershipTransferred",
      "type": "event"
    },
    {
      "anonymous": false,
      "inputs": [
        {
          "indexed": true,
          "internalType": "address",
          "name": "from",
          "type": "address"
        },
        {
          "indexed": true,
          "internalType": "address",
          "name": "to",
          "type": "address"
        },
        {
          "indexed": true,
          "internalType": "uint256",
          "name": "tokenId",
          "type": "uint256"
        }
      ],
      "name": "Transfer",
      "type": "event"
    },
    {
      "anonymous": false,
      "inputs": [
        {
          "indexed": false,
          "internalType": "address",
          "name": "owner",
          "type": "address"
        },
        {
          "indexed": false,
          "internalType": "uint256",
          "name": "quantity",
          "type": "uint256"
        },
        {
          "indexed": false,
          "internalType": "uint256",
          "name": "totalSupply",
          "type": "uint256"
        }
      ],
      "name": "mintEvent",
      "type": "event"
    },
    {
      "inputs": [],
      "name": "MAX_LION",
      "outputs": [
        {
          "internalType": "uint256",
          "name": "",
          "type": "uint256"
        }
      ],
      "stateMutability": "view",
      "type": "function"
    },
    {
      "inputs": [],
      "name": "PRICE",
      "outputs": [
        {
          "internalType": "uint256",
          "name": "",
          "type": "uint256"
        }
      ],
      "stateMutability": "view",
      "type": "function"
    },
    {
      "inputs": [],
      "name": "STAGE_LIMIT",
      "outputs": [
        {
          "internalType": "uint256",
          "name": "",
          "type": "uint256"
        }
      ],
      "stateMutability": "view",
      "type": "function"
    },
    {
      "inputs": [
        {
          "internalType": "address",
          "name": "to",
          "type": "address"
        },
        {
          "internalType": "uint256",
          "name": "tokenId",
          "type": "uint256"
        }
      ],
      "name": "approve",
      "outputs": [],
      "stateMutability": "nonpayable",
      "type": "function"
    },
    {
      "inputs": [
        {
          "internalType": "address",
          "name": "owner",
          "type": "address"
        }
      ],
      "name": "balanceOf",
      "outputs": [
        {
          "internalType": "uint256",
          "name": "",
          "type": "uint256"
        }
      ],
      "stateMutability": "view",
      "type": "function"
    },
    {
      "inputs": [
        {
          "internalType": "uint256",
          "name": "tokenId",
          "type": "uint256"
        }
      ],
      "name": "burn",
      "outputs": [],
      "stateMutability": "nonpayable",
      "type": "function"
    },
    {
      "inputs": [
        {
          "internalType": "uint256",
          "name": "quantity",
          "type": "uint256"
        },
        {
          "internalType": "uint256",
          "name": "maxQuantity",
          "type": "uint256"
        },
        {
          "internalType": "bytes",
          "name": "SIGNATURE",
          "type": "bytes"
        }
      ],
      "name": "claimLion",
      "outputs": [],
      "stateMutability": "nonpayable",
      "type": "function"
    },
    {
      "inputs": [
        {
          "internalType": "uint256",
          "name": "tokenId",
          "type": "uint256"
        }
      ],
      "name": "getApproved",
      "outputs": [
        {
          "internalType": "address",
          "name": "",
          "type": "address"
        }
      ],
      "stateMutability": "view",
      "type": "function"
    },
    {
      "inputs": [
        {
          "internalType": "address",
          "name": "_to",
          "type": "address"
        },
        {
          "internalType": "uint256",
          "name": "quantity",
          "type": "uint256"
        }
      ],
      "name": "giveawayLion",
      "outputs": [],
      "stateMutability": "nonpayable",
      "type": "function"
    },
    {
      "inputs": [],
      "name": "hasClaimStarted",
      "outputs": [
        {
          "internalType": "bool",
          "name": "",
          "type": "bool"
        }
      ],
      "stateMutability": "view",
      "type": "function"
    },
    {
      "inputs": [
        {
          "internalType": "address",
          "name": "",
          "type": "address"
        }
      ],
      "name": "hasClaimed",
      "outputs": [
        {
          "internalType": "uint256",
          "name": "",
          "type": "uint256"
        }
      ],
      "stateMutability": "view",
      "type": "function"
    },
    {
      "inputs": [
        {
          "internalType": "address",
          "name": "",
          "type": "address"
        }
      ],
      "name": "hasWhitelistSale",
      "outputs": [
        {
          "internalType": "uint256",
          "name": "",
          "type": "uint256"
        }
      ],
      "stateMutability": "view",
      "type": "function"
    },
    {
      "inputs": [],
      "name": "hasWhitelistSaleStarted",
      "outputs": [
        {
          "internalType": "bool",
          "name": "",
          "type": "bool"
        }
      ],
      "stateMutability": "view",
      "type": "function"
    },
    {
      "inputs": [
        {
          "internalType": "address",
          "name": "owner",
          "type": "address"
        },
        {
          "internalType": "address",
          "name": "operator",
          "type": "address"
        }
      ],
      "name": "isApprovedForAll",
      "outputs": [
        {
          "internalType": "bool",
          "name": "",
          "type": "bool"
        }
      ],
      "stateMutability": "view",
      "type": "function"
    },
    {
      "inputs": [
        {
          "internalType": "uint256",
          "name": "quantity",
          "type": "uint256"
        },
        {
          "internalType": "uint256",
          "name": "maxQuantity",
          "type": "uint256"
        },
        {
          "internalType": "bytes",
          "name": "SIGNATURE",
          "type": "bytes"
        }
      ],
      "name": "mintWhitelistLion",
      "outputs": [],
      "stateMutability": "payable",
      "type": "function"
    },
    {
      "inputs": [],
      "name": "name",
      "outputs": [
        {
          "internalType": "string",
          "name": "",
          "type": "string"
        }
      ],
      "stateMutability": "view",
      "type": "function"
    },
    {
      "inputs": [],
      "name": "numClaim",
      "outputs": [
        {
          "internalType": "uint256",
          "name": "",
          "type": "uint256"
        }
      ],
      "stateMutability": "view",
      "type": "function"
    },
    {
      "inputs": [],
      "name": "numGiveaway",
      "outputs": [
        {
          "internalType": "uint256",
          "name": "",
          "type": "uint256"
        }
      ],
      "stateMutability": "view",
      "type": "function"
    },
    {
      "inputs": [],
      "name": "numWhitelistSale",
      "outputs": [
        {
          "internalType": "uint256",
          "name": "",
          "type": "uint256"
        }
      ],
      "stateMutability": "view",
      "type": "function"
    },
    {
      "inputs": [],
      "name": "owner",
      "outputs": [
        {
          "internalType": "address",
          "name": "",
          "type": "address"
        }
      ],
      "stateMutability": "view",
      "type": "function"
    },
    {
      "inputs": [
        {
          "internalType": "uint256",
          "name": "tokenId",
          "type": "uint256"
        }
      ],
      "name": "ownerOf",
      "outputs": [
        {
          "internalType": "address",
          "name": "",
          "type": "address"
        }
      ],
      "stateMutability": "view",
      "type": "function"
    },
    {
      "inputs": [],
      "name": "renounceOwnership",
      "outputs": [],
      "stateMutability": "nonpayable",
      "type": "function"
    },
    {
      "inputs": [
        {
          "internalType": "address",
          "name": "from",
          "type": "address"
        },
        {
          "internalType": "address",
          "name": "to",
          "type": "address"
        },
        {
          "internalType": "uint256",
          "name": "tokenId",
          "type": "uint256"
        }
      ],
      "name": "safeTransferFrom",
      "outputs": [],
      "stateMutability": "nonpayable",
      "type": "function"
    },
    {
      "inputs": [
        {
          "internalType": "address",
          "name": "from",
          "type": "address"
        },
        {
          "internalType": "address",
          "name": "to",
          "type": "address"
        },
        {
          "internalType": "uint256",
          "name": "tokenId",
          "type": "uint256"
        },
        {
          "internalType": "bytes",
          "name": "_data",
          "type": "bytes"
        }
      ],
      "name": "safeTransferFrom",
      "outputs": [],
      "stateMutability": "nonpayable",
      "type": "function"
    },
    {
      "inputs": [
        {
          "internalType": "address",
          "name": "operator",
          "type": "address"
        },
        {
          "internalType": "bool",
          "name": "approved",
          "type": "bool"
        }
      ],
      "name": "setApprovalForAll",
      "outputs": [],
      "stateMutability": "nonpayable",
      "type": "function"
    },
    {
      "inputs": [
        {
          "internalType": "bool",
          "name": "_hasClaimStarted",
          "type": "bool"
        }
      ],
      "name": "setClaim",
      "outputs": [],
      "stateMutability": "nonpayable",
      "type": "function"
    },
    {
      "inputs": [
        {
          "internalType": "uint256",
          "name": "_MAX_num",
          "type": "uint256"
        }
      ],
      "name": "setMAX_LION",
      "outputs": [],
      "stateMutability": "nonpayable",
      "type": "function"
    },
    {
      "inputs": [
        {
          "internalType": "uint256",
          "name": "_STAGE_LIMIT",
          "type": "uint256"
        }
      ],
      "name": "setSTAGE_LIMIT",
      "outputs": [],
      "stateMutability": "nonpayable",
      "type": "function"
    },
    {
      "inputs": [
        {
          "internalType": "address",
          "name": "_treasury",
          "type": "address"
        }
      ],
      "name": "setTreasury",
      "outputs": [],
      "stateMutability": "nonpayable",
      "type": "function"
    },
    {
      "inputs": [
        {
          "internalType": "string",
          "name": "_tokenURI",
          "type": "string"
        }
      ],
      "name": "setURI",
      "outputs": [],
      "stateMutability": "nonpayable",
      "type": "function"
    },
    {
      "inputs": [
        {
          "internalType": "bool",
          "name": "_hasWhitelistSaleStarted",
          "type": "bool"
        },
        {
          "internalType": "uint256",
          "name": "_whitelistSaleTimestamp",
          "type": "uint256"
        }
      ],
      "name": "setWhitelistSale",
      "outputs": [],
      "stateMutability": "nonpayable",
      "type": "function"
    },
    {
      "inputs": [
        {
          "internalType": "uint256",
          "name": "_price",
          "type": "uint256"
        }
      ],
      "name": "set_PRICE",
      "outputs": [],
      "stateMutability": "nonpayable",
      "type": "function"
    },
    {
      "inputs": [
        {
          "internalType": "bytes4",
          "name": "interfaceId",
          "type": "bytes4"
        }
      ],
      "name": "supportsInterface",
      "outputs": [
        {
          "internalType": "bool",
          "name": "",
          "type": "bool"
        }
      ],
      "stateMutability": "view",
      "type": "function"
    },
    {
      "inputs": [],
      "name": "symbol",
      "outputs": [
        {
          "internalType": "string",
          "name": "",
          "type": "string"
        }
      ],
      "stateMutability": "view",
      "type": "function"
    },
    {
      "inputs": [
        {
          "internalType": "uint256",
          "name": "tokenId",
          "type": "uint256"
        }
      ],
      "name": "tokenURI",
      "outputs": [
        {
          "internalType": "string",
          "name": "",
          "type": "string"
        }
      ],
      "stateMutability": "view",
      "type": "function"
    },
    {
      "inputs": [],
      "name": "totalSupply",
      "outputs": [
        {
          "internalType": "uint256",
          "name": "",
          "type": "uint256"
        }
      ],
      "stateMutability": "view",
      "type": "function"
    },
    {
      "inputs": [
        {
          "internalType": "address",
          "name": "from",
          "type": "address"
        },
        {
          "internalType": "address",
          "name": "to",
          "type": "address"
        },
        {
          "internalType": "uint256",
          "name": "tokenId",
          "type": "uint256"
        }
      ],
      "name": "transferFrom",
      "outputs": [],
      "stateMutability": "nonpayable",
      "type": "function"
    },
    {
      "inputs": [
        {
          "internalType": "address",
          "name": "newOwner",
          "type": "address"
        }
      ],
      "name": "transferOwnership",
      "outputs": [],
      "stateMutability": "nonpayable",
      "type": "function"
    },
    {
      "inputs": [],
      "name": "treasury",
      "outputs": [
        {
          "internalType": "address",
          "name": "",
          "type": "address"
        }
      ],
      "stateMutability": "view",
      "type": "function"
    },
    {
      "inputs": [
        {
          "internalType": "uint256",
          "name": "maxQuantity",
          "type": "uint256"
        },
        {
          "internalType": "bytes",
          "name": "SIGNATURE",
          "type": "bytes"
        }
      ],
      "name": "verify",
      "outputs": [
        {
          "internalType": "bool",
          "name": "",
          "type": "bool"
        }
      ],
      "stateMutability": "view",
      "type": "function"
    },
    {
      "inputs": [],
      "name": "whitelistSaleTimestamp",
      "outputs": [
        {
          "internalType": "uint256",
          "name": "",
          "type": "uint256"
        }
      ],
      "stateMutability": "view",
      "type": "function"
    },
    {
      "inputs": [],
      "name": "withdrawAll",
      "outputs": [],
      "stateMutability": "payable",
      "type": "function"
    }
  ],
  "transactionHash": "0x29f61c10c93bd84e7ab68961296777e9c94cb955145bb831b5405fdb40ae1552",
  "args": [],
  "numDeployments": 2,
  "solcInputHash": "b95a7fdca31ada7c7886aa5b46c3bf64",
  "bytecode": "0x6101206040526103e760065561014d600755670c7d713b49da000060085560006009556000600a556000600b556000600c556001600d60006101000a81548160ff0219169083151502179055506001600d60016101000a81548160ff0219169083151502179055506040518060400160405280601981526020017f687474703a2f2f6170692e6c696f6e2f4d657461646174612f00000000000000815250600e9080519060200190620000b4929190620003d7565b5073d56e7bcf62a417b821e6cf7ee16df7715a3e82ab600f60006101000a81548173ffffffffffffffffffffffffffffffffffffffff021916908373ffffffffffffffffffffffffffffffffffffffff1602179055506361e530106012553480156200011f57600080fd5b506040518060400160405280600181526020017f4c000000000000000000000000000000000000000000000000000000000000008152506040518060400160405280600181526020017f4c000000000000000000000000000000000000000000000000000000000000008152506040518060400160405280600881526020017f4c494f4e2044414f0000000000000000000000000000000000000000000000008152506040518060400160405280600581526020017f312e302e30000000000000000000000000000000000000000000000000000000815250620002186200020c620002cf60201b60201c565b620002d760201b60201c565b60008280519060200120905060008280519060200120905060007f8b73c3c69bb8fe3d512ecc4cf759cc79239f7b179b0ffacaa9a75d522b39400f90508260c081815250508160e081815250504660a08181525050620002808184846200039b60201b60201c565b6080818152505080610100818152505050505050508160019080519060200190620002ad929190620003d7565b508060029080519060200190620002c6929190620003d7565b505050620005c4565b600033905090565b60008060009054906101000a900473ffffffffffffffffffffffffffffffffffffffff169050816000806101000a81548173ffffffffffffffffffffffffffffffffffffffff021916908373ffffffffffffffffffffffffffffffffffffffff1602179055508173ffffffffffffffffffffffffffffffffffffffff168173ffffffffffffffffffffffffffffffffffffffff167f8be0079c531659141344cd1fd0a4f28419497f9722a3daafe3b4186f6b6457e060405160405180910390a35050565b60008383834630604051602001620003b8959493929190620004ba565b6040516020818303038152906040528051906020012090509392505050565b828054620003e5906200055f565b90600052602060002090601f01602090048101928262000409576000855562000455565b82601f106200042457805160ff191683800117855562000455565b8280016001018555821562000455579182015b828111156200045457825182559160200191906001019062000437565b5b50905062000464919062000468565b5090565b5b808211156200048357600081600090555060010162000469565b5090565b620004928162000517565b82525050565b620004a3816200052b565b82525050565b620004b48162000555565b82525050565b600060a082019050620004d1600083018862000498565b620004e0602083018762000498565b620004ef604083018662000498565b620004fe6060830185620004a9565b6200050d608083018462000487565b9695505050505050565b6000620005248262000535565b9050919050565b6000819050919050565b600073ffffffffffffffffffffffffffffffffffffffff82169050919050565b6000819050919050565b600060028204905060018216806200057857607f821691505b602082108114156200058f576200058e62000595565b5b50919050565b7f4e487b7100000000000000000000000000000000000000000000000000000000600052602260045260246000fd5b60805160a05160c05160e051610100516154a0620006096000396000612e0d01526000612e4f01526000612e2e01526000612dba01526000612de201526154a06000f3fe6080604052600436106102515760003560e01c806370a08231116101395780639339059c116100b6578063c87b56dd1161007a578063c87b56dd14610891578063e7908b09146108ce578063e985e9c5146108ea578063f0f4426014610927578063f2fde38b14610950578063fc89bacd1461097957610251565b80639339059c146107c057806395d89b41146107e9578063a22cb46514610814578063b88d4fde1461083d578063c341526b1461086657610251565b8063853828b6116100fd578063853828b6146106f857806385852ce4146107025780638b795dcb1461073f5780638d859f3e1461076a5780638da5cb5b1461079557610251565b806370a0823114610613578063715018a614610650578063717bf3361461066757806373b2e80e14610692578063798611a0146106cf57610251565b8063211418ab116101d257806352e968281161019657806352e9682814610501578063544657731461052c5780635b769c6d1461055757806361d027b3146105825780636352211e146105ad5780636456c205146105ea57610251565b8063211418ab1461043257806323b872dd1461045b57806332a61f5f1461048457806342842e0e146104af57806342966c68146104d857610251565b8063081812fc11610219578063081812fc1461034d578063095ea7b31461038a5780630a61454b146103b357806318160ddd146103de57806318e77a8e1461040957610251565b806301ffc9a71461025657806302244fd01461029357806302fe5305146102bc57806303a16532146102e557806306fdde0314610322575b600080fd5b34801561026257600080fd5b5061027d60048036038101906102789190613b11565b6109a2565b60405161028a9190614369565b60405180910390f35b34801561029f57600080fd5b506102ba60048036038101906102b59190613ba8565b610a84565b005b3480156102c857600080fd5b506102e360048036038101906102de9190613b63565b610b0a565b005b3480156102f157600080fd5b5061030c60048036038101906103079190613905565b610b9c565b6040516103199190614855565b60405180910390f35b34801561032e57600080fd5b50610337610bb4565b6040516103449190614453565b60405180910390f35b34801561035957600080fd5b50610374600480360381019061036f9190613ba8565b610c46565b60405161038191906142cb565b60405180910390f35b34801561039657600080fd5b506103b160048036038101906103ac9190613a70565b610ccb565b005b3480156103bf57600080fd5b506103c8610de3565b6040516103d59190614855565b60405180910390f35b3480156103ea57600080fd5b506103f3610de9565b6040516104009190614855565b60405180910390f35b34801561041557600080fd5b50610430600480360381019061042b9190613a70565b610def565b005b34801561043e57600080fd5b5061045960048036038101906104549190613aac565b610f67565b005b34801561046757600080fd5b50610482600480360381019061047d919061396a565b611000565b005b34801561049057600080fd5b50610499611060565b6040516104a69190614369565b60405180910390f35b3480156104bb57600080fd5b506104d660048036038101906104d1919061396a565b611073565b005b3480156104e457600080fd5b506104ff60048036038101906104fa9190613ba8565b611093565b005b34801561050d57600080fd5b5061051661111b565b6040516105239190614855565b60405180910390f35b34801561053857600080fd5b50610541611121565b60405161054e9190614855565b60405180910390f35b34801561056357600080fd5b5061056c611127565b6040516105799190614855565b60405180910390f35b34801561058e57600080fd5b5061059761112d565b6040516105a491906142cb565b60405180910390f35b3480156105b957600080fd5b506105d460048036038101906105cf9190613ba8565b611153565b6040516105e191906142cb565b60405180910390f35b3480156105f657600080fd5b50610611600480360381019061060c9190613ba8565b611236565b005b34801561061f57600080fd5b5061063a60048036038101906106359190613905565b6112bc565b6040516106479190614855565b60405180910390f35b34801561065c57600080fd5b50610665611408565b005b34801561067357600080fd5b5061067c611490565b6040516106899190614369565b60405180910390f35b34801561069e57600080fd5b506106b960048036038101906106b49190613905565b6114a3565b6040516106c69190614855565b60405180910390f35b3480156106db57600080fd5b506106f660048036038101906106f19190613ba8565b6114bb565b005b610700611541565b005b34801561070e57600080fd5b5061072960048036038101906107249190613bd1565b61161f565b6040516107369190614369565b60405180910390f35b34801561074b57600080fd5b506107546116c6565b6040516107619190614855565b60405180910390f35b34801561077657600080fd5b5061077f6116cc565b60405161078c9190614855565b60405180910390f35b3480156107a157600080fd5b506107aa6116d2565b6040516107b791906142cb565b60405180910390f35b3480156107cc57600080fd5b506107e760048036038101906107e29190613c25565b6116fb565b005b3480156107f557600080fd5b506107fe611a25565b60405161080b9190614453565b60405180910390f35b34801561082057600080fd5b5061083b60048036038101906108369190613a34565b611ab7565b005b34801561084957600080fd5b50610864600480360381019061085f91906139b9565b611c38565b005b34801561087257600080fd5b5061087b611c9a565b6040516108889190614855565b60405180910390f35b34801561089d57600080fd5b506108b860048036038101906108b39190613ba8565b611ca0565b6040516108c59190614453565b60405180910390f35b6108e860048036038101906108e39190613c25565b611d1c565b005b3480156108f657600080fd5b50610911600480360381019061090c919061392e565b6120e1565b60405161091e9190614369565b60405180910390f35b34801561093357600080fd5b5061094e60048036038101906109499190613905565b612175565b005b34801561095c57600080fd5b5061097760048036038101906109729190613905565b6122c7565b005b34801561098557600080fd5b506109a0600480360381019061099b9190613ad5565b6123bf565b005b60007f80ac58cd000000000000000000000000000000000000000000000000000000007bffffffffffffffffffffffffffffffffffffffffffffffffffffffff1916827bffffffffffffffffffffffffffffffffffffffffffffffffffffffff19161480610a6d57507f5b5e139f000000000000000000000000000000000000000000000000000000007bffffffffffffffffffffffffffffffffffffffffffffffffffffffff1916827bffffffffffffffffffffffffffffffffffffffffffffffffffffffff1916145b80610a7d5750610a7c82612460565b5b9050919050565b610a8c6124ca565b73ffffffffffffffffffffffffffffffffffffffff16610aaa6116d2565b73ffffffffffffffffffffffffffffffffffffffff1614610b00576040517f08c379a0000000000000000000000000000000000000000000000000000000008152600401610af790614715565b60405180910390fd5b8060068190555050565b610b126124ca565b73ffffffffffffffffffffffffffffffffffffffff16610b306116d2565b73ffffffffffffffffffffffffffffffffffffffff1614610b86576040517f08c379a0000000000000000000000000000000000000000000000000000000008152600401610b7d90614715565b60405180910390fd5b8181600e9190610b97929190613747565b505050565b60116020528060005260406000206000915090505481565b606060018054610bc390614b00565b80601f0160208091040260200160405190810160405280929190818152602001828054610bef90614b00565b8015610c3c5780601f10610c1157610100808354040283529160200191610c3c565b820191906000526020600020905b815481529060010190602001808311610c1f57829003601f168201915b5050505050905090565b6000610c51826124d2565b610c90576040517f08c379a0000000000000000000000000000000000000000000000000000000008152600401610c87906146f5565b60405180910390fd5b6004600083815260200190815260200160002060009054906101000a900473ffffffffffffffffffffffffffffffffffffffff169050919050565b6000610cd682611153565b90508073ffffffffffffffffffffffffffffffffffffffff168373ffffffffffffffffffffffffffffffffffffffff161415610d47576040517f08c379a0000000000000000000000000000000000000000000000000000000008152600401610d3e906147b5565b60405180910390fd5b8073ffffffffffffffffffffffffffffffffffffffff16610d666124ca565b73ffffffffffffffffffffffffffffffffffffffff161480610d955750610d9481610d8f6124ca565b6120e1565b5b610dd4576040517f08c379a0000000000000000000000000000000000000000000000000000000008152600401610dcb90614615565b60405180910390fd5b610dde8383612580565b505050565b60075481565b600c5481565b610df76124ca565b73ffffffffffffffffffffffffffffffffffffffff16610e156116d2565b73ffffffffffffffffffffffffffffffffffffffff1614610e6b576040517f08c379a0000000000000000000000000000000000000000000000000000000008152600401610e6290614715565b60405180910390fd5b600654610e8382600c5461263990919063ffffffff16565b1115610ec4576040517f08c379a0000000000000000000000000000000000000000000000000000000008152600401610ebb906145f5565b60405180910390fd5b60005b81811015610f0a57610edb83600c5461264f565b610ef16001600c5461263990919063ffffffff16565b600c819055508080610f0290614b63565b915050610ec7565b50610f2081600b5461263990919063ffffffff16565b600b819055507f9670c8b300c38cd3db8d3f9429dd902e67f418c4dd193e2497f06d20efc795608282600c54604051610f5b93929190614332565b60405180910390a15050565b610f6f6124ca565b73ffffffffffffffffffffffffffffffffffffffff16610f8d6116d2565b73ffffffffffffffffffffffffffffffffffffffff1614610fe3576040517f08c379a0000000000000000000000000000000000000000000000000000000008152600401610fda90614715565b60405180910390fd5b80600d60016101000a81548160ff02191690831515021790555050565b61101161100b6124ca565b8261266d565b611050576040517f08c379a0000000000000000000000000000000000000000000000000000000008152600401611047906147f5565b60405180910390fd5b61105b83838361274b565b505050565b600d60009054906101000a900460ff1681565b61108e83838360405180602001604052806000815250611c38565b505050565b61109b6124ca565b73ffffffffffffffffffffffffffffffffffffffff166110b96116d2565b73ffffffffffffffffffffffffffffffffffffffff161461110f576040517f08c379a000000000000000000000000000000000000000000000000000000000815260040161110690614715565b60405180910390fd5b6111188161292a565b50565b60125481565b600a5481565b60065481565b600f60009054906101000a900473ffffffffffffffffffffffffffffffffffffffff1681565b60008060038381548110611190577f4e487b7100000000000000000000000000000000000000000000000000000000600052603260045260246000fd5b9060005260206000200160009054906101000a900473ffffffffffffffffffffffffffffffffffffffff169050600073ffffffffffffffffffffffffffffffffffffffff168173ffffffffffffffffffffffffffffffffffffffff16141561122d576040517f08c379a000000000000000000000000000000000000000000000000000000000815260040161122490614655565b60405180910390fd5b80915050919050565b61123e6124ca565b73ffffffffffffffffffffffffffffffffffffffff1661125c6116d2565b73ffffffffffffffffffffffffffffffffffffffff16146112b2576040517f08c379a00000000000000000000000000000000000000000000000000000000081526004016112a990614715565b60405180910390fd5b8060088190555050565b60008073ffffffffffffffffffffffffffffffffffffffff168273ffffffffffffffffffffffffffffffffffffffff16141561132d576040517f08c379a000000000000000000000000000000000000000000000000000000000815260040161132490614635565b60405180910390fd5b600080600380549050905060005b818110156113f9576003818154811061137d577f4e487b7100000000000000000000000000000000000000000000000000000000600052603260045260246000fd5b9060005260206000200160009054906101000a900473ffffffffffffffffffffffffffffffffffffffff1673ffffffffffffffffffffffffffffffffffffffff168573ffffffffffffffffffffffffffffffffffffffff1614156113e857826113e590614b63565b92505b806113f290614b63565b905061133b565b50600090508192505050919050565b6114106124ca565b73ffffffffffffffffffffffffffffffffffffffff1661142e6116d2565b73ffffffffffffffffffffffffffffffffffffffff1614611484576040517f08c379a000000000000000000000000000000000000000000000000000000000815260040161147b90614715565b60405180910390fd5b61148e6000612a32565b565b600d60019054906101000a900460ff1681565b60106020528060005260406000206000915090505481565b6114c36124ca565b73ffffffffffffffffffffffffffffffffffffffff166114e16116d2565b73ffffffffffffffffffffffffffffffffffffffff1614611537576040517f08c379a000000000000000000000000000000000000000000000000000000000815260040161152e90614715565b60405180910390fd5b8060078190555050565b6115496124ca565b73ffffffffffffffffffffffffffffffffffffffff166115676116d2565b73ffffffffffffffffffffffffffffffffffffffff16146115bd576040517f08c379a00000000000000000000000000000000000000000000000000000000081526004016115b490614715565b60405180910390fd5b600f60009054906101000a900473ffffffffffffffffffffffffffffffffffffffff1673ffffffffffffffffffffffffffffffffffffffff166108fc479081150290604051600060405180830381858888f1935050505061161d57600080fd5b565b60008061168561167f7f182854de6a51f3818344a7eb784b9d55c1e6d2d20c9f9aea309f5daaaaddfec16116516124ca565b8760405160200161166493929190614384565b60405160208183030381529060405280519060200120612af6565b84612b10565b90508073ffffffffffffffffffffffffffffffffffffffff166116a66116d2565b73ffffffffffffffffffffffffffffffffffffffff161491505092915050565b60095481565b60085481565b60008060009054906101000a900473ffffffffffffffffffffffffffffffffffffffff16905090565b60011515600d60019054906101000a900460ff16151514611751576040517f08c379a000000000000000000000000000000000000000000000000000000000815260040161174890614555565b60405180910390fd5b60075461176984600c5461263990919063ffffffff16565b11156117aa576040517f08c379a00000000000000000000000000000000000000000000000000000000081526004016117a1906146b5565b60405180910390fd5b6117b4828261161f565b6117f3576040517f08c379a00000000000000000000000000000000000000000000000000000000081526004016117ea90614775565b60405180910390fd5b60008311801561185457508161185184601060003373ffffffffffffffffffffffffffffffffffffffff1673ffffffffffffffffffffffffffffffffffffffff1681526020019081526020016000205461263990919063ffffffff16565b11155b611893576040517f08c379a000000000000000000000000000000000000000000000000000000000815260040161188a90614755565b60405180910390fd5b6006546118ab84600c5461263990919063ffffffff16565b11156118ec576040517f08c379a00000000000000000000000000000000000000000000000000000000081526004016118e3906145f5565b60405180910390fd5b60005b838110156119325761190333600c5461264f565b6119196001600c5461263990919063ffffffff16565b600c81905550808061192a90614b63565b9150506118ef565b5061194883600a5461263990919063ffffffff16565b600a819055506119a083601060003373ffffffffffffffffffffffffffffffffffffffff1673ffffffffffffffffffffffffffffffffffffffff1681526020019081526020016000205461263990919063ffffffff16565b601060003373ffffffffffffffffffffffffffffffffffffffff1673ffffffffffffffffffffffffffffffffffffffff168152602001908152602001600020819055507f9670c8b300c38cd3db8d3f9429dd902e67f418c4dd193e2497f06d20efc795603384600c54604051611a1893929190614332565b60405180910390a1505050565b606060028054611a3490614b00565b80601f0160208091040260200160405190810160405280929190818152602001828054611a6090614b00565b8015611aad5780601f10611a8257610100808354040283529160200191611aad565b820191906000526020600020905b815481529060010190602001808311611a9057829003601f168201915b5050505050905090565b611abf6124ca565b73ffffffffffffffffffffffffffffffffffffffff168273ffffffffffffffffffffffffffffffffffffffff161415611b2d576040517f08c379a0000000000000000000000000000000000000000000000000000000008152600401611b2490614595565b60405180910390fd5b8060056000611b3a6124ca565b73ffffffffffffffffffffffffffffffffffffffff1673ffffffffffffffffffffffffffffffffffffffff16815260200190815260200160002060008473ffffffffffffffffffffffffffffffffffffffff1673ffffffffffffffffffffffffffffffffffffffff16815260200190815260200160002060006101000a81548160ff0219169083151502179055508173ffffffffffffffffffffffffffffffffffffffff16611be76124ca565b73ffffffffffffffffffffffffffffffffffffffff167f17307eab39ab6107e8899845ad3d59bd9653f200f220920489ca2b5937696c3183604051611c2c9190614369565b60405180910390a35050565b611c49611c436124ca565b8361266d565b611c88576040517f08c379a0000000000000000000000000000000000000000000000000000000008152600401611c7f906147f5565b60405180910390fd5b611c9484848484612b37565b50505050565b600b5481565b6060611cab826124d2565b611cea576040517f08c379a0000000000000000000000000000000000000000000000000000000008152600401611ce190614675565b60405180910390fd5b600e611cf583612b93565b604051602001611d06929190614270565b6040516020818303038152906040529050919050565b60011515600d60009054906101000a900460ff16151514611d72576040517f08c379a0000000000000000000000000000000000000000000000000000000008152600401611d6990614835565b60405180910390fd5b601254421015611db7576040517f08c379a0000000000000000000000000000000000000000000000000000000008152600401611dae90614815565b60405180910390fd5b600754611dcf84600c5461263990919063ffffffff16565b1115611e10576040517f08c379a0000000000000000000000000000000000000000000000000000000008152600401611e07906146b5565b60405180910390fd5b611e1a828261161f565b611e59576040517f08c379a0000000000000000000000000000000000000000000000000000000008152600401611e50906144b5565b60405180910390fd5b600083118015611eba575081611eb784601160003373ffffffffffffffffffffffffffffffffffffffff1673ffffffffffffffffffffffffffffffffffffffff1681526020019081526020016000205461263990919063ffffffff16565b11155b611ef9576040517f08c379a0000000000000000000000000000000000000000000000000000000008152600401611ef090614795565b60405180910390fd5b600654611f1184600c5461263990919063ffffffff16565b1115611f52576040517f08c379a0000000000000000000000000000000000000000000000000000000008152600401611f49906145f5565b60405180910390fd5b611f6783600854612d4090919063ffffffff16565b3414611fa8576040517f08c379a0000000000000000000000000000000000000000000000000000000008152600401611f9f906147d5565b60405180910390fd5b60005b83811015611fee57611fbf33600c5461264f565b611fd56001600c5461263990919063ffffffff16565b600c819055508080611fe690614b63565b915050611fab565b506120048360095461263990919063ffffffff16565b60098190555061205c83601160003373ffffffffffffffffffffffffffffffffffffffff1673ffffffffffffffffffffffffffffffffffffffff1681526020019081526020016000205461263990919063ffffffff16565b601160003373ffffffffffffffffffffffffffffffffffffffff1673ffffffffffffffffffffffffffffffffffffffff168152602001908152602001600020819055507f9670c8b300c38cd3db8d3f9429dd902e67f418c4dd193e2497f06d20efc795603384600c546040516120d493929190614332565b60405180910390a1505050565b6000600560008473ffffffffffffffffffffffffffffffffffffffff1673ffffffffffffffffffffffffffffffffffffffff16815260200190815260200160002060008373ffffffffffffffffffffffffffffffffffffffff1673ffffffffffffffffffffffffffffffffffffffff16815260200190815260200160002060009054906101000a900460ff16905092915050565b61217d6124ca565b73ffffffffffffffffffffffffffffffffffffffff1661219b6116d2565b73ffffffffffffffffffffffffffffffffffffffff16146121f1576040517f08c379a00000000000000000000000000000000000000000000000000000000081526004016121e890614715565b60405180910390fd5b600073ffffffffffffffffffffffffffffffffffffffff16600f60009054906101000a900473ffffffffffffffffffffffffffffffffffffffff1673ffffffffffffffffffffffffffffffffffffffff161415612283576040517f08c379a000000000000000000000000000000000000000000000000000000000815260040161227a90614495565b60405180910390fd5b80600f60006101000a81548173ffffffffffffffffffffffffffffffffffffffff021916908373ffffffffffffffffffffffffffffffffffffffff16021790555050565b6122cf6124ca565b73ffffffffffffffffffffffffffffffffffffffff166122ed6116d2565b73ffffffffffffffffffffffffffffffffffffffff1614612343576040517f08c379a000000000000000000000000000000000000000000000000000000000815260040161233a90614715565b60405180910390fd5b600073ffffffffffffffffffffffffffffffffffffffff168173ffffffffffffffffffffffffffffffffffffffff1614156123b3576040517f08c379a00000000000000000000000000000000000000000000000000000000081526004016123aa90614515565b60405180910390fd5b6123bc81612a32565b50565b6123c76124ca565b73ffffffffffffffffffffffffffffffffffffffff166123e56116d2565b73ffffffffffffffffffffffffffffffffffffffff161461243b576040517f08c379a000000000000000000000000000000000000000000000000000000000815260040161243290614715565b60405180910390fd5b81600d60006101000a81548160ff021916908315150217905550806012819055505050565b60007f01ffc9a7000000000000000000000000000000000000000000000000000000007bffffffffffffffffffffffffffffffffffffffffffffffffffffffff1916827bffffffffffffffffffffffffffffffffffffffffffffffffffffffff1916149050919050565b600033905090565b6000600380549050821080156125795750600073ffffffffffffffffffffffffffffffffffffffff1660038381548110612535577f4e487b7100000000000000000000000000000000000000000000000000000000600052603260045260246000fd5b9060005260206000200160009054906101000a900473ffffffffffffffffffffffffffffffffffffffff1673ffffffffffffffffffffffffffffffffffffffff1614155b9050919050565b816004600083815260200190815260200160002060006101000a81548173ffffffffffffffffffffffffffffffffffffffff021916908373ffffffffffffffffffffffffffffffffffffffff160217905550808273ffffffffffffffffffffffffffffffffffffffff166125f383611153565b73ffffffffffffffffffffffffffffffffffffffff167f8c5be1e5ebec7d5bd14f71427d1e84f3dd0314c0f7b2291e5b200ac8c7c3b92560405160405180910390a45050565b60008183612647919061491e565b905092915050565b612669828260405180602001604052806000815250612d56565b5050565b6000612678826124d2565b6126b7576040517f08c379a00000000000000000000000000000000000000000000000000000000081526004016126ae906145d5565b60405180910390fd5b60006126c283611153565b90508073ffffffffffffffffffffffffffffffffffffffff168473ffffffffffffffffffffffffffffffffffffffff16148061273157508373ffffffffffffffffffffffffffffffffffffffff1661271984610c46565b73ffffffffffffffffffffffffffffffffffffffff16145b80612742575061274181856120e1565b5b91505092915050565b8273ffffffffffffffffffffffffffffffffffffffff1661276b82611153565b73ffffffffffffffffffffffffffffffffffffffff16146127c1576040517f08c379a00000000000000000000000000000000000000000000000000000000081526004016127b890614735565b60405180910390fd5b600073ffffffffffffffffffffffffffffffffffffffff168273ffffffffffffffffffffffffffffffffffffffff161415612831576040517f08c379a000000000000000000000000000000000000000000000000000000000815260040161282890614575565b60405180910390fd5b61283c838383612db1565b612847600082612580565b8160038281548110612882577f4e487b7100000000000000000000000000000000000000000000000000000000600052603260045260246000fd5b9060005260206000200160006101000a81548173ffffffffffffffffffffffffffffffffffffffff021916908373ffffffffffffffffffffffffffffffffffffffff160217905550808273ffffffffffffffffffffffffffffffffffffffff168473ffffffffffffffffffffffffffffffffffffffff167fddf252ad1be2c89b69c2b068fc378daa952ba7f163c4a11628f55a4df523b3ef60405160405180910390a4505050565b600061293582611153565b905061294381600084612db1565b61294e600083612580565b60006003838154811061298a577f4e487b7100000000000000000000000000000000000000000000000000000000600052603260045260246000fd5b9060005260206000200160006101000a81548173ffffffffffffffffffffffffffffffffffffffff021916908373ffffffffffffffffffffffffffffffffffffffff16021790555081600073ffffffffffffffffffffffffffffffffffffffff168273ffffffffffffffffffffffffffffffffffffffff167fddf252ad1be2c89b69c2b068fc378daa952ba7f163c4a11628f55a4df523b3ef60405160405180910390a45050565b60008060009054906101000a900473ffffffffffffffffffffffffffffffffffffffff169050816000806101000a81548173ffffffffffffffffffffffffffffffffffffffff021916908373ffffffffffffffffffffffffffffffffffffffff1602179055508173ffffffffffffffffffffffffffffffffffffffff168173ffffffffffffffffffffffffffffffffffffffff167f8be0079c531659141344cd1fd0a4f28419497f9722a3daafe3b4186f6b6457e060405160405180910390a35050565b6000612b09612b03612db6565b83612e79565b9050919050565b6000806000612b1f8585612eac565b91509150612b2c81612f2f565b819250505092915050565b612b4284848461274b565b612b4e84848484613280565b612b8d576040517f08c379a0000000000000000000000000000000000000000000000000000000008152600401612b84906144f5565b60405180910390fd5b50505050565b60606000821415612bdb576040518060400160405280600181526020017f30000000000000000000000000000000000000000000000000000000000000008152509050612d3b565b600082905060005b60008214612c0d578080612bf690614b63565b915050600a82612c069190614974565b9150612be3565b60008167ffffffffffffffff811115612c4f577f4e487b7100000000000000000000000000000000000000000000000000000000600052604160045260246000fd5b6040519080825280601f01601f191660200182016040528015612c815781602001600182028036833780820191505090505b5090505b60008514612d3457600182612c9a91906149ff565b9150600a85612ca99190614bb6565b6030612cb5919061491e565b60f81b818381518110612cf1577f4e487b7100000000000000000000000000000000000000000000000000000000600052603260045260246000fd5b60200101907effffffffffffffffffffffffffffffffffffffffffffffffffffffffffffff1916908160001a905350600a85612d2d9190614974565b9450612c85565b8093505050505b919050565b60008183612d4e91906149a5565b905092915050565b612d608383613417565b612d6d6000848484613280565b612dac576040517f08c379a0000000000000000000000000000000000000000000000000000000008152600401612da3906144f5565b60405180910390fd5b505050565b505050565b60007f0000000000000000000000000000000000000000000000000000000000000000461415612e08577f00000000000000000000000000000000000000000000000000000000000000009050612e76565b612e737f00000000000000000000000000000000000000000000000000000000000000007f00000000000000000000000000000000000000000000000000000000000000007f000000000000000000000000000000000000000000000000000000000000000061359f565b90505b90565b60008282604051602001612e8e929190614294565b60405160208183030381529060405280519060200120905092915050565b600080604183511415612eee5760008060006020860151925060408601519150606086015160001a9050612ee2878285856135d9565b94509450505050612f28565b604083511415612f1f576000806020850151915060408501519050612f148683836136e6565b935093505050612f28565b60006002915091505b9250929050565b60006004811115612f69577f4e487b7100000000000000000000000000000000000000000000000000000000600052602160045260246000fd5b816004811115612fa2577f4e487b7100000000000000000000000000000000000000000000000000000000600052602160045260246000fd5b1415612fad5761327d565b60016004811115612fe7577f4e487b7100000000000000000000000000000000000000000000000000000000600052602160045260246000fd5b816004811115613020577f4e487b7100000000000000000000000000000000000000000000000000000000600052602160045260246000fd5b1415613061576040517f08c379a000000000000000000000000000000000000000000000000000000000815260040161305890614475565b60405180910390fd5b6002600481111561309b577f4e487b7100000000000000000000000000000000000000000000000000000000600052602160045260246000fd5b8160048111156130d4577f4e487b7100000000000000000000000000000000000000000000000000000000600052602160045260246000fd5b1415613115576040517f08c379a000000000000000000000000000000000000000000000000000000000815260040161310c906144d5565b60405180910390fd5b6003600481111561314f577f4e487b7100000000000000000000000000000000000000000000000000000000600052602160045260246000fd5b816004811115613188577f4e487b7100000000000000000000000000000000000000000000000000000000600052602160045260246000fd5b14156131c9576040517f08c379a00000000000000000000000000000000000000000000000000000000081526004016131c0906145b5565b60405180910390fd5b600480811115613202577f4e487b7100000000000000000000000000000000000000000000000000000000600052602160045260246000fd5b81600481111561323b577f4e487b7100000000000000000000000000000000000000000000000000000000600052602160045260246000fd5b141561327c576040517f08c379a000000000000000000000000000000000000000000000000000000000815260040161327390614695565b60405180910390fd5b5b50565b60006132a18473ffffffffffffffffffffffffffffffffffffffff16613734565b1561340a578373ffffffffffffffffffffffffffffffffffffffff1663150b7a026132ca6124ca565b8786866040518563ffffffff1660e01b81526004016132ec94939291906142e6565b602060405180830381600087803b15801561330657600080fd5b505af192505050801561333757506040513d601f19601f820116820180604052508101906133349190613b3a565b60015b6133ba573d8060008114613367576040519150601f19603f3d011682016040523d82523d6000602084013e61336c565b606091505b506000815114156133b2576040517f08c379a00000000000000000000000000000000000000000000000000000000081526004016133a9906144f5565b60405180910390fd5b805181602001fd5b63150b7a0260e01b7bffffffffffffffffffffffffffffffffffffffffffffffffffffffff1916817bffffffffffffffffffffffffffffffffffffffffffffffffffffffff19161491505061340f565b600190505b949350505050565b600073ffffffffffffffffffffffffffffffffffffffff168273ffffffffffffffffffffffffffffffffffffffff161415613487576040517f08c379a000000000000000000000000000000000000000000000000000000000815260040161347e906146d5565b60405180910390fd5b613490816124d2565b156134d0576040517f08c379a00000000000000000000000000000000000000000000000000000000081526004016134c790614535565b60405180910390fd5b6134dc60008383612db1565b6003829080600181540180825580915050600190039060005260206000200160009091909190916101000a81548173ffffffffffffffffffffffffffffffffffffffff021916908373ffffffffffffffffffffffffffffffffffffffff160217905550808273ffffffffffffffffffffffffffffffffffffffff16600073ffffffffffffffffffffffffffffffffffffffff167fddf252ad1be2c89b69c2b068fc378daa952ba7f163c4a11628f55a4df523b3ef60405160405180910390a45050565b600083838346306040516020016135ba9594939291906143bb565b6040516020818303038152906040528051906020012090509392505050565b6000807f7fffffffffffffffffffffffffffffff5d576e7357a4501ddfe92f46681b20a08360001c11156136145760006003915091506136dd565b601b8560ff161415801561362c5750601c8560ff1614155b1561363e5760006004915091506136dd565b600060018787878760405160008152602001604052604051613663949392919061440e565b6020604051602081039080840390855afa158015613685573d6000803e3d6000fd5b505050602060405103519050600073ffffffffffffffffffffffffffffffffffffffff168173ffffffffffffffffffffffffffffffffffffffff1614156136d4576000600192509250506136dd565b80600092509250505b94509492505050565b6000806000807f7fffffffffffffffffffffffffffffffffffffffffffffffffffffffffffffff85169150601b8560ff1c019050613726878288856135d9565b935093505050935093915050565b600080823b905060008111915050919050565b82805461375390614b00565b90600052602060002090601f01602090048101928261377557600085556137bc565b82601f1061378e57803560ff19168380011785556137bc565b828001600101855582156137bc579182015b828111156137bb5782358255916020019190600101906137a0565b5b5090506137c991906137cd565b5090565b5b808211156137e65760008160009055506001016137ce565b5090565b60006137fd6137f884614895565b614870565b90508281526020810184848401111561381557600080fd5b613820848285614abe565b509392505050565b6000813590506138378161540e565b92915050565b60008135905061384c81615425565b92915050565b6000813590506138618161543c565b92915050565b6000815190506138768161543c565b92915050565b600082601f83011261388d57600080fd5b813561389d8482602086016137ea565b91505092915050565b60008083601f8401126138b857600080fd5b8235905067ffffffffffffffff8111156138d157600080fd5b6020830191508360018202830111156138e957600080fd5b9250929050565b6000813590506138ff81615453565b92915050565b60006020828403121561391757600080fd5b600061392584828501613828565b91505092915050565b6000806040838503121561394157600080fd5b600061394f85828601613828565b925050602061396085828601613828565b9150509250929050565b60008060006060848603121561397f57600080fd5b600061398d86828701613828565b935050602061399e86828701613828565b92505060406139af868287016138f0565b9150509250925092565b600080600080608085870312156139cf57600080fd5b60006139dd87828801613828565b94505060206139ee87828801613828565b93505060406139ff878288016138f0565b925050606085013567ffffffffffffffff811115613a1c57600080fd5b613a288782880161387c565b91505092959194509250565b60008060408385031215613a4757600080fd5b6000613a5585828601613828565b9250506020613a668582860161383d565b9150509250929050565b60008060408385031215613a8357600080fd5b6000613a9185828601613828565b9250506020613aa2858286016138f0565b9150509250929050565b600060208284031215613abe57600080fd5b6000613acc8482850161383d565b91505092915050565b60008060408385031215613ae857600080fd5b6000613af68582860161383d565b9250506020613b07858286016138f0565b9150509250929050565b600060208284031215613b2357600080fd5b6000613b3184828501613852565b91505092915050565b600060208284031215613b4c57600080fd5b6000613b5a84828501613867565b91505092915050565b60008060208385031215613b7657600080fd5b600083013567ffffffffffffffff811115613b9057600080fd5b613b9c858286016138a6565b92509250509250929050565b600060208284031215613bba57600080fd5b6000613bc8848285016138f0565b91505092915050565b60008060408385031215613be457600080fd5b6000613bf2858286016138f0565b925050602083013567ffffffffffffffff811115613c0f57600080fd5b613c1b8582860161387c565b9150509250929050565b600080600060608486031215613c3a57600080fd5b6000613c48868287016138f0565b9350506020613c59868287016138f0565b925050604084013567ffffffffffffffff811115613c7657600080fd5b613c828682870161387c565b9150509250925092565b613c9581614a33565b82525050565b613ca481614a45565b82525050565b613cb381614a51565b82525050565b613cca613cc582614a51565b614bac565b82525050565b6000613cdb826148db565b613ce581856148f1565b9350613cf5818560208601614acd565b613cfe81614ca3565b840191505092915050565b6000613d14826148e6565b613d1e8185614902565b9350613d2e818560208601614acd565b613d3781614ca3565b840191505092915050565b6000613d4d826148e6565b613d578185614913565b9350613d67818560208601614acd565b80840191505092915050565b60008154613d8081614b00565b613d8a8186614913565b94506001821660008114613da55760018114613db657613de9565b60ff19831686528186019350613de9565b613dbf856148c6565b60005b83811015613de157815481890152600182019150602081019050613dc2565b838801955050505b50505092915050565b6000613dff601883614902565b9150613e0a82614cb4565b602082019050919050565b6000613e22601483614902565b9150613e2d82614cdd565b602082019050919050565b6000613e45601b83614902565b9150613e5082614d06565b602082019050919050565b6000613e68601f83614902565b9150613e7382614d2f565b602082019050919050565b6000613e8b603283614902565b9150613e9682614d58565b604082019050919050565b6000613eae602683614902565b9150613eb982614da7565b604082019050919050565b6000613ed1601c83614902565b9150613edc82614df6565b602082019050919050565b6000613ef4601583614902565b9150613eff82614e1f565b602082019050919050565b6000613f17600283614913565b9150613f2282614e48565b600282019050919050565b6000613f3a602483614902565b9150613f4582614e71565b604082019050919050565b6000613f5d601983614902565b9150613f6882614ec0565b602082019050919050565b6000613f80602283614902565b9150613f8b82614ee9565b604082019050919050565b6000613fa3602c83614902565b9150613fae82614f38565b604082019050919050565b6000613fc6601183614902565b9150613fd182614f87565b602082019050919050565b6000613fe9603883614902565b9150613ff482614fb0565b604082019050919050565b600061400c602a83614902565b915061401782614fff565b604082019050919050565b600061402f602983614902565b915061403a8261504e565b604082019050919050565b6000614052601083614902565b915061405d8261509d565b602082019050919050565b6000614075602283614902565b9150614080826150c6565b604082019050919050565b6000614098601783614902565b91506140a382615115565b602082019050919050565b60006140bb602083614902565b91506140c68261513e565b602082019050919050565b60006140de602c83614902565b91506140e982615167565b604082019050919050565b6000614101602083614902565b915061410c826151b6565b602082019050919050565b6000614124602983614902565b915061412f826151df565b604082019050919050565b6000614147602783614902565b91506141528261522e565b604082019050919050565b600061416a601783614902565b91506141758261527d565b602082019050919050565b600061418d601d83614902565b9150614198826152a6565b602082019050919050565b60006141b0602183614902565b91506141bb826152cf565b604082019050919050565b60006141d3602483614902565b91506141de8261531e565b604082019050919050565b60006141f6603183614902565b91506142018261536d565b604082019050919050565b6000614219601583614902565b9150614224826153bc565b602082019050919050565b600061423c601483614902565b9150614247826153e5565b602082019050919050565b61425b81614aa7565b82525050565b61426a81614ab1565b82525050565b600061427c8285613d73565b91506142888284613d42565b91508190509392505050565b600061429f82613f0a565b91506142ab8285613cb9565b6020820191506142bb8284613cb9565b6020820191508190509392505050565b60006020820190506142e06000830184613c8c565b92915050565b60006080820190506142fb6000830187613c8c565b6143086020830186613c8c565b6143156040830185614252565b81810360608301526143278184613cd0565b905095945050505050565b60006060820190506143476000830186613c8c565b6143546020830185614252565b6143616040830184614252565b949350505050565b600060208201905061437e6000830184613c9b565b92915050565b60006060820190506143996000830186613caa565b6143a66020830185613c8c565b6143b36040830184614252565b949350505050565b600060a0820190506143d06000830188613caa565b6143dd6020830187613caa565b6143ea6040830186613caa565b6143f76060830185614252565b6144046080830184613c8c565b9695505050505050565b60006080820190506144236000830187613caa565b6144306020830186614261565b61443d6040830185613caa565b61444a6060830184613caa565b95945050505050565b6000602082019050818103600083015261446d8184613d09565b905092915050565b6000602082019050818103600083015261448e81613df2565b9050919050565b600060208201905081810360008301526144ae81613e15565b9050919050565b600060208201905081810360008301526144ce81613e38565b9050919050565b600060208201905081810360008301526144ee81613e5b565b9050919050565b6000602082019050818103600083015261450e81613e7e565b9050919050565b6000602082019050818103600083015261452e81613ea1565b9050919050565b6000602082019050818103600083015261454e81613ec4565b9050919050565b6000602082019050818103600083015261456e81613ee7565b9050919050565b6000602082019050818103600083015261458e81613f2d565b9050919050565b600060208201905081810360008301526145ae81613f50565b9050919050565b600060208201905081810360008301526145ce81613f73565b9050919050565b600060208201905081810360008301526145ee81613f96565b9050919050565b6000602082019050818103600083015261460e81613fb9565b9050919050565b6000602082019050818103600083015261462e81613fdc565b9050919050565b6000602082019050818103600083015261464e81613fff565b9050919050565b6000602082019050818103600083015261466e81614022565b9050919050565b6000602082019050818103600083015261468e81614045565b9050919050565b600060208201905081810360008301526146ae81614068565b9050919050565b600060208201905081810360008301526146ce8161408b565b9050919050565b600060208201905081810360008301526146ee816140ae565b9050919050565b6000602082019050818103600083015261470e816140d1565b9050919050565b6000602082019050818103600083015261472e816140f4565b9050919050565b6000602082019050818103600083015261474e81614117565b9050919050565b6000602082019050818103600083015261476e8161413a565b9050919050565b6000602082019050818103600083015261478e8161415d565b9050919050565b600060208201905081810360008301526147ae81614180565b9050919050565b600060208201905081810360008301526147ce816141a3565b9050919050565b600060208201905081810360008301526147ee816141c6565b9050919050565b6000602082019050818103600083015261480e816141e9565b9050919050565b6000602082019050818103600083015261482e8161420c565b9050919050565b6000602082019050818103600083015261484e8161422f565b9050919050565b600060208201905061486a6000830184614252565b92915050565b600061487a61488b565b90506148868282614b32565b919050565b6000604051905090565b600067ffffffffffffffff8211156148b0576148af614c74565b5b6148b982614ca3565b9050602081019050919050565b60008190508160005260206000209050919050565b600081519050919050565b600081519050919050565b600082825260208201905092915050565b600082825260208201905092915050565b600081905092915050565b600061492982614aa7565b915061493483614aa7565b9250827fffffffffffffffffffffffffffffffffffffffffffffffffffffffffffffffff0382111561496957614968614be7565b5b828201905092915050565b600061497f82614aa7565b915061498a83614aa7565b92508261499a57614999614c16565b5b828204905092915050565b60006149b082614aa7565b91506149bb83614aa7565b9250817fffffffffffffffffffffffffffffffffffffffffffffffffffffffffffffffff04831182151516156149f4576149f3614be7565b5b828202905092915050565b6000614a0a82614aa7565b9150614a1583614aa7565b925082821015614a2857614a27614be7565b5b828203905092915050565b6000614a3e82614a87565b9050919050565b60008115159050919050565b6000819050919050565b60007fffffffff0000000000000000000000000000000000000000000000000000000082169050919050565b600073ffffffffffffffffffffffffffffffffffffffff82169050919050565b6000819050919050565b600060ff82169050919050565b82818337600083830152505050565b60005b83811015614aeb578082015181840152602081019050614ad0565b83811115614afa576000848401525b50505050565b60006002820490506001821680614b1857607f821691505b60208210811415614b2c57614b2b614c45565b5b50919050565b614b3b82614ca3565b810181811067ffffffffffffffff82111715614b5a57614b59614c74565b5b80604052505050565b6000614b6e82614aa7565b91507fffffffffffffffffffffffffffffffffffffffffffffffffffffffffffffffff821415614ba157614ba0614be7565b5b600182019050919050565b6000819050919050565b6000614bc182614aa7565b9150614bcc83614aa7565b925082614bdc57614bdb614c16565b5b828206905092915050565b7f4e487b7100000000000000000000000000000000000000000000000000000000600052601160045260246000fd5b7f4e487b7100000000000000000000000000000000000000000000000000000000600052601260045260246000fd5b7f4e487b7100000000000000000000000000000000000000000000000000000000600052602260045260246000fd5b7f4e487b7100000000000000000000000000000000000000000000000000000000600052604160045260246000fd5b6000601f19601f8301169050919050565b7f45434453413a20696e76616c6964207369676e61747572650000000000000000600082015250565b7f53455454494e475f5a45524f5f41444452455353000000000000000000000000600082015250565b7f4e6f7420656c696769626c6520666f722077686974656c6973742e0000000000600082015250565b7f45434453413a20696e76616c6964207369676e6174757265206c656e67746800600082015250565b7f4552433732313a207472616e7366657220746f206e6f6e20455243373231526560008201527f63656976657220696d706c656d656e7465720000000000000000000000000000602082015250565b7f4f776e61626c653a206e6577206f776e657220697320746865207a65726f206160008201527f6464726573730000000000000000000000000000000000000000000000000000602082015250565b7f4552433732313a20746f6b656e20616c7265616479206d696e74656400000000600082015250565b7f436c61696d206861736e277420737461727465642e0000000000000000000000600082015250565b7f1901000000000000000000000000000000000000000000000000000000000000600082015250565b7f4552433732313a207472616e7366657220746f20746865207a65726f2061646460008201527f7265737300000000000000000000000000000000000000000000000000000000602082015250565b7f4552433732313a20617070726f766520746f2063616c6c657200000000000000600082015250565b7f45434453413a20696e76616c6964207369676e6174757265202773272076616c60008201527f7565000000000000000000000000000000000000000000000000000000000000602082015250565b7f4552433732313a206f70657261746f7220717565727920666f72206e6f6e657860008201527f697374656e7420746f6b656e0000000000000000000000000000000000000000602082015250565b7f45786365656473204d41585f4c494f4e2e000000000000000000000000000000600082015250565b7f4552433732313a20617070726f76652063616c6c6572206973206e6f74206f7760008201527f6e6572206e6f7220617070726f76656420666f7220616c6c0000000000000000602082015250565b7f4552433732313a2062616c616e636520717565727920666f7220746865207a6560008201527f726f206164647265737300000000000000000000000000000000000000000000602082015250565b7f4552433732313a206f776e657220717565727920666f72206e6f6e657869737460008201527f656e7420746f6b656e0000000000000000000000000000000000000000000000602082015250565b7f544f4b454e5f4e4f545f45584953545300000000000000000000000000000000600082015250565b7f45434453413a20696e76616c6964207369676e6174757265202776272076616c60008201527f7565000000000000000000000000000000000000000000000000000000000000602082015250565b7f5468697320737461676520697320736f6c64206f757421000000000000000000600082015250565b7f4552433732313a206d696e7420746f20746865207a65726f2061646472657373600082015250565b7f4552433732313a20617070726f76656420717565727920666f72206e6f6e657860008201527f697374656e7420746f6b656e0000000000000000000000000000000000000000602082015250565b7f4f776e61626c653a2063616c6c6572206973206e6f7420746865206f776e6572600082015250565b7f4552433732313a207472616e73666572206f6620746f6b656e2074686174206960008201527f73206e6f74206f776e0000000000000000000000000000000000000000000000602082015250565b7f45786365656420746865207175616e7469747920746861742063616e2062652060008201527f636c61696d656400000000000000000000000000000000000000000000000000602082015250565b7f4e6f7420656c696769626c6520666f7220636c61696d2e000000000000000000600082015250565b7f45786365656473206d61782077686974656c697374206e756d6265722e000000600082015250565b7f4552433732313a20617070726f76616c20746f2063757272656e74206f776e6560008201527f7200000000000000000000000000000000000000000000000000000000000000602082015250565b7f45746865722076616c75652073656e742069732062656c6f772074686520707260008201527f6963652e00000000000000000000000000000000000000000000000000000000602082015250565b7f4552433732313a207472616e736665722063616c6c6572206973206e6f74206f60008201527f776e6572206e6f7220617070726f766564000000000000000000000000000000602082015250565b7f4e4f545f494e5f57484954454c4953545f54494d450000000000000000000000600082015250565b7f57484954454c4953545f4e4f545f414354495645000000000000000000000000600082015250565b61541781614a33565b811461542257600080fd5b50565b61542e81614a45565b811461543957600080fd5b50565b61544581614a5b565b811461545057600080fd5b50565b61545c81614aa7565b811461546757600080fd5b5056fea2646970667358221220e353e6479ebfbd172908150806f3efea43042cf934b4377cae3dacb2a70fddbf64736f6c63430008040033",
  "devdoc": {
    "kind": "dev",
    "methods": {
      "approve(address,uint256)": {
        "details": "See {IERC721-approve}."
      },
      "balanceOf(address)": {
        "details": "See {IERC721-balanceOf}."
      },
      "getApproved(uint256)": {
        "details": "See {IERC721-getApproved}."
      },
      "isApprovedForAll(address,address)": {
        "details": "See {IERC721-isApprovedForAll}."
      },
      "name()": {
        "details": "See {IERC721Metadata-name}."
      },
      "owner()": {
        "details": "Returns the address of the current owner."
      },
      "ownerOf(uint256)": {
        "details": "See {IERC721-ownerOf}."
      },
      "renounceOwnership()": {
        "details": "Leaves the contract without owner. It will not be possible to call `onlyOwner` functions anymore. Can only be called by the current owner. NOTE: Renouncing ownership will leave the contract without an owner, thereby removing any functionality that is only available to the owner."
      },
      "safeTransferFrom(address,address,uint256)": {
        "details": "See {IERC721-safeTransferFrom}."
      },
      "safeTransferFrom(address,address,uint256,bytes)": {
        "details": "See {IERC721-safeTransferFrom}."
      },
      "setApprovalForAll(address,bool)": {
        "details": "See {IERC721-setApprovalForAll}."
      },
      "supportsInterface(bytes4)": {
        "details": "See {IERC165-supportsInterface}."
      },
      "symbol()": {
        "details": "See {IERC721Metadata-symbol}."
      },
      "tokenURI(uint256)": {
        "details": "Returns the Uniform Resource Identifier (URI) for `tokenId` token."
      },
      "transferFrom(address,address,uint256)": {
        "details": "See {IERC721-transferFrom}."
      },
      "transferOwnership(address)": {
        "details": "Transfers ownership of the contract to a new account (`newOwner`). Can only be called by the current owner."
      }
    },
    "version": 1
  },
  "userdoc": {
    "kind": "user",
    "methods": {},
    "version": 1
  },
  "storageLayout": {
    "storage": [
      {
        "astId": 7,
        "contract": "contracts/LionDAO.sol:LionDAO",
        "label": "_owner",
        "offset": 0,
        "slot": "0",
        "type": "t_address"
      },
      {
        "astId": 2845,
        "contract": "contracts/LionDAO.sol:LionDAO",
        "label": "_name",
        "offset": 0,
        "slot": "1",
        "type": "t_string_storage"
      },
      {
        "astId": 2847,
        "contract": "contracts/LionDAO.sol:LionDAO",
        "label": "_symbol",
        "offset": 0,
        "slot": "2",
        "type": "t_string_storage"
      },
      {
        "astId": 2850,
        "contract": "contracts/LionDAO.sol:LionDAO",
        "label": "_owners",
        "offset": 0,
        "slot": "3",
        "type": "t_array(t_address)dyn_storage"
      },
      {
        "astId": 2854,
        "contract": "contracts/LionDAO.sol:LionDAO",
        "label": "_tokenApprovals",
        "offset": 0,
        "slot": "4",
        "type": "t_mapping(t_uint256,t_address)"
      },
      {
        "astId": 2860,
        "contract": "contracts/LionDAO.sol:LionDAO",
        "label": "_operatorApprovals",
        "offset": 0,
        "slot": "5",
        "type": "t_mapping(t_address,t_mapping(t_address,t_bool))"
      },
      {
        "astId": 3619,
        "contract": "contracts/LionDAO.sol:LionDAO",
        "label": "MAX_LION",
        "offset": 0,
        "slot": "6",
        "type": "t_uint256"
      },
      {
        "astId": 3622,
        "contract": "contracts/LionDAO.sol:LionDAO",
        "label": "STAGE_LIMIT",
        "offset": 0,
        "slot": "7",
        "type": "t_uint256"
      },
      {
        "astId": 3625,
        "contract": "contracts/LionDAO.sol:LionDAO",
        "label": "PRICE",
        "offset": 0,
        "slot": "8",
        "type": "t_uint256"
      },
      {
        "astId": 3628,
        "contract": "contracts/LionDAO.sol:LionDAO",
        "label": "numWhitelistSale",
        "offset": 0,
        "slot": "9",
        "type": "t_uint256"
      },
      {
        "astId": 3631,
        "contract": "contracts/LionDAO.sol:LionDAO",
        "label": "numClaim",
        "offset": 0,
        "slot": "10",
        "type": "t_uint256"
      },
      {
        "astId": 3634,
        "contract": "contracts/LionDAO.sol:LionDAO",
        "label": "numGiveaway",
        "offset": 0,
        "slot": "11",
        "type": "t_uint256"
      },
      {
        "astId": 3637,
        "contract": "contracts/LionDAO.sol:LionDAO",
        "label": "totalSupply",
        "offset": 0,
        "slot": "12",
        "type": "t_uint256"
      },
      {
        "astId": 3640,
        "contract": "contracts/LionDAO.sol:LionDAO",
        "label": "hasWhitelistSaleStarted",
        "offset": 0,
        "slot": "13",
        "type": "t_bool"
      },
      {
        "astId": 3643,
        "contract": "contracts/LionDAO.sol:LionDAO",
        "label": "hasClaimStarted",
        "offset": 1,
        "slot": "13",
        "type": "t_bool"
      },
      {
        "astId": 3646,
        "contract": "contracts/LionDAO.sol:LionDAO",
        "label": "_baseTokenURI",
        "offset": 0,
        "slot": "14",
        "type": "t_string_storage"
      },
      {
        "astId": 3649,
        "contract": "contracts/LionDAO.sol:LionDAO",
        "label": "treasury",
        "offset": 0,
        "slot": "15",
        "type": "t_address"
      },
      {
        "astId": 3653,
        "contract": "contracts/LionDAO.sol:LionDAO",
        "label": "hasClaimed",
        "offset": 0,
        "slot": "16",
        "type": "t_mapping(t_address,t_uint256)"
      },
      {
        "astId": 3657,
        "contract": "contracts/LionDAO.sol:LionDAO",
        "label": "hasWhitelistSale",
        "offset": 0,
        "slot": "17",
        "type": "t_mapping(t_address,t_uint256)"
      },
      {
        "astId": 3660,
        "contract": "contracts/LionDAO.sol:LionDAO",
        "label": "whitelistSaleTimestamp",
        "offset": 0,
        "slot": "18",
        "type": "t_uint256"
      }
    ],
    "types": {
      "t_address": {
        "encoding": "inplace",
        "label": "address",
        "numberOfBytes": "20"
      },
      "t_array(t_address)dyn_storage": {
        "base": "t_address",
        "encoding": "dynamic_array",
        "label": "address[]",
        "numberOfBytes": "32"
      },
      "t_bool": {
        "encoding": "inplace",
        "label": "bool",
        "numberOfBytes": "1"
      },
      "t_mapping(t_address,t_bool)": {
        "encoding": "mapping",
        "key": "t_address",
        "label": "mapping(address => bool)",
        "numberOfBytes": "32",
        "value": "t_bool"
      },
      "t_mapping(t_address,t_mapping(t_address,t_bool))": {
        "encoding": "mapping",
        "key": "t_address",
        "label": "mapping(address => mapping(address => bool))",
        "numberOfBytes": "32",
        "value": "t_mapping(t_address,t_bool)"
      },
      "t_mapping(t_address,t_uint256)": {
        "encoding": "mapping",
        "key": "t_address",
        "label": "mapping(address => uint256)",
        "numberOfBytes": "32",
        "value": "t_uint256"
      },
      "t_mapping(t_uint256,t_address)": {
        "encoding": "mapping",
        "key": "t_uint256",
        "label": "mapping(uint256 => address)",
        "numberOfBytes": "32",
        "value": "t_address"
      },
      "t_string_storage": {
        "encoding": "bytes",
        "label": "string",
        "numberOfBytes": "32"
      },
      "t_uint256": {
        "encoding": "inplace",
        "label": "uint256",
        "numberOfBytes": "32"
      }
    }
  }
}