{
  "address": "0x0dA7601BD5a828a65d06d2cd9A4C2A5a6d43caE8",
  "abi": [
    {
      "inputs": [],
      "stateMutability": "nonpayable",
      "type": "constructor"
    },
    {
      "anonymous": false,
      "inputs": [
        {
          "indexed": true,
          "internalType": "address",
          "name": "owner",
          "type": "address"
        },
        {
          "indexed": true,
          "internalType": "address",
          "name": "approved",
          "type": "address"
        },
        {
          "indexed": true,
          "internalType": "uint256",
          "name": "tokenId",
          "type": "uint256"
        }
      ],
      "name": "Approval",
      "type": "event"
    },
    {
      "anonymous": false,
      "inputs": [
        {
          "indexed": true,
          "internalType": "address",
          "name": "owner",
          "type": "address"
        },
        {
          "indexed": true,
          "internalType": "address",
          "name": "operator",
          "type": "address"
        },
        {
          "indexed": false,
          "internalType": "bool",
          "name": "approved",
          "type": "bool"
        }
      ],
      "name": "ApprovalForAll",
      "type": "event"
    },
    {
      "anonymous": false,
      "inputs": [
        {
          "indexed": true,
          "internalType": "address",
          "name": "previousOwner",
          "type": "address"
        },
        {
          "indexed": true,
          "internalType": "address",
          "name": "newOwner",
          "type": "address"
        }
      ],
      "name": "OwnershipTransferred",
      "type": "event"
    },
    {
      "anonymous": false,
      "inputs": [
        {
          "indexed": true,
          "internalType": "address",
          "name": "from",
          "type": "address"
        },
        {
          "indexed": true,
          "internalType": "address",
          "name": "to",
          "type": "address"
        },
        {
          "indexed": true,
          "internalType": "uint256",
          "name": "tokenId",
          "type": "uint256"
        }
      ],
      "name": "Transfer",
      "type": "event"
    },
    {
      "anonymous": false,
      "inputs": [
        {
          "indexed": false,
          "internalType": "address",
          "name": "owner",
          "type": "address"
        },
        {
          "indexed": false,
          "internalType": "uint256",
          "name": "quantity",
          "type": "uint256"
        },
        {
          "indexed": false,
          "internalType": "uint256",
          "name": "totalSupply",
          "type": "uint256"
        }
      ],
      "name": "mintEvent",
      "type": "event"
    },
    {
      "inputs": [],
      "name": "MAX_LION",
      "outputs": [
        {
          "internalType": "uint256",
          "name": "",
          "type": "uint256"
        }
      ],
      "stateMutability": "view",
      "type": "function"
    },
    {
      "inputs": [],
      "name": "PRICE",
      "outputs": [
        {
          "internalType": "uint256",
          "name": "",
          "type": "uint256"
        }
      ],
      "stateMutability": "view",
      "type": "function"
    },
    {
      "inputs": [],
      "name": "STAGE_LIMIT",
      "outputs": [
        {
          "internalType": "uint256",
          "name": "",
          "type": "uint256"
        }
      ],
      "stateMutability": "view",
      "type": "function"
    },
    {
      "inputs": [
        {
          "internalType": "address",
          "name": "to",
          "type": "address"
        },
        {
          "internalType": "uint256",
          "name": "tokenId",
          "type": "uint256"
        }
      ],
      "name": "approve",
      "outputs": [],
      "stateMutability": "nonpayable",
      "type": "function"
    },
    {
      "inputs": [
        {
          "internalType": "address",
          "name": "owner",
          "type": "address"
        }
      ],
      "name": "balanceOf",
      "outputs": [
        {
          "internalType": "uint256",
          "name": "",
          "type": "uint256"
        }
      ],
      "stateMutability": "view",
      "type": "function"
    },
    {
      "inputs": [
        {
          "internalType": "uint256",
          "name": "tokenId",
          "type": "uint256"
        }
      ],
      "name": "burn",
      "outputs": [],
      "stateMutability": "nonpayable",
      "type": "function"
    },
    {
      "inputs": [
        {
          "internalType": "uint256",
          "name": "tokenId",
          "type": "uint256"
        }
      ],
      "name": "getApproved",
      "outputs": [
        {
          "internalType": "address",
          "name": "",
          "type": "address"
        }
      ],
      "stateMutability": "view",
      "type": "function"
    },
    {
      "inputs": [
        {
          "internalType": "address",
          "name": "_to",
          "type": "address"
        },
        {
          "internalType": "uint256",
          "name": "quantity",
          "type": "uint256"
        }
      ],
      "name": "giveawayLion",
      "outputs": [],
      "stateMutability": "nonpayable",
      "type": "function"
    },
    {
      "inputs": [
        {
          "internalType": "address",
          "name": "",
          "type": "address"
        }
      ],
      "name": "hasMinted",
      "outputs": [
        {
          "internalType": "uint256",
          "name": "",
          "type": "uint256"
        }
      ],
      "stateMutability": "view",
      "type": "function"
    },
    {
      "inputs": [],
      "name": "hasWhitelistSaleStarted",
      "outputs": [
        {
          "internalType": "bool",
          "name": "",
          "type": "bool"
        }
      ],
      "stateMutability": "view",
      "type": "function"
    },
    {
      "inputs": [
        {
          "internalType": "address",
          "name": "owner",
          "type": "address"
        },
        {
          "internalType": "address",
          "name": "operator",
          "type": "address"
        }
      ],
      "name": "isApprovedForAll",
      "outputs": [
        {
          "internalType": "bool",
          "name": "",
          "type": "bool"
        }
      ],
      "stateMutability": "view",
      "type": "function"
    },
    {
      "inputs": [
        {
          "internalType": "uint256",
          "name": "quantity",
          "type": "uint256"
        },
        {
          "internalType": "uint256",
          "name": "maxQuantity",
          "type": "uint256"
        },
        {
          "internalType": "bytes",
          "name": "SIGNATURE",
          "type": "bytes"
        }
      ],
      "name": "mintWhitelistLion",
      "outputs": [],
      "stateMutability": "payable",
      "type": "function"
    },
    {
      "inputs": [],
      "name": "name",
      "outputs": [
        {
          "internalType": "string",
          "name": "",
          "type": "string"
        }
      ],
      "stateMutability": "view",
      "type": "function"
    },
    {
      "inputs": [],
      "name": "numGiveaway",
      "outputs": [
        {
          "internalType": "uint256",
          "name": "",
          "type": "uint256"
        }
      ],
      "stateMutability": "view",
      "type": "function"
    },
    {
      "inputs": [],
      "name": "numWhitelistSale",
      "outputs": [
        {
          "internalType": "uint256",
          "name": "",
          "type": "uint256"
        }
      ],
      "stateMutability": "view",
      "type": "function"
    },
    {
      "inputs": [],
      "name": "owner",
      "outputs": [
        {
          "internalType": "address",
          "name": "",
          "type": "address"
        }
      ],
      "stateMutability": "view",
      "type": "function"
    },
    {
      "inputs": [
        {
          "internalType": "uint256",
          "name": "tokenId",
          "type": "uint256"
        }
      ],
      "name": "ownerOf",
      "outputs": [
        {
          "internalType": "address",
          "name": "",
          "type": "address"
        }
      ],
      "stateMutability": "view",
      "type": "function"
    },
    {
      "inputs": [],
      "name": "renounceOwnership",
      "outputs": [],
      "stateMutability": "nonpayable",
      "type": "function"
    },
    {
      "inputs": [
        {
          "internalType": "address",
          "name": "from",
          "type": "address"
        },
        {
          "internalType": "address",
          "name": "to",
          "type": "address"
        },
        {
          "internalType": "uint256",
          "name": "tokenId",
          "type": "uint256"
        }
      ],
      "name": "safeTransferFrom",
      "outputs": [],
      "stateMutability": "nonpayable",
      "type": "function"
    },
    {
      "inputs": [
        {
          "internalType": "address",
          "name": "from",
          "type": "address"
        },
        {
          "internalType": "address",
          "name": "to",
          "type": "address"
        },
        {
          "internalType": "uint256",
          "name": "tokenId",
          "type": "uint256"
        },
        {
          "internalType": "bytes",
          "name": "_data",
          "type": "bytes"
        }
      ],
      "name": "safeTransferFrom",
      "outputs": [],
      "stateMutability": "nonpayable",
      "type": "function"
    },
    {
      "inputs": [
        {
          "internalType": "address",
          "name": "operator",
          "type": "address"
        },
        {
          "internalType": "bool",
          "name": "approved",
          "type": "bool"
        }
      ],
      "name": "setApprovalForAll",
      "outputs": [],
      "stateMutability": "nonpayable",
      "type": "function"
    },
    {
      "inputs": [
        {
          "internalType": "uint256",
          "name": "_MAX_num",
          "type": "uint256"
        }
      ],
      "name": "setMAX_LION",
      "outputs": [],
      "stateMutability": "nonpayable",
      "type": "function"
    },
    {
      "inputs": [
        {
          "internalType": "uint256",
          "name": "_STAGE_LIMIT",
          "type": "uint256"
        }
      ],
      "name": "setSTAGE_LIMIT",
      "outputs": [],
      "stateMutability": "nonpayable",
      "type": "function"
    },
    {
      "inputs": [
        {
          "internalType": "address",
          "name": "_treasury",
          "type": "address"
        }
      ],
      "name": "setTreasury",
      "outputs": [],
      "stateMutability": "nonpayable",
      "type": "function"
    },
    {
      "inputs": [
        {
          "internalType": "string",
          "name": "_tokenURI",
          "type": "string"
        }
      ],
      "name": "setURI",
      "outputs": [],
      "stateMutability": "nonpayable",
      "type": "function"
    },
    {
      "inputs": [
        {
          "internalType": "bool",
          "name": "_hasWhitelistSaleStarted",
          "type": "bool"
        },
        {
          "internalType": "uint256",
          "name": "_whitelistSaleTimestamp",
          "type": "uint256"
        }
      ],
      "name": "setWhitelistSale",
      "outputs": [],
      "stateMutability": "nonpayable",
      "type": "function"
    },
    {
      "inputs": [
        {
          "internalType": "uint256",
          "name": "_price",
          "type": "uint256"
        }
      ],
      "name": "set_PRICE",
      "outputs": [],
      "stateMutability": "nonpayable",
      "type": "function"
    },
    {
      "inputs": [
        {
          "internalType": "bytes4",
          "name": "interfaceId",
          "type": "bytes4"
        }
      ],
      "name": "supportsInterface",
      "outputs": [
        {
          "internalType": "bool",
          "name": "",
          "type": "bool"
        }
      ],
      "stateMutability": "view",
      "type": "function"
    },
    {
      "inputs": [],
      "name": "symbol",
      "outputs": [
        {
          "internalType": "string",
          "name": "",
          "type": "string"
        }
      ],
      "stateMutability": "view",
      "type": "function"
    },
    {
      "inputs": [
        {
          "internalType": "uint256",
          "name": "tokenId",
          "type": "uint256"
        }
      ],
      "name": "tokenURI",
      "outputs": [
        {
          "internalType": "string",
          "name": "",
          "type": "string"
        }
      ],
      "stateMutability": "view",
      "type": "function"
    },
    {
      "inputs": [],
      "name": "totalSupply",
      "outputs": [
        {
          "internalType": "uint256",
          "name": "",
          "type": "uint256"
        }
      ],
      "stateMutability": "view",
      "type": "function"
    },
    {
      "inputs": [
        {
          "internalType": "address",
          "name": "from",
          "type": "address"
        },
        {
          "internalType": "address",
          "name": "to",
          "type": "address"
        },
        {
          "internalType": "uint256",
          "name": "tokenId",
          "type": "uint256"
        }
      ],
      "name": "transferFrom",
      "outputs": [],
      "stateMutability": "nonpayable",
      "type": "function"
    },
    {
      "inputs": [
        {
          "internalType": "address",
          "name": "newOwner",
          "type": "address"
        }
      ],
      "name": "transferOwnership",
      "outputs": [],
      "stateMutability": "nonpayable",
      "type": "function"
    },
    {
      "inputs": [],
      "name": "treasury",
      "outputs": [
        {
          "internalType": "address",
          "name": "",
          "type": "address"
        }
      ],
      "stateMutability": "view",
      "type": "function"
    },
    {
      "inputs": [
        {
          "internalType": "uint256",
          "name": "maxQuantity",
          "type": "uint256"
        },
        {
          "internalType": "bytes",
          "name": "SIGNATURE",
          "type": "bytes"
        }
      ],
      "name": "verify",
      "outputs": [
        {
          "internalType": "bool",
          "name": "",
          "type": "bool"
        }
      ],
      "stateMutability": "view",
      "type": "function"
    },
    {
      "inputs": [],
      "name": "whitelistSaleTimestamp",
      "outputs": [
        {
          "internalType": "uint256",
          "name": "",
          "type": "uint256"
        }
      ],
      "stateMutability": "view",
      "type": "function"
    },
    {
      "inputs": [],
      "name": "withdrawAll",
      "outputs": [],
      "stateMutability": "payable",
      "type": "function"
    }
  ],
  "transactionHash": "0x4c0467816ce84c86a4240edfa7f3018da2117083eb841898fc69c38e37dcb0ef",
  "args": [],
  "numDeployments": 2,
  "solcInputHash": "6ecc97b059698b8de6910911ffa711e1",
  "bytecode": "0x6101206040526127106006556101b2600755670b1a2bc2ec50000060085560006009556000600a556000600b556001600c60006101000a81548160ff0219169083151502179055506040518060400160405280601981526020017f687474703a2f2f6170692e6c696f6e2f4d657461646174612f00000000000000815250600d90805190602001906200009492919062000916565b50735279246e3626cebe71a4c181382a50a71d2a4156600e60006101000a81548173ffffffffffffffffffffffffffffffffffffffff021916908373ffffffffffffffffffffffffffffffffffffffff160217905550636226f0e0601055348015620000ff57600080fd5b506040518060400160405280600781526020017f4c494f4e44414f000000000000000000000000000000000000000000000000008152506040518060400160405280600481526020017f4c494f4e000000000000000000000000000000000000000000000000000000008152506040518060400160405280600781526020017f4c494f4e44414f000000000000000000000000000000000000000000000000008152506040518060400160405280600581526020017f312e302e30000000000000000000000000000000000000000000000000000000815250620001f8620001ec6200031960201b60201c565b6200032160201b60201c565b60008280519060200120905060008280519060200120905060007f8b73c3c69bb8fe3d512ecc4cf759cc79239f7b179b0ffacaa9a75d522b39400f90508260c081815250508160e081815250504660a0818152505062000260818484620003e560201b60201c565b60808181525050806101008181525050505050505081600190805190602001906200028d92919062000916565b508060029080519060200190620002a692919062000916565b50505060005b60658110156200031257620002d9620002ca6200042160201b60201c565b600b546200044a60201b60201c565b620002f66001600b546200047060201b62001f501790919060201c565b600b819055508080620003099062000d73565b915050620002ac565b5062000eeb565b600033905090565b60008060009054906101000a900473ffffffffffffffffffffffffffffffffffffffff169050816000806101000a81548173ffffffffffffffffffffffffffffffffffffffff021916908373ffffffffffffffffffffffffffffffffffffffff1602179055508173ffffffffffffffffffffffffffffffffffffffff168173ffffffffffffffffffffffffffffffffffffffff167f8be0079c531659141344cd1fd0a4f28419497f9722a3daafe3b4186f6b6457e060405160405180910390a35050565b600083838346306040516020016200040295949392919062000b46565b6040516020818303038152906040528051906020012090509392505050565b60008060009054906101000a900473ffffffffffffffffffffffffffffffffffffffff16905090565b6200046c8282604051806020016040528060008152506200048860201b60201c565b5050565b6000818362000480919062000c36565b905092915050565b6200049a8383620004f660201b60201c565b620004af60008484846200069460201b60201c565b620004f1576040517f08c379a0000000000000000000000000000000000000000000000000000000008152600401620004e89062000ba3565b60405180910390fd5b505050565b600073ffffffffffffffffffffffffffffffffffffffff168273ffffffffffffffffffffffffffffffffffffffff16141562000569576040517f08c379a0000000000000000000000000000000000000000000000000000000008152600401620005609062000be7565b60405180910390fd5b6200057a816200084e60201b60201c565b15620005bd576040517f08c379a0000000000000000000000000000000000000000000000000000000008152600401620005b49062000bc5565b60405180910390fd5b620005d160008383620008fe60201b60201c565b6003829080600181540180825580915050600190039060005260206000200160009091909190916101000a81548173ffffffffffffffffffffffffffffffffffffffff021916908373ffffffffffffffffffffffffffffffffffffffff160217905550808273ffffffffffffffffffffffffffffffffffffffff16600073ffffffffffffffffffffffffffffffffffffffff167fddf252ad1be2c89b69c2b068fc378daa952ba7f163c4a11628f55a4df523b3ef60405160405180910390a45050565b6000620006c28473ffffffffffffffffffffffffffffffffffffffff166200090360201b62001f661760201c565b1562000841578373ffffffffffffffffffffffffffffffffffffffff1663150b7a02620006f46200031960201b60201c565b8786866040518563ffffffff1660e01b815260040162000718949392919062000af2565b602060405180830381600087803b1580156200073357600080fd5b505af19250505080156200076757506040513d601f19601f82011682018060405250810190620007649190620009dd565b60015b620007f0573d80600081146200079a576040519150601f19603f3d011682016040523d82523d6000602084013e6200079f565b606091505b50600081511415620007e8576040517f08c379a0000000000000000000000000000000000000000000000000000000008152600401620007df9062000ba3565b60405180910390fd5b805181602001fd5b63150b7a0260e01b7bffffffffffffffffffffffffffffffffffffffffffffffffffffffff1916817bffffffffffffffffffffffffffffffffffffffffffffffffffffffff19161491505062000846565b600190505b949350505050565b600060038054905082108015620008f75750600073ffffffffffffffffffffffffffffffffffffffff1660038381548110620008b3577f4e487b7100000000000000000000000000000000000000000000000000000000600052603260045260246000fd5b9060005260206000200160009054906101000a900473ffffffffffffffffffffffffffffffffffffffff1673ffffffffffffffffffffffffffffffffffffffff1614155b9050919050565b505050565b600080823b905060008111915050919050565b828054620009249062000d3d565b90600052602060002090601f01602090048101928262000948576000855562000994565b82601f106200096357805160ff191683800117855562000994565b8280016001018555821562000994579182015b828111156200099357825182559160200191906001019062000976565b5b509050620009a39190620009a7565b5090565b5b80821115620009c2576000816000905550600101620009a8565b5090565b600081519050620009d78162000ed1565b92915050565b600060208284031215620009f057600080fd5b600062000a0084828501620009c6565b91505092915050565b62000a148162000c93565b82525050565b62000a258162000ca7565b82525050565b600062000a388262000c09565b62000a44818562000c14565b935062000a5681856020860162000d07565b62000a618162000e1f565b840191505092915050565b600062000a7b60328362000c25565b915062000a888262000e30565b604082019050919050565b600062000aa2601c8362000c25565b915062000aaf8262000e7f565b602082019050919050565b600062000ac960208362000c25565b915062000ad68262000ea8565b602082019050919050565b62000aec8162000cfd565b82525050565b600060808201905062000b09600083018762000a09565b62000b18602083018662000a09565b62000b27604083018562000ae1565b818103606083015262000b3b818462000a2b565b905095945050505050565b600060a08201905062000b5d600083018862000a1a565b62000b6c602083018762000a1a565b62000b7b604083018662000a1a565b62000b8a606083018562000ae1565b62000b99608083018462000a09565b9695505050505050565b6000602082019050818103600083015262000bbe8162000a6c565b9050919050565b6000602082019050818103600083015262000be08162000a93565b9050919050565b6000602082019050818103600083015262000c028162000aba565b9050919050565b600081519050919050565b600082825260208201905092915050565b600082825260208201905092915050565b600062000c438262000cfd565b915062000c508362000cfd565b9250827fffffffffffffffffffffffffffffffffffffffffffffffffffffffffffffffff0382111562000c885762000c8762000dc1565b5b828201905092915050565b600062000ca08262000cdd565b9050919050565b6000819050919050565b60007fffffffff0000000000000000000000000000000000000000000000000000000082169050919050565b600073ffffffffffffffffffffffffffffffffffffffff82169050919050565b6000819050919050565b60005b8381101562000d2757808201518184015260208101905062000d0a565b8381111562000d37576000848401525b50505050565b6000600282049050600182168062000d5657607f821691505b6020821081141562000d6d5762000d6c62000df0565b5b50919050565b600062000d808262000cfd565b91507fffffffffffffffffffffffffffffffffffffffffffffffffffffffffffffffff82141562000db65762000db562000dc1565b5b600182019050919050565b7f4e487b7100000000000000000000000000000000000000000000000000000000600052601160045260246000fd5b7f4e487b7100000000000000000000000000000000000000000000000000000000600052602260045260246000fd5b6000601f19601f8301169050919050565b7f4552433732313a207472616e7366657220746f206e6f6e20455243373231526560008201527f63656976657220696d706c656d656e7465720000000000000000000000000000602082015250565b7f4552433732313a20746f6b656e20616c7265616479206d696e74656400000000600082015250565b7f4552433732313a206d696e7420746f20746865207a65726f2061646472657373600082015250565b62000edc8162000cb1565b811462000ee857600080fd5b50565b60805160a05160c05160e05161010051614dfd62000f3060003960006129100152600061295201526000612931015260006128bd015260006128e50152614dfd6000f3fe60806040526004361061021a5760003560e01c80636456c2051161012357806395d89b41116100ab578063e7908b091161006f578063e7908b09146107b2578063e985e9c5146107ce578063f0f442601461080b578063f2fde38b14610834578063fc89bacd1461085d5761021a565b806395d89b41146106cd578063a22cb465146106f8578063b88d4fde14610721578063c341526b1461074a578063c87b56dd146107755761021a565b8063853828b6116100f2578063853828b61461060557806385852ce41461060f5780638b795dcb1461064c5780638d859f3e146106775780638da5cb5b146106a25761021a565b80636456c2051461055f57806370a0823114610588578063715018a6146105c5578063798611a0146105dc5761021a565b806323b872dd116101a657806342966c681161017557806342966c681461047857806352e96828146104a15780635b769c6d146104cc57806361d027b3146104f75780636352211e146105225761021a565b806323b872dd146103be57806332a61f5f146103e757806338e21cce1461041257806342842e0e1461044f5761021a565b8063081812fc116101ed578063081812fc146102d9578063095ea7b3146103165780630a61454b1461033f57806318160ddd1461036a57806318e77a8e146103955761021a565b806301ffc9a71461021f57806302244fd01461025c57806302fe53051461028557806306fdde03146102ae575b600080fd5b34801561022b57600080fd5b50610246600480360381019061024191906135d8565b610886565b6040516102539190613dc7565b60405180910390f35b34801561026857600080fd5b50610283600480360381019061027e919061366f565b610968565b005b34801561029157600080fd5b506102ac60048036038101906102a7919061362a565b6109ee565b005b3480156102ba57600080fd5b506102c3610a80565b6040516102d09190613eb1565b60405180910390f35b3480156102e557600080fd5b5061030060048036038101906102fb919061366f565b610b12565b60405161030d9190613d29565b60405180910390f35b34801561032257600080fd5b5061033d60048036038101906103389190613560565b610b97565b005b34801561034b57600080fd5b50610354610caf565b6040516103619190614253565b60405180910390f35b34801561037657600080fd5b5061037f610cb5565b60405161038c9190614253565b60405180910390f35b3480156103a157600080fd5b506103bc60048036038101906103b79190613560565b610cbb565b005b3480156103ca57600080fd5b506103e560048036038101906103e0919061345a565b610e33565b005b3480156103f357600080fd5b506103fc610e93565b6040516104099190613dc7565b60405180910390f35b34801561041e57600080fd5b50610439600480360381019061043491906133f5565b610ea6565b6040516104469190614253565b60405180910390f35b34801561045b57600080fd5b506104766004803603810190610471919061345a565b610ebe565b005b34801561048457600080fd5b5061049f600480360381019061049a919061366f565b610ede565b005b3480156104ad57600080fd5b506104b6610f66565b6040516104c39190614253565b60405180910390f35b3480156104d857600080fd5b506104e1610f6c565b6040516104ee9190614253565b60405180910390f35b34801561050357600080fd5b5061050c610f72565b6040516105199190613d29565b60405180910390f35b34801561052e57600080fd5b506105496004803603810190610544919061366f565b610f98565b6040516105569190613d29565b60405180910390f35b34801561056b57600080fd5b506105866004803603810190610581919061366f565b61107b565b005b34801561059457600080fd5b506105af60048036038101906105aa91906133f5565b611101565b6040516105bc9190614253565b60405180910390f35b3480156105d157600080fd5b506105da61124d565b005b3480156105e857600080fd5b5061060360048036038101906105fe919061366f565b6112d5565b005b61060d61135b565b005b34801561061b57600080fd5b5061063660048036038101906106319190613698565b611439565b6040516106439190613dc7565b60405180910390f35b34801561065857600080fd5b506106616114e0565b60405161066e9190614253565b60405180910390f35b34801561068357600080fd5b5061068c6114e6565b6040516106999190614253565b60405180910390f35b3480156106ae57600080fd5b506106b76114ec565b6040516106c49190613d29565b60405180910390f35b3480156106d957600080fd5b506106e2611515565b6040516106ef9190613eb1565b60405180910390f35b34801561070457600080fd5b5061071f600480360381019061071a9190613524565b6115a7565b005b34801561072d57600080fd5b50610748600480360381019061074391906134a9565b611728565b005b34801561075657600080fd5b5061075f61178a565b60405161076c9190614253565b60405180910390f35b34801561078157600080fd5b5061079c6004803603810190610797919061366f565b611790565b6040516107a99190613eb1565b60405180910390f35b6107cc60048036038101906107c791906136ec565b61180c565b005b3480156107da57600080fd5b506107f560048036038101906107f0919061341e565b611bd1565b6040516108029190613dc7565b60405180910390f35b34801561081757600080fd5b50610832600480360381019061082d91906133f5565b611c65565b005b34801561084057600080fd5b5061085b600480360381019061085691906133f5565b611db7565b005b34801561086957600080fd5b50610884600480360381019061087f919061359c565b611eaf565b005b60007f80ac58cd000000000000000000000000000000000000000000000000000000007bffffffffffffffffffffffffffffffffffffffffffffffffffffffff1916827bffffffffffffffffffffffffffffffffffffffffffffffffffffffff1916148061095157507f5b5e139f000000000000000000000000000000000000000000000000000000007bffffffffffffffffffffffffffffffffffffffffffffffffffffffff1916827bffffffffffffffffffffffffffffffffffffffffffffffffffffffff1916145b80610961575061096082611f79565b5b9050919050565b610970611fe3565b73ffffffffffffffffffffffffffffffffffffffff1661098e6114ec565b73ffffffffffffffffffffffffffffffffffffffff16146109e4576040517f08c379a00000000000000000000000000000000000000000000000000000000081526004016109db90614173565b60405180910390fd5b8060068190555050565b6109f6611fe3565b73ffffffffffffffffffffffffffffffffffffffff16610a146114ec565b73ffffffffffffffffffffffffffffffffffffffff1614610a6a576040517f08c379a0000000000000000000000000000000000000000000000000000000008152600401610a6190614173565b60405180910390fd5b8181600d9190610a7b929190613237565b505050565b606060018054610a8f906144fe565b80601f0160208091040260200160405190810160405280929190818152602001828054610abb906144fe565b8015610b085780601f10610add57610100808354040283529160200191610b08565b820191906000526020600020905b815481529060010190602001808311610aeb57829003601f168201915b5050505050905090565b6000610b1d82611feb565b610b5c576040517f08c379a0000000000000000000000000000000000000000000000000000000008152600401610b5390614153565b60405180910390fd5b6004600083815260200190815260200160002060009054906101000a900473ffffffffffffffffffffffffffffffffffffffff169050919050565b6000610ba282610f98565b90508073ffffffffffffffffffffffffffffffffffffffff168373ffffffffffffffffffffffffffffffffffffffff161415610c13576040517f08c379a0000000000000000000000000000000000000000000000000000000008152600401610c0a906141d3565b60405180910390fd5b8073ffffffffffffffffffffffffffffffffffffffff16610c32611fe3565b73ffffffffffffffffffffffffffffffffffffffff161480610c615750610c6081610c5b611fe3565b611bd1565b5b610ca0576040517f08c379a0000000000000000000000000000000000000000000000000000000008152600401610c9790614073565b60405180910390fd5b610caa8383612099565b505050565b60075481565b600b5481565b610cc3611fe3565b73ffffffffffffffffffffffffffffffffffffffff16610ce16114ec565b73ffffffffffffffffffffffffffffffffffffffff1614610d37576040517f08c379a0000000000000000000000000000000000000000000000000000000008152600401610d2e90614173565b60405180910390fd5b600654610d4f82600b54611f5090919063ffffffff16565b1115610d90576040517f08c379a0000000000000000000000000000000000000000000000000000000008152600401610d8790614053565b60405180910390fd5b60005b81811015610dd657610da783600b54612152565b610dbd6001600b54611f5090919063ffffffff16565b600b819055508080610dce90614561565b915050610d93565b50610dec81600a54611f5090919063ffffffff16565b600a819055507f9670c8b300c38cd3db8d3f9429dd902e67f418c4dd193e2497f06d20efc795608282600b54604051610e2793929190613d90565b60405180910390a15050565b610e44610e3e611fe3565b82612170565b610e83576040517f08c379a0000000000000000000000000000000000000000000000000000000008152600401610e7a906141f3565b60405180910390fd5b610e8e83838361224e565b505050565b600c60009054906101000a900460ff1681565b600f6020528060005260406000206000915090505481565b610ed983838360405180602001604052806000815250611728565b505050565b610ee6611fe3565b73ffffffffffffffffffffffffffffffffffffffff16610f046114ec565b73ffffffffffffffffffffffffffffffffffffffff1614610f5a576040517f08c379a0000000000000000000000000000000000000000000000000000000008152600401610f5190614173565b60405180910390fd5b610f638161242d565b50565b60105481565b60065481565b600e60009054906101000a900473ffffffffffffffffffffffffffffffffffffffff1681565b60008060038381548110610fd5577f4e487b7100000000000000000000000000000000000000000000000000000000600052603260045260246000fd5b9060005260206000200160009054906101000a900473ffffffffffffffffffffffffffffffffffffffff169050600073ffffffffffffffffffffffffffffffffffffffff168173ffffffffffffffffffffffffffffffffffffffff161415611072576040517f08c379a0000000000000000000000000000000000000000000000000000000008152600401611069906140b3565b60405180910390fd5b80915050919050565b611083611fe3565b73ffffffffffffffffffffffffffffffffffffffff166110a16114ec565b73ffffffffffffffffffffffffffffffffffffffff16146110f7576040517f08c379a00000000000000000000000000000000000000000000000000000000081526004016110ee90614173565b60405180910390fd5b8060088190555050565b60008073ffffffffffffffffffffffffffffffffffffffff168273ffffffffffffffffffffffffffffffffffffffff161415611172576040517f08c379a000000000000000000000000000000000000000000000000000000000815260040161116990614093565b60405180910390fd5b600080600380549050905060005b8181101561123e57600381815481106111c2577f4e487b7100000000000000000000000000000000000000000000000000000000600052603260045260246000fd5b9060005260206000200160009054906101000a900473ffffffffffffffffffffffffffffffffffffffff1673ffffffffffffffffffffffffffffffffffffffff168573ffffffffffffffffffffffffffffffffffffffff16141561122d578261122a90614561565b92505b8061123790614561565b9050611180565b50600090508192505050919050565b611255611fe3565b73ffffffffffffffffffffffffffffffffffffffff166112736114ec565b73ffffffffffffffffffffffffffffffffffffffff16146112c9576040517f08c379a00000000000000000000000000000000000000000000000000000000081526004016112c090614173565b60405180910390fd5b6112d36000612535565b565b6112dd611fe3565b73ffffffffffffffffffffffffffffffffffffffff166112fb6114ec565b73ffffffffffffffffffffffffffffffffffffffff1614611351576040517f08c379a000000000000000000000000000000000000000000000000000000000815260040161134890614173565b60405180910390fd5b8060078190555050565b611363611fe3565b73ffffffffffffffffffffffffffffffffffffffff166113816114ec565b73ffffffffffffffffffffffffffffffffffffffff16146113d7576040517f08c379a00000000000000000000000000000000000000000000000000000000081526004016113ce90614173565b60405180910390fd5b600e60009054906101000a900473ffffffffffffffffffffffffffffffffffffffff1673ffffffffffffffffffffffffffffffffffffffff166108fc479081150290604051600060405180830381858888f1935050505061143757600080fd5b565b60008061149f6114997f182854de6a51f3818344a7eb784b9d55c1e6d2d20c9f9aea309f5daaaaddfec161146b611fe3565b8760405160200161147e93929190613de2565b604051602081830303815290604052805190602001206125f9565b84612613565b90508073ffffffffffffffffffffffffffffffffffffffff166114c06114ec565b73ffffffffffffffffffffffffffffffffffffffff161491505092915050565b60095481565b60085481565b60008060009054906101000a900473ffffffffffffffffffffffffffffffffffffffff16905090565b606060028054611524906144fe565b80601f0160208091040260200160405190810160405280929190818152602001828054611550906144fe565b801561159d5780601f106115725761010080835404028352916020019161159d565b820191906000526020600020905b81548152906001019060200180831161158057829003601f168201915b5050505050905090565b6115af611fe3565b73ffffffffffffffffffffffffffffffffffffffff168273ffffffffffffffffffffffffffffffffffffffff16141561161d576040517f08c379a000000000000000000000000000000000000000000000000000000000815260040161161490613ff3565b60405180910390fd5b806005600061162a611fe3565b73ffffffffffffffffffffffffffffffffffffffff1673ffffffffffffffffffffffffffffffffffffffff16815260200190815260200160002060008473ffffffffffffffffffffffffffffffffffffffff1673ffffffffffffffffffffffffffffffffffffffff16815260200190815260200160002060006101000a81548160ff0219169083151502179055508173ffffffffffffffffffffffffffffffffffffffff166116d7611fe3565b73ffffffffffffffffffffffffffffffffffffffff167f17307eab39ab6107e8899845ad3d59bd9653f200f220920489ca2b5937696c318360405161171c9190613dc7565b60405180910390a35050565b611739611733611fe3565b83612170565b611778576040517f08c379a000000000000000000000000000000000000000000000000000000000815260040161176f906141f3565b60405180910390fd5b6117848484848461263a565b50505050565b600a5481565b606061179b82611feb565b6117da576040517f08c379a00000000000000000000000000000000000000000000000000000000081526004016117d1906140d3565b60405180910390fd5b600d6117e583612696565b6040516020016117f6929190613cce565b6040516020818303038152906040529050919050565b60011515600c60009054906101000a900460ff16151514611862576040517f08c379a000000000000000000000000000000000000000000000000000000000815260040161185990614233565b60405180910390fd5b6010544210156118a7576040517f08c379a000000000000000000000000000000000000000000000000000000000815260040161189e90614213565b60405180910390fd5b6007546118bf84600b54611f5090919063ffffffff16565b1115611900576040517f08c379a00000000000000000000000000000000000000000000000000000000081526004016118f790614113565b60405180910390fd5b61190a8282611439565b611949576040517f08c379a000000000000000000000000000000000000000000000000000000000815260040161194090613f13565b60405180910390fd5b6000831180156119aa5750816119a784600f60003373ffffffffffffffffffffffffffffffffffffffff1673ffffffffffffffffffffffffffffffffffffffff16815260200190815260200160002054611f5090919063ffffffff16565b11155b6119e9576040517f08c379a00000000000000000000000000000000000000000000000000000000081526004016119e0906141b3565b60405180910390fd5b600654611a0184600b54611f5090919063ffffffff16565b1115611a42576040517f08c379a0000000000000000000000000000000000000000000000000000000008152600401611a3990614053565b60405180910390fd5b611a578360085461284390919063ffffffff16565b3414611a98576040517f08c379a0000000000000000000000000000000000000000000000000000000008152600401611a8f90613f73565b60405180910390fd5b60005b83811015611ade57611aaf33600b54612152565b611ac56001600b54611f5090919063ffffffff16565b600b819055508080611ad690614561565b915050611a9b565b50611af483600954611f5090919063ffffffff16565b600981905550611b4c83600f60003373ffffffffffffffffffffffffffffffffffffffff1673ffffffffffffffffffffffffffffffffffffffff16815260200190815260200160002054611f5090919063ffffffff16565b600f60003373ffffffffffffffffffffffffffffffffffffffff1673ffffffffffffffffffffffffffffffffffffffff168152602001908152602001600020819055507f9670c8b300c38cd3db8d3f9429dd902e67f418c4dd193e2497f06d20efc795603384600b54604051611bc493929190613d90565b60405180910390a1505050565b6000600560008473ffffffffffffffffffffffffffffffffffffffff1673ffffffffffffffffffffffffffffffffffffffff16815260200190815260200160002060008373ffffffffffffffffffffffffffffffffffffffff1673ffffffffffffffffffffffffffffffffffffffff16815260200190815260200160002060009054906101000a900460ff16905092915050565b611c6d611fe3565b73ffffffffffffffffffffffffffffffffffffffff16611c8b6114ec565b73ffffffffffffffffffffffffffffffffffffffff1614611ce1576040517f08c379a0000000000000000000000000000000000000000000000000000000008152600401611cd890614173565b60405180910390fd5b600073ffffffffffffffffffffffffffffffffffffffff16600e60009054906101000a900473ffffffffffffffffffffffffffffffffffffffff1673ffffffffffffffffffffffffffffffffffffffff161415611d73576040517f08c379a0000000000000000000000000000000000000000000000000000000008152600401611d6a90613ef3565b60405180910390fd5b80600e60006101000a81548173ffffffffffffffffffffffffffffffffffffffff021916908373ffffffffffffffffffffffffffffffffffffffff16021790555050565b611dbf611fe3565b73ffffffffffffffffffffffffffffffffffffffff16611ddd6114ec565b73ffffffffffffffffffffffffffffffffffffffff1614611e33576040517f08c379a0000000000000000000000000000000000000000000000000000000008152600401611e2a90614173565b60405180910390fd5b600073ffffffffffffffffffffffffffffffffffffffff168173ffffffffffffffffffffffffffffffffffffffff161415611ea3576040517f08c379a0000000000000000000000000000000000000000000000000000000008152600401611e9a90613f93565b60405180910390fd5b611eac81612535565b50565b611eb7611fe3565b73ffffffffffffffffffffffffffffffffffffffff16611ed56114ec565b73ffffffffffffffffffffffffffffffffffffffff1614611f2b576040517f08c379a0000000000000000000000000000000000000000000000000000000008152600401611f2290614173565b60405180910390fd5b81600c60006101000a81548160ff021916908315150217905550806010819055505050565b60008183611f5e919061431c565b905092915050565b600080823b905060008111915050919050565b60007f01ffc9a7000000000000000000000000000000000000000000000000000000007bffffffffffffffffffffffffffffffffffffffffffffffffffffffff1916827bffffffffffffffffffffffffffffffffffffffffffffffffffffffff1916149050919050565b600033905090565b6000600380549050821080156120925750600073ffffffffffffffffffffffffffffffffffffffff166003838154811061204e577f4e487b7100000000000000000000000000000000000000000000000000000000600052603260045260246000fd5b9060005260206000200160009054906101000a900473ffffffffffffffffffffffffffffffffffffffff1673ffffffffffffffffffffffffffffffffffffffff1614155b9050919050565b816004600083815260200190815260200160002060006101000a81548173ffffffffffffffffffffffffffffffffffffffff021916908373ffffffffffffffffffffffffffffffffffffffff160217905550808273ffffffffffffffffffffffffffffffffffffffff1661210c83610f98565b73ffffffffffffffffffffffffffffffffffffffff167f8c5be1e5ebec7d5bd14f71427d1e84f3dd0314c0f7b2291e5b200ac8c7c3b92560405160405180910390a45050565b61216c828260405180602001604052806000815250612859565b5050565b600061217b82611feb565b6121ba576040517f08c379a00000000000000000000000000000000000000000000000000000000081526004016121b190614033565b60405180910390fd5b60006121c583610f98565b90508073ffffffffffffffffffffffffffffffffffffffff168473ffffffffffffffffffffffffffffffffffffffff16148061223457508373ffffffffffffffffffffffffffffffffffffffff1661221c84610b12565b73ffffffffffffffffffffffffffffffffffffffff16145b8061224557506122448185611bd1565b5b91505092915050565b8273ffffffffffffffffffffffffffffffffffffffff1661226e82610f98565b73ffffffffffffffffffffffffffffffffffffffff16146122c4576040517f08c379a00000000000000000000000000000000000000000000000000000000081526004016122bb90614193565b60405180910390fd5b600073ffffffffffffffffffffffffffffffffffffffff168273ffffffffffffffffffffffffffffffffffffffff161415612334576040517f08c379a000000000000000000000000000000000000000000000000000000000815260040161232b90613fd3565b60405180910390fd5b61233f8383836128b4565b61234a600082612099565b8160038281548110612385577f4e487b7100000000000000000000000000000000000000000000000000000000600052603260045260246000fd5b9060005260206000200160006101000a81548173ffffffffffffffffffffffffffffffffffffffff021916908373ffffffffffffffffffffffffffffffffffffffff160217905550808273ffffffffffffffffffffffffffffffffffffffff168473ffffffffffffffffffffffffffffffffffffffff167fddf252ad1be2c89b69c2b068fc378daa952ba7f163c4a11628f55a4df523b3ef60405160405180910390a4505050565b600061243882610f98565b9050612446816000846128b4565b612451600083612099565b60006003838154811061248d577f4e487b7100000000000000000000000000000000000000000000000000000000600052603260045260246000fd5b9060005260206000200160006101000a81548173ffffffffffffffffffffffffffffffffffffffff021916908373ffffffffffffffffffffffffffffffffffffffff16021790555081600073ffffffffffffffffffffffffffffffffffffffff168273ffffffffffffffffffffffffffffffffffffffff167fddf252ad1be2c89b69c2b068fc378daa952ba7f163c4a11628f55a4df523b3ef60405160405180910390a45050565b60008060009054906101000a900473ffffffffffffffffffffffffffffffffffffffff169050816000806101000a81548173ffffffffffffffffffffffffffffffffffffffff021916908373ffffffffffffffffffffffffffffffffffffffff1602179055508173ffffffffffffffffffffffffffffffffffffffff168173ffffffffffffffffffffffffffffffffffffffff167f8be0079c531659141344cd1fd0a4f28419497f9722a3daafe3b4186f6b6457e060405160405180910390a35050565b600061260c6126066128b9565b8361297c565b9050919050565b600080600061262285856129af565b9150915061262f81612a32565b819250505092915050565b61264584848461224e565b61265184848484612d83565b612690576040517f08c379a000000000000000000000000000000000000000000000000000000000815260040161268790613f53565b60405180910390fd5b50505050565b606060008214156126de576040518060400160405280600181526020017f3000000000000000000000000000000000000000000000000000000000000000815250905061283e565b600082905060005b600082146127105780806126f990614561565b915050600a826127099190614372565b91506126e6565b60008167ffffffffffffffff811115612752577f4e487b7100000000000000000000000000000000000000000000000000000000600052604160045260246000fd5b6040519080825280601f01601f1916602001820160405280156127845781602001600182028036833780820191505090505b5090505b600085146128375760018261279d91906143fd565b9150600a856127ac91906145b4565b60306127b8919061431c565b60f81b8183815181106127f4577f4e487b7100000000000000000000000000000000000000000000000000000000600052603260045260246000fd5b60200101907effffffffffffffffffffffffffffffffffffffffffffffffffffffffffffff1916908160001a905350600a856128309190614372565b9450612788565b8093505050505b919050565b6000818361285191906143a3565b905092915050565b6128638383612f1a565b6128706000848484612d83565b6128af576040517f08c379a00000000000000000000000000000000000000000000000000000000081526004016128a690613f53565b60405180910390fd5b505050565b505050565b60007f000000000000000000000000000000000000000000000000000000000000000046141561290b577f00000000000000000000000000000000000000000000000000000000000000009050612979565b6129767f00000000000000000000000000000000000000000000000000000000000000007f00000000000000000000000000000000000000000000000000000000000000007f00000000000000000000000000000000000000000000000000000000000000006130a2565b90505b90565b60008282604051602001612991929190613cf2565b60405160208183030381529060405280519060200120905092915050565b6000806041835114156129f15760008060006020860151925060408601519150606086015160001a90506129e5878285856130dc565b94509450505050612a2b565b604083511415612a22576000806020850151915060408501519050612a178683836131e9565b935093505050612a2b565b60006002915091505b9250929050565b60006004811115612a6c577f4e487b7100000000000000000000000000000000000000000000000000000000600052602160045260246000fd5b816004811115612aa5577f4e487b7100000000000000000000000000000000000000000000000000000000600052602160045260246000fd5b1415612ab057612d80565b60016004811115612aea577f4e487b7100000000000000000000000000000000000000000000000000000000600052602160045260246000fd5b816004811115612b23577f4e487b7100000000000000000000000000000000000000000000000000000000600052602160045260246000fd5b1415612b64576040517f08c379a0000000000000000000000000000000000000000000000000000000008152600401612b5b90613ed3565b60405180910390fd5b60026004811115612b9e577f4e487b7100000000000000000000000000000000000000000000000000000000600052602160045260246000fd5b816004811115612bd7577f4e487b7100000000000000000000000000000000000000000000000000000000600052602160045260246000fd5b1415612c18576040517f08c379a0000000000000000000000000000000000000000000000000000000008152600401612c0f90613f33565b60405180910390fd5b60036004811115612c52577f4e487b7100000000000000000000000000000000000000000000000000000000600052602160045260246000fd5b816004811115612c8b577f4e487b7100000000000000000000000000000000000000000000000000000000600052602160045260246000fd5b1415612ccc576040517f08c379a0000000000000000000000000000000000000000000000000000000008152600401612cc390614013565b60405180910390fd5b600480811115612d05577f4e487b7100000000000000000000000000000000000000000000000000000000600052602160045260246000fd5b816004811115612d3e577f4e487b7100000000000000000000000000000000000000000000000000000000600052602160045260246000fd5b1415612d7f576040517f08c379a0000000000000000000000000000000000000000000000000000000008152600401612d76906140f3565b60405180910390fd5b5b50565b6000612da48473ffffffffffffffffffffffffffffffffffffffff16611f66565b15612f0d578373ffffffffffffffffffffffffffffffffffffffff1663150b7a02612dcd611fe3565b8786866040518563ffffffff1660e01b8152600401612def9493929190613d44565b602060405180830381600087803b158015612e0957600080fd5b505af1925050508015612e3a57506040513d601f19601f82011682018060405250810190612e379190613601565b60015b612ebd573d8060008114612e6a576040519150601f19603f3d011682016040523d82523d6000602084013e612e6f565b606091505b50600081511415612eb5576040517f08c379a0000000000000000000000000000000000000000000000000000000008152600401612eac90613f53565b60405180910390fd5b805181602001fd5b63150b7a0260e01b7bffffffffffffffffffffffffffffffffffffffffffffffffffffffff1916817bffffffffffffffffffffffffffffffffffffffffffffffffffffffff191614915050612f12565b600190505b949350505050565b600073ffffffffffffffffffffffffffffffffffffffff168273ffffffffffffffffffffffffffffffffffffffff161415612f8a576040517f08c379a0000000000000000000000000000000000000000000000000000000008152600401612f8190614133565b60405180910390fd5b612f9381611feb565b15612fd3576040517f08c379a0000000000000000000000000000000000000000000000000000000008152600401612fca90613fb3565b60405180910390fd5b612fdf600083836128b4565b6003829080600181540180825580915050600190039060005260206000200160009091909190916101000a81548173ffffffffffffffffffffffffffffffffffffffff021916908373ffffffffffffffffffffffffffffffffffffffff160217905550808273ffffffffffffffffffffffffffffffffffffffff16600073ffffffffffffffffffffffffffffffffffffffff167fddf252ad1be2c89b69c2b068fc378daa952ba7f163c4a11628f55a4df523b3ef60405160405180910390a45050565b600083838346306040516020016130bd959493929190613e19565b6040516020818303038152906040528051906020012090509392505050565b6000807f7fffffffffffffffffffffffffffffff5d576e7357a4501ddfe92f46681b20a08360001c11156131175760006003915091506131e0565b601b8560ff161415801561312f5750601c8560ff1614155b156131415760006004915091506131e0565b6000600187878787604051600081526020016040526040516131669493929190613e6c565b6020604051602081039080840390855afa158015613188573d6000803e3d6000fd5b505050602060405103519050600073ffffffffffffffffffffffffffffffffffffffff168173ffffffffffffffffffffffffffffffffffffffff1614156131d7576000600192509250506131e0565b80600092509250505b94509492505050565b6000806000807f7fffffffffffffffffffffffffffffffffffffffffffffffffffffffffffffff85169150601b8560ff1c019050613229878288856130dc565b935093505050935093915050565b828054613243906144fe565b90600052602060002090601f01602090048101928261326557600085556132ac565b82601f1061327e57803560ff19168380011785556132ac565b828001600101855582156132ac579182015b828111156132ab578235825591602001919060010190613290565b5b5090506132b991906132bd565b5090565b5b808211156132d65760008160009055506001016132be565b5090565b60006132ed6132e884614293565b61426e565b90508281526020810184848401111561330557600080fd5b6133108482856144bc565b509392505050565b60008135905061332781614d6b565b92915050565b60008135905061333c81614d82565b92915050565b60008135905061335181614d99565b92915050565b60008151905061336681614d99565b92915050565b600082601f83011261337d57600080fd5b813561338d8482602086016132da565b91505092915050565b60008083601f8401126133a857600080fd5b8235905067ffffffffffffffff8111156133c157600080fd5b6020830191508360018202830111156133d957600080fd5b9250929050565b6000813590506133ef81614db0565b92915050565b60006020828403121561340757600080fd5b600061341584828501613318565b91505092915050565b6000806040838503121561343157600080fd5b600061343f85828601613318565b925050602061345085828601613318565b9150509250929050565b60008060006060848603121561346f57600080fd5b600061347d86828701613318565b935050602061348e86828701613318565b925050604061349f868287016133e0565b9150509250925092565b600080600080608085870312156134bf57600080fd5b60006134cd87828801613318565b94505060206134de87828801613318565b93505060406134ef878288016133e0565b925050606085013567ffffffffffffffff81111561350c57600080fd5b6135188782880161336c565b91505092959194509250565b6000806040838503121561353757600080fd5b600061354585828601613318565b92505060206135568582860161332d565b9150509250929050565b6000806040838503121561357357600080fd5b600061358185828601613318565b9250506020613592858286016133e0565b9150509250929050565b600080604083850312156135af57600080fd5b60006135bd8582860161332d565b92505060206135ce858286016133e0565b9150509250929050565b6000602082840312156135ea57600080fd5b60006135f884828501613342565b91505092915050565b60006020828403121561361357600080fd5b600061362184828501613357565b91505092915050565b6000806020838503121561363d57600080fd5b600083013567ffffffffffffffff81111561365757600080fd5b61366385828601613396565b92509250509250929050565b60006020828403121561368157600080fd5b600061368f848285016133e0565b91505092915050565b600080604083850312156136ab57600080fd5b60006136b9858286016133e0565b925050602083013567ffffffffffffffff8111156136d657600080fd5b6136e28582860161336c565b9150509250929050565b60008060006060848603121561370157600080fd5b600061370f868287016133e0565b9350506020613720868287016133e0565b925050604084013567ffffffffffffffff81111561373d57600080fd5b6137498682870161336c565b9150509250925092565b61375c81614431565b82525050565b61376b81614443565b82525050565b61377a8161444f565b82525050565b61379161378c8261444f565b6145aa565b82525050565b60006137a2826142d9565b6137ac81856142ef565b93506137bc8185602086016144cb565b6137c5816146a1565b840191505092915050565b60006137db826142e4565b6137e58185614300565b93506137f58185602086016144cb565b6137fe816146a1565b840191505092915050565b6000613814826142e4565b61381e8185614311565b935061382e8185602086016144cb565b80840191505092915050565b60008154613847816144fe565b6138518186614311565b9450600182166000811461386c576001811461387d576138b0565b60ff198316865281860193506138b0565b613886856142c4565b60005b838110156138a857815481890152600182019150602081019050613889565b838801955050505b50505092915050565b60006138c6601883614300565b91506138d1826146b2565b602082019050919050565b60006138e9601483614300565b91506138f4826146db565b602082019050919050565b600061390c601b83614300565b915061391782614704565b602082019050919050565b600061392f601f83614300565b915061393a8261472d565b602082019050919050565b6000613952603283614300565b915061395d82614756565b604082019050919050565b6000613975602883614300565b9150613980826147a5565b604082019050919050565b6000613998602683614300565b91506139a3826147f4565b604082019050919050565b60006139bb601c83614300565b91506139c682614843565b602082019050919050565b60006139de600283614311565b91506139e98261486c565b600282019050919050565b6000613a01602483614300565b9150613a0c82614895565b604082019050919050565b6000613a24601983614300565b9150613a2f826148e4565b602082019050919050565b6000613a47602283614300565b9150613a528261490d565b604082019050919050565b6000613a6a602c83614300565b9150613a758261495c565b604082019050919050565b6000613a8d601183614300565b9150613a98826149ab565b602082019050919050565b6000613ab0603883614300565b9150613abb826149d4565b604082019050919050565b6000613ad3602a83614300565b9150613ade82614a23565b604082019050919050565b6000613af6602983614300565b9150613b0182614a72565b604082019050919050565b6000613b19601083614300565b9150613b2482614ac1565b602082019050919050565b6000613b3c602283614300565b9150613b4782614aea565b604082019050919050565b6000613b5f601783614300565b9150613b6a82614b39565b602082019050919050565b6000613b82602083614300565b9150613b8d82614b62565b602082019050919050565b6000613ba5602c83614300565b9150613bb082614b8b565b604082019050919050565b6000613bc8602083614300565b9150613bd382614bda565b602082019050919050565b6000613beb602983614300565b9150613bf682614c03565b604082019050919050565b6000613c0e601d83614300565b9150613c1982614c52565b602082019050919050565b6000613c31602183614300565b9150613c3c82614c7b565b604082019050919050565b6000613c54603183614300565b9150613c5f82614cca565b604082019050919050565b6000613c77601583614300565b9150613c8282614d19565b602082019050919050565b6000613c9a601483614300565b9150613ca582614d42565b602082019050919050565b613cb9816144a5565b82525050565b613cc8816144af565b82525050565b6000613cda828561383a565b9150613ce68284613809565b91508190509392505050565b6000613cfd826139d1565b9150613d098285613780565b602082019150613d198284613780565b6020820191508190509392505050565b6000602082019050613d3e6000830184613753565b92915050565b6000608082019050613d596000830187613753565b613d666020830186613753565b613d736040830185613cb0565b8181036060830152613d858184613797565b905095945050505050565b6000606082019050613da56000830186613753565b613db26020830185613cb0565b613dbf6040830184613cb0565b949350505050565b6000602082019050613ddc6000830184613762565b92915050565b6000606082019050613df76000830186613771565b613e046020830185613753565b613e116040830184613cb0565b949350505050565b600060a082019050613e2e6000830188613771565b613e3b6020830187613771565b613e486040830186613771565b613e556060830185613cb0565b613e626080830184613753565b9695505050505050565b6000608082019050613e816000830187613771565b613e8e6020830186613cbf565b613e9b6040830185613771565b613ea86060830184613771565b95945050505050565b60006020820190508181036000830152613ecb81846137d0565b905092915050565b60006020820190508181036000830152613eec816138b9565b9050919050565b60006020820190508181036000830152613f0c816138dc565b9050919050565b60006020820190508181036000830152613f2c816138ff565b9050919050565b60006020820190508181036000830152613f4c81613922565b9050919050565b60006020820190508181036000830152613f6c81613945565b9050919050565b60006020820190508181036000830152613f8c81613968565b9050919050565b60006020820190508181036000830152613fac8161398b565b9050919050565b60006020820190508181036000830152613fcc816139ae565b9050919050565b60006020820190508181036000830152613fec816139f4565b9050919050565b6000602082019050818103600083015261400c81613a17565b9050919050565b6000602082019050818103600083015261402c81613a3a565b9050919050565b6000602082019050818103600083015261404c81613a5d565b9050919050565b6000602082019050818103600083015261406c81613a80565b9050919050565b6000602082019050818103600083015261408c81613aa3565b9050919050565b600060208201905081810360008301526140ac81613ac6565b9050919050565b600060208201905081810360008301526140cc81613ae9565b9050919050565b600060208201905081810360008301526140ec81613b0c565b9050919050565b6000602082019050818103600083015261410c81613b2f565b9050919050565b6000602082019050818103600083015261412c81613b52565b9050919050565b6000602082019050818103600083015261414c81613b75565b9050919050565b6000602082019050818103600083015261416c81613b98565b9050919050565b6000602082019050818103600083015261418c81613bbb565b9050919050565b600060208201905081810360008301526141ac81613bde565b9050919050565b600060208201905081810360008301526141cc81613c01565b9050919050565b600060208201905081810360008301526141ec81613c24565b9050919050565b6000602082019050818103600083015261420c81613c47565b9050919050565b6000602082019050818103600083015261422c81613c6a565b9050919050565b6000602082019050818103600083015261424c81613c8d565b9050919050565b60006020820190506142686000830184613cb0565b92915050565b6000614278614289565b90506142848282614530565b919050565b6000604051905090565b600067ffffffffffffffff8211156142ae576142ad614672565b5b6142b7826146a1565b9050602081019050919050565b60008190508160005260206000209050919050565b600081519050919050565b600081519050919050565b600082825260208201905092915050565b600082825260208201905092915050565b600081905092915050565b6000614327826144a5565b9150614332836144a5565b9250827fffffffffffffffffffffffffffffffffffffffffffffffffffffffffffffffff03821115614367576143666145e5565b5b828201905092915050565b600061437d826144a5565b9150614388836144a5565b92508261439857614397614614565b5b828204905092915050565b60006143ae826144a5565b91506143b9836144a5565b9250817fffffffffffffffffffffffffffffffffffffffffffffffffffffffffffffffff04831182151516156143f2576143f16145e5565b5b828202905092915050565b6000614408826144a5565b9150614413836144a5565b925082821015614426576144256145e5565b5b828203905092915050565b600061443c82614485565b9050919050565b60008115159050919050565b6000819050919050565b60007fffffffff0000000000000000000000000000000000000000000000000000000082169050919050565b600073ffffffffffffffffffffffffffffffffffffffff82169050919050565b6000819050919050565b600060ff82169050919050565b82818337600083830152505050565b60005b838110156144e95780820151818401526020810190506144ce565b838111156144f8576000848401525b50505050565b6000600282049050600182168061451657607f821691505b6020821081141561452a57614529614643565b5b50919050565b614539826146a1565b810181811067ffffffffffffffff8211171561455857614557614672565b5b80604052505050565b600061456c826144a5565b91507fffffffffffffffffffffffffffffffffffffffffffffffffffffffffffffffff82141561459f5761459e6145e5565b5b600182019050919050565b6000819050919050565b60006145bf826144a5565b91506145ca836144a5565b9250826145da576145d9614614565b5b828206905092915050565b7f4e487b7100000000000000000000000000000000000000000000000000000000600052601160045260246000fd5b7f4e487b7100000000000000000000000000000000000000000000000000000000600052601260045260246000fd5b7f4e487b7100000000000000000000000000000000000000000000000000000000600052602260045260246000fd5b7f4e487b7100000000000000000000000000000000000000000000000000000000600052604160045260246000fd5b6000601f19601f8301169050919050565b7f45434453413a20696e76616c6964207369676e61747572650000000000000000600082015250565b7f53455454494e475f5a45524f5f41444452455353000000000000000000000000600082015250565b7f4e6f7420656c696769626c6520666f722077686974656c6973742e0000000000600082015250565b7f45434453413a20696e76616c6964207369676e6174757265206c656e67746800600082015250565b7f4552433732313a207472616e7366657220746f206e6f6e20455243373231526560008201527f63656976657220696d706c656d656e7465720000000000000000000000000000602082015250565b7f45746865722076616c75652073656e74206973206e6f7420657175616c20746860008201527f652070726963652e000000000000000000000000000000000000000000000000602082015250565b7f4f776e61626c653a206e6577206f776e657220697320746865207a65726f206160008201527f6464726573730000000000000000000000000000000000000000000000000000602082015250565b7f4552433732313a20746f6b656e20616c7265616479206d696e74656400000000600082015250565b7f1901000000000000000000000000000000000000000000000000000000000000600082015250565b7f4552433732313a207472616e7366657220746f20746865207a65726f2061646460008201527f7265737300000000000000000000000000000000000000000000000000000000602082015250565b7f4552433732313a20617070726f766520746f2063616c6c657200000000000000600082015250565b7f45434453413a20696e76616c6964207369676e6174757265202773272076616c60008201527f7565000000000000000000000000000000000000000000000000000000000000602082015250565b7f4552433732313a206f70657261746f7220717565727920666f72206e6f6e657860008201527f697374656e7420746f6b656e0000000000000000000000000000000000000000602082015250565b7f45786365656473204d41585f4c494f4e2e000000000000000000000000000000600082015250565b7f4552433732313a20617070726f76652063616c6c6572206973206e6f74206f7760008201527f6e6572206e6f7220617070726f76656420666f7220616c6c0000000000000000602082015250565b7f4552433732313a2062616c616e636520717565727920666f7220746865207a6560008201527f726f206164647265737300000000000000000000000000000000000000000000602082015250565b7f4552433732313a206f776e657220717565727920666f72206e6f6e657869737460008201527f656e7420746f6b656e0000000000000000000000000000000000000000000000602082015250565b7f544f4b454e5f4e4f545f45584953545300000000000000000000000000000000600082015250565b7f45434453413a20696e76616c6964207369676e6174757265202776272076616c60008201527f7565000000000000000000000000000000000000000000000000000000000000602082015250565b7f5468697320737461676520697320736f6c64206f757421000000000000000000600082015250565b7f4552433732313a206d696e7420746f20746865207a65726f2061646472657373600082015250565b7f4552433732313a20617070726f76656420717565727920666f72206e6f6e657860008201527f697374656e7420746f6b656e0000000000000000000000000000000000000000602082015250565b7f4f776e61626c653a2063616c6c6572206973206e6f7420746865206f776e6572600082015250565b7f4552433732313a207472616e73666572206f6620746f6b656e2074686174206960008201527f73206e6f74206f776e0000000000000000000000000000000000000000000000602082015250565b7f45786365656473206d61782077686974656c697374206e756d6265722e000000600082015250565b7f4552433732313a20617070726f76616c20746f2063757272656e74206f776e6560008201527f7200000000000000000000000000000000000000000000000000000000000000602082015250565b7f4552433732313a207472616e736665722063616c6c6572206973206e6f74206f60008201527f776e6572206e6f7220617070726f766564000000000000000000000000000000602082015250565b7f4e4f545f494e5f57484954454c4953545f54494d450000000000000000000000600082015250565b7f57484954454c4953545f4e4f545f414354495645000000000000000000000000600082015250565b614d7481614431565b8114614d7f57600080fd5b50565b614d8b81614443565b8114614d9657600080fd5b50565b614da281614459565b8114614dad57600080fd5b50565b614db9816144a5565b8114614dc457600080fd5b5056fea2646970667358221220d12e5a50562cf7616f99e96345c43f2afa1af640a1aa4a60864baf043046166d64736f6c63430008040033",
  "devdoc": {
    "kind": "dev",
    "methods": {
      "approve(address,uint256)": {
        "details": "See {IERC721-approve}."
      },
      "balanceOf(address)": {
        "details": "See {IERC721-balanceOf}."
      },
      "getApproved(uint256)": {
        "details": "See {IERC721-getApproved}."
      },
      "isApprovedForAll(address,address)": {
        "details": "See {IERC721-isApprovedForAll}."
      },
      "name()": {
        "details": "See {IERC721Metadata-name}."
      },
      "owner()": {
        "details": "Returns the address of the current owner."
      },
      "ownerOf(uint256)": {
        "details": "See {IERC721-ownerOf}."
      },
      "renounceOwnership()": {
        "details": "Leaves the contract without owner. It will not be possible to call `onlyOwner` functions anymore. Can only be called by the current owner. NOTE: Renouncing ownership will leave the contract without an owner, thereby removing any functionality that is only available to the owner."
      },
      "safeTransferFrom(address,address,uint256)": {
        "details": "See {IERC721-safeTransferFrom}."
      },
      "safeTransferFrom(address,address,uint256,bytes)": {
        "details": "See {IERC721-safeTransferFrom}."
      },
      "setApprovalForAll(address,bool)": {
        "details": "See {IERC721-setApprovalForAll}."
      },
      "supportsInterface(bytes4)": {
        "details": "See {IERC165-supportsInterface}."
      },
      "symbol()": {
        "details": "See {IERC721Metadata-symbol}."
      },
      "tokenURI(uint256)": {
        "details": "Returns the Uniform Resource Identifier (URI) for `tokenId` token."
      },
      "transferFrom(address,address,uint256)": {
        "details": "See {IERC721-transferFrom}."
      },
      "transferOwnership(address)": {
        "details": "Transfers ownership of the contract to a new account (`newOwner`). Can only be called by the current owner."
      }
    },
    "version": 1
  },
  "userdoc": {
    "kind": "user",
    "methods": {},
    "version": 1
  },
  "storageLayout": {
    "storage": [
      {
        "astId": 7,
        "contract": "contracts/LionDAO.sol:LionDAO",
        "label": "_owner",
        "offset": 0,
        "slot": "0",
        "type": "t_address"
      },
      {
        "astId": 2845,
        "contract": "contracts/LionDAO.sol:LionDAO",
        "label": "_name",
        "offset": 0,
        "slot": "1",
        "type": "t_string_storage"
      },
      {
        "astId": 2847,
        "contract": "contracts/LionDAO.sol:LionDAO",
        "label": "_symbol",
        "offset": 0,
        "slot": "2",
        "type": "t_string_storage"
      },
      {
        "astId": 2850,
        "contract": "contracts/LionDAO.sol:LionDAO",
        "label": "_owners",
        "offset": 0,
        "slot": "3",
        "type": "t_array(t_address)dyn_storage"
      },
      {
        "astId": 2854,
        "contract": "contracts/LionDAO.sol:LionDAO",
        "label": "_tokenApprovals",
        "offset": 0,
        "slot": "4",
        "type": "t_mapping(t_uint256,t_address)"
      },
      {
        "astId": 2860,
        "contract": "contracts/LionDAO.sol:LionDAO",
        "label": "_operatorApprovals",
        "offset": 0,
        "slot": "5",
        "type": "t_mapping(t_address,t_mapping(t_address,t_bool))"
      },
      {
        "astId": 3619,
        "contract": "contracts/LionDAO.sol:LionDAO",
        "label": "MAX_LION",
        "offset": 0,
        "slot": "6",
        "type": "t_uint256"
      },
      {
        "astId": 3622,
        "contract": "contracts/LionDAO.sol:LionDAO",
        "label": "STAGE_LIMIT",
        "offset": 0,
        "slot": "7",
        "type": "t_uint256"
      },
      {
        "astId": 3625,
        "contract": "contracts/LionDAO.sol:LionDAO",
        "label": "PRICE",
        "offset": 0,
        "slot": "8",
        "type": "t_uint256"
      },
      {
        "astId": 3628,
        "contract": "contracts/LionDAO.sol:LionDAO",
        "label": "numWhitelistSale",
        "offset": 0,
        "slot": "9",
        "type": "t_uint256"
      },
      {
        "astId": 3631,
        "contract": "contracts/LionDAO.sol:LionDAO",
        "label": "numGiveaway",
        "offset": 0,
        "slot": "10",
        "type": "t_uint256"
      },
      {
        "astId": 3634,
        "contract": "contracts/LionDAO.sol:LionDAO",
        "label": "totalSupply",
        "offset": 0,
        "slot": "11",
        "type": "t_uint256"
      },
      {
        "astId": 3637,
        "contract": "contracts/LionDAO.sol:LionDAO",
        "label": "hasWhitelistSaleStarted",
        "offset": 0,
        "slot": "12",
        "type": "t_bool"
      },
      {
        "astId": 3640,
        "contract": "contracts/LionDAO.sol:LionDAO",
        "label": "_baseTokenURI",
        "offset": 0,
        "slot": "13",
        "type": "t_string_storage"
      },
      {
        "astId": 3643,
        "contract": "contracts/LionDAO.sol:LionDAO",
        "label": "treasury",
        "offset": 0,
        "slot": "14",
        "type": "t_address"
      },
      {
        "astId": 3647,
        "contract": "contracts/LionDAO.sol:LionDAO",
        "label": "hasMinted",
        "offset": 0,
        "slot": "15",
        "type": "t_mapping(t_address,t_uint256)"
      },
      {
        "astId": 3650,
        "contract": "contracts/LionDAO.sol:LionDAO",
        "label": "whitelistSaleTimestamp",
        "offset": 0,
        "slot": "16",
        "type": "t_uint256"
      }
    ],
    "types": {
      "t_address": {
        "encoding": "inplace",
        "label": "address",
        "numberOfBytes": "20"
      },
      "t_array(t_address)dyn_storage": {
        "base": "t_address",
        "encoding": "dynamic_array",
        "label": "address[]",
        "numberOfBytes": "32"
      },
      "t_bool": {
        "encoding": "inplace",
        "label": "bool",
        "numberOfBytes": "1"
      },
      "t_mapping(t_address,t_bool)": {
        "encoding": "mapping",
        "key": "t_address",
        "label": "mapping(address => bool)",
        "numberOfBytes": "32",
        "value": "t_bool"
      },
      "t_mapping(t_address,t_mapping(t_address,t_bool))": {
        "encoding": "mapping",
        "key": "t_address",
        "label": "mapping(address => mapping(address => bool))",
        "numberOfBytes": "32",
        "value": "t_mapping(t_address,t_bool)"
      },
      "t_mapping(t_address,t_uint256)": {
        "encoding": "mapping",
        "key": "t_address",
        "label": "mapping(address => uint256)",
        "numberOfBytes": "32",
        "value": "t_uint256"
      },
      "t_mapping(t_uint256,t_address)": {
        "encoding": "mapping",
        "key": "t_uint256",
        "label": "mapping(uint256 => address)",
        "numberOfBytes": "32",
        "value": "t_address"
      },
      "t_string_storage": {
        "encoding": "bytes",
        "label": "string",
        "numberOfBytes": "32"
      },
      "t_uint256": {
        "encoding": "inplace",
        "label": "uint256",
        "numberOfBytes": "32"
      }
    }
  }
}