{
  "address": "0xD356DE76AC911C226C8A3196E1b1E716045582B2",
  "abi": [
    {
      "inputs": [],
      "stateMutability": "nonpayable",
      "type": "constructor"
    },
    {
      "inputs": [],
      "name": "ApprovalCallerNotOwnerNorApproved",
      "type": "error"
    },
    {
      "inputs": [],
      "name": "ApprovalQueryForNonexistentToken",
      "type": "error"
    },
    {
      "inputs": [],
      "name": "ApprovalToCurrentOwner",
      "type": "error"
    },
    {
      "inputs": [],
      "name": "ApproveToCaller",
      "type": "error"
    },
    {
      "inputs": [],
      "name": "BalanceQueryForZeroAddress",
      "type": "error"
    },
    {
      "inputs": [],
      "name": "MintToZeroAddress",
      "type": "error"
    },
    {
      "inputs": [],
      "name": "MintZeroQuantity",
      "type": "error"
    },
    {
      "inputs": [],
      "name": "OwnerIndexOutOfBounds",
      "type": "error"
    },
    {
      "inputs": [],
      "name": "OwnerQueryForNonexistentToken",
      "type": "error"
    },
    {
      "inputs": [],
      "name": "TokenIndexOutOfBounds",
      "type": "error"
    },
    {
      "inputs": [],
      "name": "TransferCallerNotOwnerNorApproved",
      "type": "error"
    },
    {
      "inputs": [],
      "name": "TransferFromIncorrectOwner",
      "type": "error"
    },
    {
      "inputs": [],
      "name": "TransferToNonERC721ReceiverImplementer",
      "type": "error"
    },
    {
      "inputs": [],
      "name": "TransferToZeroAddress",
      "type": "error"
    },
    {
      "anonymous": false,
      "inputs": [
        {
          "indexed": true,
          "internalType": "address",
          "name": "owner",
          "type": "address"
        },
        {
          "indexed": true,
          "internalType": "address",
          "name": "approved",
          "type": "address"
        },
        {
          "indexed": true,
          "internalType": "uint256",
          "name": "tokenId",
          "type": "uint256"
        }
      ],
      "name": "Approval",
      "type": "event"
    },
    {
      "anonymous": false,
      "inputs": [
        {
          "indexed": true,
          "internalType": "address",
          "name": "owner",
          "type": "address"
        },
        {
          "indexed": true,
          "internalType": "address",
          "name": "operator",
          "type": "address"
        },
        {
          "indexed": false,
          "internalType": "bool",
          "name": "approved",
          "type": "bool"
        }
      ],
      "name": "ApprovalForAll",
      "type": "event"
    },
    {
      "anonymous": false,
      "inputs": [
        {
          "indexed": true,
          "internalType": "address",
          "name": "previousOwner",
          "type": "address"
        },
        {
          "indexed": true,
          "internalType": "address",
          "name": "newOwner",
          "type": "address"
        }
      ],
      "name": "OwnershipTransferred",
      "type": "event"
    },
    {
      "anonymous": false,
      "inputs": [
        {
          "indexed": true,
          "internalType": "address",
          "name": "from",
          "type": "address"
        },
        {
          "indexed": true,
          "internalType": "address",
          "name": "to",
          "type": "address"
        },
        {
          "indexed": true,
          "internalType": "uint256",
          "name": "tokenId",
          "type": "uint256"
        }
      ],
      "name": "Transfer",
      "type": "event"
    },
    {
      "anonymous": false,
      "inputs": [
        {
          "indexed": false,
          "internalType": "address",
          "name": "owner",
          "type": "address"
        },
        {
          "indexed": false,
          "internalType": "uint256",
          "name": "quantity",
          "type": "uint256"
        },
        {
          "indexed": false,
          "internalType": "uint256",
          "name": "totalSupply",
          "type": "uint256"
        }
      ],
      "name": "mintEvent",
      "type": "event"
    },
    {
      "inputs": [],
      "name": "MAX_LION",
      "outputs": [
        {
          "internalType": "uint256",
          "name": "",
          "type": "uint256"
        }
      ],
      "stateMutability": "view",
      "type": "function"
    },
    {
      "inputs": [],
      "name": "PRICE",
      "outputs": [
        {
          "internalType": "uint256",
          "name": "",
          "type": "uint256"
        }
      ],
      "stateMutability": "view",
      "type": "function"
    },
    {
      "inputs": [],
      "name": "STAGE_LIMIT",
      "outputs": [
        {
          "internalType": "uint256",
          "name": "",
          "type": "uint256"
        }
      ],
      "stateMutability": "view",
      "type": "function"
    },
    {
      "inputs": [
        {
          "internalType": "address",
          "name": "to",
          "type": "address"
        },
        {
          "internalType": "uint256",
          "name": "tokenId",
          "type": "uint256"
        }
      ],
      "name": "approve",
      "outputs": [],
      "stateMutability": "nonpayable",
      "type": "function"
    },
    {
      "inputs": [
        {
          "internalType": "address",
          "name": "owner",
          "type": "address"
        }
      ],
      "name": "balanceOf",
      "outputs": [
        {
          "internalType": "uint256",
          "name": "",
          "type": "uint256"
        }
      ],
      "stateMutability": "view",
      "type": "function"
    },
    {
      "inputs": [
        {
          "internalType": "uint256",
          "name": "tokenId",
          "type": "uint256"
        }
      ],
      "name": "burn",
      "outputs": [],
      "stateMutability": "nonpayable",
      "type": "function"
    },
    {
      "inputs": [
        {
          "internalType": "uint256",
          "name": "tokenId",
          "type": "uint256"
        }
      ],
      "name": "getApproved",
      "outputs": [
        {
          "internalType": "address",
          "name": "",
          "type": "address"
        }
      ],
      "stateMutability": "view",
      "type": "function"
    },
    {
      "inputs": [
        {
          "internalType": "address",
          "name": "_to",
          "type": "address"
        },
        {
          "internalType": "uint256",
          "name": "quantity",
          "type": "uint256"
        }
      ],
      "name": "giveawayLion",
      "outputs": [],
      "stateMutability": "nonpayable",
      "type": "function"
    },
    {
      "inputs": [
        {
          "internalType": "address",
          "name": "",
          "type": "address"
        }
      ],
      "name": "hasMinted",
      "outputs": [
        {
          "internalType": "uint256",
          "name": "",
          "type": "uint256"
        }
      ],
      "stateMutability": "view",
      "type": "function"
    },
    {
      "inputs": [],
      "name": "hasWhitelistSaleStarted",
      "outputs": [
        {
          "internalType": "bool",
          "name": "",
          "type": "bool"
        }
      ],
      "stateMutability": "view",
      "type": "function"
    },
    {
      "inputs": [
        {
          "internalType": "address",
          "name": "owner",
          "type": "address"
        },
        {
          "internalType": "address",
          "name": "operator",
          "type": "address"
        }
      ],
      "name": "isApprovedForAll",
      "outputs": [
        {
          "internalType": "bool",
          "name": "",
          "type": "bool"
        }
      ],
      "stateMutability": "view",
      "type": "function"
    },
    {
      "inputs": [
        {
          "internalType": "uint256",
          "name": "quantity",
          "type": "uint256"
        },
        {
          "internalType": "uint256",
          "name": "maxQuantity",
          "type": "uint256"
        },
        {
          "internalType": "bytes",
          "name": "SIGNATURE",
          "type": "bytes"
        }
      ],
      "name": "mintWhitelistLion",
      "outputs": [],
      "stateMutability": "payable",
      "type": "function"
    },
    {
      "inputs": [],
      "name": "name",
      "outputs": [
        {
          "internalType": "string",
          "name": "",
          "type": "string"
        }
      ],
      "stateMutability": "view",
      "type": "function"
    },
    {
      "inputs": [],
      "name": "numGiveaway",
      "outputs": [
        {
          "internalType": "uint256",
          "name": "",
          "type": "uint256"
        }
      ],
      "stateMutability": "view",
      "type": "function"
    },
    {
      "inputs": [],
      "name": "numWhitelistSale",
      "outputs": [
        {
          "internalType": "uint256",
          "name": "",
          "type": "uint256"
        }
      ],
      "stateMutability": "view",
      "type": "function"
    },
    {
      "inputs": [],
      "name": "owner",
      "outputs": [
        {
          "internalType": "address",
          "name": "",
          "type": "address"
        }
      ],
      "stateMutability": "view",
      "type": "function"
    },
    {
      "inputs": [
        {
          "internalType": "uint256",
          "name": "tokenId",
          "type": "uint256"
        }
      ],
      "name": "ownerOf",
      "outputs": [
        {
          "internalType": "address",
          "name": "",
          "type": "address"
        }
      ],
      "stateMutability": "view",
      "type": "function"
    },
    {
      "inputs": [],
      "name": "renounceOwnership",
      "outputs": [],
      "stateMutability": "nonpayable",
      "type": "function"
    },
    {
      "inputs": [
        {
          "internalType": "address",
          "name": "from",
          "type": "address"
        },
        {
          "internalType": "address",
          "name": "to",
          "type": "address"
        },
        {
          "internalType": "uint256",
          "name": "tokenId",
          "type": "uint256"
        }
      ],
      "name": "safeTransferFrom",
      "outputs": [],
      "stateMutability": "nonpayable",
      "type": "function"
    },
    {
      "inputs": [
        {
          "internalType": "address",
          "name": "from",
          "type": "address"
        },
        {
          "internalType": "address",
          "name": "to",
          "type": "address"
        },
        {
          "internalType": "uint256",
          "name": "tokenId",
          "type": "uint256"
        },
        {
          "internalType": "bytes",
          "name": "_data",
          "type": "bytes"
        }
      ],
      "name": "safeTransferFrom",
      "outputs": [],
      "stateMutability": "nonpayable",
      "type": "function"
    },
    {
      "inputs": [
        {
          "internalType": "address",
          "name": "operator",
          "type": "address"
        },
        {
          "internalType": "bool",
          "name": "approved",
          "type": "bool"
        }
      ],
      "name": "setApprovalForAll",
      "outputs": [],
      "stateMutability": "nonpayable",
      "type": "function"
    },
    {
      "inputs": [
        {
          "internalType": "uint256",
          "name": "_MAX_num",
          "type": "uint256"
        }
      ],
      "name": "setMAX_LION",
      "outputs": [],
      "stateMutability": "nonpayable",
      "type": "function"
    },
    {
      "inputs": [
        {
          "internalType": "uint256",
          "name": "_STAGE_LIMIT",
          "type": "uint256"
        }
      ],
      "name": "setSTAGE_LIMIT",
      "outputs": [],
      "stateMutability": "nonpayable",
      "type": "function"
    },
    {
      "inputs": [
        {
          "internalType": "address",
          "name": "_treasury",
          "type": "address"
        }
      ],
      "name": "setTreasury",
      "outputs": [],
      "stateMutability": "nonpayable",
      "type": "function"
    },
    {
      "inputs": [
        {
          "internalType": "string",
          "name": "_tokenURI",
          "type": "string"
        }
      ],
      "name": "setURI",
      "outputs": [],
      "stateMutability": "nonpayable",
      "type": "function"
    },
    {
      "inputs": [
        {
          "internalType": "bool",
          "name": "_hasWhitelistSaleStarted",
          "type": "bool"
        },
        {
          "internalType": "uint256",
          "name": "_whitelistSaleTimestamp",
          "type": "uint256"
        }
      ],
      "name": "setWhitelistSale",
      "outputs": [],
      "stateMutability": "nonpayable",
      "type": "function"
    },
    {
      "inputs": [
        {
          "internalType": "uint256",
          "name": "_price",
          "type": "uint256"
        }
      ],
      "name": "set_PRICE",
      "outputs": [],
      "stateMutability": "nonpayable",
      "type": "function"
    },
    {
      "inputs": [
        {
          "internalType": "bytes4",
          "name": "interfaceId",
          "type": "bytes4"
        }
      ],
      "name": "supportsInterface",
      "outputs": [
        {
          "internalType": "bool",
          "name": "",
          "type": "bool"
        }
      ],
      "stateMutability": "view",
      "type": "function"
    },
    {
      "inputs": [],
      "name": "symbol",
      "outputs": [
        {
          "internalType": "string",
          "name": "",
          "type": "string"
        }
      ],
      "stateMutability": "view",
      "type": "function"
    },
    {
      "inputs": [
        {
          "internalType": "uint256",
          "name": "index",
          "type": "uint256"
        }
      ],
      "name": "tokenByIndex",
      "outputs": [
        {
          "internalType": "uint256",
          "name": "",
          "type": "uint256"
        }
      ],
      "stateMutability": "view",
      "type": "function"
    },
    {
      "inputs": [
        {
          "internalType": "address",
          "name": "owner",
          "type": "address"
        },
        {
          "internalType": "uint256",
          "name": "index",
          "type": "uint256"
        }
      ],
      "name": "tokenOfOwnerByIndex",
      "outputs": [
        {
          "internalType": "uint256",
          "name": "",
          "type": "uint256"
        }
      ],
      "stateMutability": "view",
      "type": "function"
    },
    {
      "inputs": [
        {
          "internalType": "uint256",
          "name": "tokenId",
          "type": "uint256"
        }
      ],
      "name": "tokenURI",
      "outputs": [
        {
          "internalType": "string",
          "name": "",
          "type": "string"
        }
      ],
      "stateMutability": "view",
      "type": "function"
    },
    {
      "inputs": [],
      "name": "totalSupply",
      "outputs": [
        {
          "internalType": "uint256",
          "name": "",
          "type": "uint256"
        }
      ],
      "stateMutability": "view",
      "type": "function"
    },
    {
      "inputs": [
        {
          "internalType": "address",
          "name": "from",
          "type": "address"
        },
        {
          "internalType": "address",
          "name": "to",
          "type": "address"
        },
        {
          "internalType": "uint256",
          "name": "tokenId",
          "type": "uint256"
        }
      ],
      "name": "transferFrom",
      "outputs": [],
      "stateMutability": "nonpayable",
      "type": "function"
    },
    {
      "inputs": [
        {
          "internalType": "address",
          "name": "newOwner",
          "type": "address"
        }
      ],
      "name": "transferOwnership",
      "outputs": [],
      "stateMutability": "nonpayable",
      "type": "function"
    },
    {
      "inputs": [],
      "name": "treasury",
      "outputs": [
        {
          "internalType": "address",
          "name": "",
          "type": "address"
        }
      ],
      "stateMutability": "view",
      "type": "function"
    },
    {
      "inputs": [
        {
          "internalType": "uint256",
          "name": "maxQuantity",
          "type": "uint256"
        },
        {
          "internalType": "bytes",
          "name": "SIGNATURE",
          "type": "bytes"
        }
      ],
      "name": "verify",
      "outputs": [
        {
          "internalType": "bool",
          "name": "",
          "type": "bool"
        }
      ],
      "stateMutability": "view",
      "type": "function"
    },
    {
      "inputs": [],
      "name": "whitelistSaleTimestamp",
      "outputs": [
        {
          "internalType": "uint256",
          "name": "",
          "type": "uint256"
        }
      ],
      "stateMutability": "view",
      "type": "function"
    },
    {
      "inputs": [],
      "name": "withdrawAll",
      "outputs": [],
      "stateMutability": "payable",
      "type": "function"
    }
  ],
  "transactionHash": "0x210c1793a2a9416b7f2fce92e9bd6b54d73788c1b41212279046a05ae804b7a0",
  "args": [],
  "numDeployments": 1,
  "solcInputHash": "b6836cf8466ea374fca925853f57121a",
  "bytecode": "0x6127106008556101b2600955670b1a2bc2ec500000600a556000600b819055600c5563622e4278600d55600e805460ff19166001179055610180604052602361012081815290620030f26101403980516200006391600f9160209091019062000554565b50601080546001600160a01b0319167321091a257294aab05b05ff1b3b686b2ba10546e71790553480156200009757600080fd5b50604051806040016040528060088152602001674c494f4e2044414f60c01b815250604051806040016040528060048152602001632624a7a760e11b815250604051806040016040528060078152602001664c494f4e44414f60c81b815250604051806040016040528060058152602001640312e302e360dc1b8152506200012e620001286200020060201b60201c565b62000204565b815160209283012081519183019190912060c082815260e08290524660a0818152604080517f8b73c3c69bb8fe3d512ecc4cf759cc79239f7b179b0ffacaa9a75d522b39400f818901819052818301979097526060810195909552608080860193909352308583015280518086039092018252939092019092528051908401209052610100528251620001c8916002919085019062000554565b508051620001de90600390602084019062000554565b5050601054620001fa91506001600160a01b0316606562000254565b620006e1565b3390565b600080546001600160a01b038381166001600160a01b0319831681178455604051919092169283917f8be0079c531659141344cd1fd0a4f28419497f9722a3daafe3b4186f6b6457e09190a35050565b620002768282604051806020016040528060008152506200027a60201b60201c565b5050565b6200028983838360016200028e565b505050565b6001546001600160801b03166001600160a01b038516620002c157604051622e076360e81b815260040160405180910390fd5b83620002e05760405163b562e8dd60e01b815260040160405180910390fd5b6001600160a01b038516600081815260056020908152604080832080546001600160801b031981166001600160401b038083168c018116918217680100000000000000006001600160401b031990941690921783900481168c018116909202179091558584526004909252822080546001600160e01b031916909317600160a01b42909216919091021790915581905b85811015620003f75760405182906001600160a01b038916906000907fddf252ad1be2c89b69c2b068fc378daa952ba7f163c4a11628f55a4df523b3ef908290a4838015620003cb5750620003c960008884886200041f565b155b15620003ea576040516368d2bf6b60e11b815260040160405180910390fd5b6001918201910162000370565b50600180546001600160801b0319166001600160801b03929092169190911790555050505050565b600062000440846001600160a01b03166200054e60201b620014301760201c565b156200054257604051630a85bd0160e11b81526001600160a01b0385169063150b7a02906200047a9033908990889088906004016200062b565b602060405180830381600087803b1580156200049557600080fd5b505af1925050508015620004c8575060408051601f3d908101601f19168201909252620004c591810190620005fa565b60015b62000527573d808015620004f9576040519150601f19603f3d011682016040523d82523d6000602084013e620004fe565b606091505b5080516200051f576040516368d2bf6b60e11b815260040160405180910390fd5b805181602001fd5b6001600160e01b031916630a85bd0160e11b14905062000546565b5060015b949350505050565b3b151590565b8280546200056290620006a4565b90600052602060002090601f016020900481019282620005865760008555620005d1565b82601f10620005a157805160ff1916838001178555620005d1565b82800160010185558215620005d1579182015b82811115620005d1578251825591602001919060010190620005b4565b50620005df929150620005e3565b5090565b5b80821115620005df5760008155600101620005e4565b6000602082840312156200060c578081fd5b81516001600160e01b03198116811462000624578182fd5b9392505050565b600060018060a01b0380871683526020818716818501528560408501526080606085015284519150816080850152825b82811015620006795785810182015185820160a0015281016200065b565b828111156200068b578360a084870101525b5050601f01601f19169190910160a00195945050505050565b600181811c90821680620006b957607f821691505b60208210811415620006db57634e487b7160e01b600052602260045260246000fd5b50919050565b60805160a05160c05160e051610100516129cc620007266000396000611d3001526000611d7f01526000611d5a01526000611cde01526000611d0701526129cc6000f3fe6080604052600436106102305760003560e01c80636352211e1161012e57806395d89b41116100ab578063e7908b091161006f578063e7908b0914610644578063e985e9c514610657578063f0f44260146106a0578063f2fde38b146106c0578063fc89bacd146106e057600080fd5b806395d89b41146105b9578063a22cb465146105ce578063b88d4fde146105ee578063c341526b1461060e578063c87b56dd1461062457600080fd5b8063853828b6116100f2578063853828b61461054757806385852ce41461054f5780638b795dcb1461056f5780638d859f3e146105855780638da5cb5b1461059b57600080fd5b80636352211e146104b25780636456c205146104d257806370a08231146104f2578063715018a614610512578063798611a01461052757600080fd5b806323b872dd116101bc57806342966c681161018057806342966c68146104265780634f6ccce71461044657806352e96828146104665780635b769c6d1461047c57806361d027b31461049257600080fd5b806323b872dd1461037f5780632f745c591461039f57806332a61f5f146103bf57806338e21cce146103d957806342842e0e1461040657600080fd5b8063081812fc11610203578063081812fc146102ce578063095ea7b3146103065780630a61454b1461032657806318160ddd1461034a57806318e77a8e1461035f57600080fd5b806301ffc9a71461023557806302244fd01461026a57806302fe53051461028c57806306fdde03146102ac575b600080fd5b34801561024157600080fd5b50610255610250366004612586565b610700565b60405190151581526020015b60405180910390f35b34801561027657600080fd5b5061028a61028536600461262a565b61076d565b005b34801561029857600080fd5b5061028a6102a73660046125be565b6107a5565b3480156102b857600080fd5b506102c16107e0565b60405161026191906127fe565b3480156102da57600080fd5b506102ee6102e936600461262a565b610872565b6040516001600160a01b039091168152602001610261565b34801561031257600080fd5b5061028a610321366004612542565b6108b6565b34801561033257600080fd5b5061033c60095481565b604051908152602001610261565b34801561035657600080fd5b5061033c61093f565b34801561036b57600080fd5b5061028a61037a366004612542565b61095e565b34801561038b57600080fd5b5061028a61039a366004612479565b610a50565b3480156103ab57600080fd5b5061033c6103ba366004612542565b610a5b565b3480156103cb57600080fd5b50600e546102559060ff1681565b3480156103e557600080fd5b5061033c6103f436600461242d565b60116020526000908152604090205481565b34801561041257600080fd5b5061028a610421366004612479565b610b57565b34801561043257600080fd5b5061028a61044136600461262a565b610b72565b34801561045257600080fd5b5061033c61046136600461262a565b610ba8565b34801561047257600080fd5b5061033c600d5481565b34801561048857600080fd5b5061033c60085481565b34801561049e57600080fd5b506010546102ee906001600160a01b031681565b3480156104be57600080fd5b506102ee6104cd36600461262a565b610c54565b3480156104de57600080fd5b5061028a6104ed36600461262a565b610c66565b3480156104fe57600080fd5b5061033c61050d36600461242d565b610c95565b34801561051e57600080fd5b5061028a610ce3565b34801561053357600080fd5b5061028a61054236600461262a565b610d19565b61028a610d48565b34801561055b57600080fd5b5061025561056a366004612642565b610da3565b34801561057b57600080fd5b5061033c600b5481565b34801561059157600080fd5b5061033c600a5481565b3480156105a757600080fd5b506000546001600160a01b03166102ee565b3480156105c557600080fd5b506102c1610e44565b3480156105da57600080fd5b5061028a6105e9366004612519565b610e53565b3480156105fa57600080fd5b5061028a6106093660046124b4565b610ee9565b34801561061a57600080fd5b5061033c600c5481565b34801561063057600080fd5b506102c161063f36600461262a565b610f23565b61028a610652366004612686565b610f9f565b34801561066357600080fd5b50610255610672366004612447565b6001600160a01b03918216600090815260076020908152604080832093909416825291909152205460ff1690565b3480156106ac57600080fd5b5061028a6106bb36600461242d565b6112bc565b3480156106cc57600080fd5b5061028a6106db36600461242d565b611357565b3480156106ec57600080fd5b5061028a6106fb36600461256b565b6113ef565b60006001600160e01b031982166380ac58cd60e01b148061073157506001600160e01b03198216635b5e139f60e01b145b8061074c57506001600160e01b0319821663780e9d6360e01b145b8061076757506301ffc9a760e01b6001600160e01b03198316145b92915050565b6000546001600160a01b031633146107a05760405162461bcd60e51b815260040161079790612811565b60405180910390fd5b600855565b6000546001600160a01b031633146107cf5760405162461bcd60e51b815260040161079790612811565b6107db600f83836122e2565b505050565b6060600280546107ef906128d4565b80601f016020809104026020016040519081016040528092919081815260200182805461081b906128d4565b80156108685780601f1061083d57610100808354040283529160200191610868565b820191906000526020600020905b81548152906001019060200180831161084b57829003601f168201915b5050505050905090565b600061087d82611436565b61089a576040516333d1c03960e21b815260040160405180910390fd5b506000908152600660205260409020546001600160a01b031690565b60006108c182610c54565b9050806001600160a01b0316836001600160a01b031614156108f65760405163250fdee360e21b815260040160405180910390fd5b336001600160a01b0382161480159061091657506109148133610672565b155b15610934576040516367d9dca160e11b815260040160405180910390fd5b6107db83838361146c565b6001546001600160801b03600160801b82048116918116919091031690565b6000546001600160a01b031633146109885760405162461bcd60e51b815260040161079790612811565b60085461099d8261099761093f565b906114c8565b11156109df5760405162461bcd60e51b815260206004820152601160248201527022bc31b2b2b2399026a0ac2fa624a7a71760791b6044820152606401610797565b6109e982826114db565b600c546109f690826114c8565b600c557f9670c8b300c38cd3db8d3f9429dd902e67f418c4dd193e2497f06d20efc795608282610a2461093f565b604080516001600160a01b03909416845260208401929092529082015260600160405180910390a15050565b6107db8383836114f9565b6000610a6683610c95565b8210610a85576040516306ed618760e11b815260040160405180910390fd5b6001546001600160801b0316600080805b83811015610b5157600081815260046020908152604091829020825160608101845290546001600160a01b0381168252600160a01b81046001600160401b031692820192909252600160e01b90910460ff161580159282019290925290610afd5750610b49565b80516001600160a01b031615610b1257805192505b876001600160a01b0316836001600160a01b03161415610b475786841415610b405750935061076792505050565b6001909301925b505b600101610a96565b50600080fd5b6107db83838360405180602001604052806000815250610ee9565b6000546001600160a01b03163314610b9c5760405162461bcd60e51b815260040161079790612811565b610ba581611716565b50565b6001546000906001600160801b031681805b82811015610c3a57600081815260046020908152604091829020825160608101845290546001600160a01b0381168252600160a01b81046001600160401b031692820192909252600160e01b90910460ff16151591810182905290610c315785831415610c2a5750949350505050565b6001909201915b50600101610bba565b506040516329c8c00760e21b815260040160405180910390fd5b6000610c5f826118b3565b5192915050565b6000546001600160a01b03163314610c905760405162461bcd60e51b815260040161079790612811565b600a55565b60006001600160a01b038216610cbe576040516323d3ad8160e21b815260040160405180910390fd5b506001600160a01b03166000908152600560205260409020546001600160401b031690565b6000546001600160a01b03163314610d0d5760405162461bcd60e51b815260040161079790612811565b610d1760006119d7565b565b6000546001600160a01b03163314610d435760405162461bcd60e51b815260040161079790612811565b600955565b6000546001600160a01b03163314610d725760405162461bcd60e51b815260040161079790612811565b6010546040516001600160a01b03909116904780156108fc02916000818181858888f19350505050610d1757600080fd5b600080610e14610e0e7f182854de6a51f3818344a7eb784b9d55c1e6d2d20c9f9aea309f5daaaaddfec1336040805160208101939093526001600160a01b03909116908201526060810187905260800160405160208183030381529060405280519060200120611a27565b84611a75565b9050806001600160a01b0316610e326000546001600160a01b031690565b6001600160a01b031614949350505050565b6060600380546107ef906128d4565b6001600160a01b038216331415610e7d5760405163b06307db60e01b815260040160405180910390fd5b3360008181526007602090815260408083206001600160a01b03871680855290835292819020805460ff191686151590811790915590519081529192917f17307eab39ab6107e8899845ad3d59bd9653f200f220920489ca2b5937696c31910160405180910390a35050565b610ef48484846114f9565b610f0084848484611a99565b610f1d576040516368d2bf6b60e11b815260040160405180910390fd5b50505050565b6060610f2e82611436565b610f6d5760405162461bcd60e51b815260206004820152601060248201526f544f4b454e5f4e4f545f45584953545360801b6044820152606401610797565b600f610f7883611ba8565b604051602001610f8992919061271b565b6040516020818303038152906040529050919050565b600e5460ff161515600114610fed5760405162461bcd60e51b815260206004820152601460248201527357484954454c4953545f4e4f545f41435449564560601b6044820152606401610797565b600d544210156110375760405162461bcd60e51b81526020600482015260156024820152744e4f545f494e5f57484954454c4953545f54494d4560581b6044820152606401610797565b6009546110468461099761093f565b11156110945760405162461bcd60e51b815260206004820152601760248201527f5468697320737461676520697320736f6c64206f7574210000000000000000006044820152606401610797565b61109e8282610da3565b6110ea5760405162461bcd60e51b815260206004820152601b60248201527f4e6f7420656c696769626c6520666f722077686974656c6973742e00000000006044820152606401610797565b600083118015611114575033600090815260116020526040902054829061111190856114c8565b11155b6111605760405162461bcd60e51b815260206004820152601d60248201527f45786365656473206d61782077686974656c697374206e756d6265722e0000006044820152606401610797565b60085461116f8461099761093f565b11156111b15760405162461bcd60e51b815260206004820152601160248201527022bc31b2b2b2399026a0ac2fa624a7a71760791b6044820152606401610797565b600a546111be9084611cc1565b341461121d5760405162461bcd60e51b815260206004820152602860248201527f45746865722076616c75652073656e74206973206e6f7420657175616c2074686044820152673290383934b1b29760c11b6064820152608401610797565b61122733846114db565b600b5461123490846114c8565b600b553360009081526011602052604090205461125190846114c8565b336000818152601160205260409020919091557f9670c8b300c38cd3db8d3f9429dd902e67f418c4dd193e2497f06d20efc79560908461128f61093f565b604080516001600160a01b03909416845260208401929092529082015260600160405180910390a1505050565b6000546001600160a01b031633146112e65760405162461bcd60e51b815260040161079790612811565b6010546001600160a01b03166113355760405162461bcd60e51b815260206004820152601460248201527353455454494e475f5a45524f5f4144445245535360601b6044820152606401610797565b601080546001600160a01b0319166001600160a01b0392909216919091179055565b6000546001600160a01b031633146113815760405162461bcd60e51b815260040161079790612811565b6001600160a01b0381166113e65760405162461bcd60e51b815260206004820152602660248201527f4f776e61626c653a206e6577206f776e657220697320746865207a65726f206160448201526564647265737360d01b6064820152608401610797565b610ba5816119d7565b6000546001600160a01b031633146114195760405162461bcd60e51b815260040161079790612811565b600e805460ff191692151592909217909155600d55565b3b151590565b6001546000906001600160801b031682108015610767575050600090815260046020526040902054600160e01b900460ff161590565b60008281526006602052604080822080546001600160a01b0319166001600160a01b0387811691821790925591518593918516917f8c5be1e5ebec7d5bd14f71427d1e84f3dd0314c0f7b2291e5b200ac8c7c3b92591a4505050565b60006114d48284612846565b9392505050565b6114f5828260405180602001604052806000815250611ccd565b5050565b6000611504826118b3565b80519091506000906001600160a01b0316336001600160a01b03161480611532575081516115329033610672565b8061154d57503361154284610872565b6001600160a01b0316145b90508061156d57604051632ce44b5f60e11b815260040160405180910390fd5b846001600160a01b031682600001516001600160a01b0316146115a25760405162a1148160e81b815260040160405180910390fd5b6001600160a01b0384166115c957604051633a954ecd60e21b815260040160405180910390fd5b6115d9600084846000015161146c565b6001600160a01b038581166000908152600560209081526040808320805467ffffffffffffffff198082166001600160401b0392831660001901831617909255898616808652838620805493841693831660019081018416949094179055898652600490945282852080546001600160e01b031916909417600160a01b4290921691909102179092559086018083529120549091166116cc576001546001600160801b03168110156116cc57825160008281526004602090815260409091208054918601516001600160401b0316600160a01b026001600160e01b03199092166001600160a01b03909316929092171790555b5082846001600160a01b0316866001600160a01b03167fddf252ad1be2c89b69c2b068fc378daa952ba7f163c4a11628f55a4df523b3ef60405160405180910390a45b5050505050565b6000611721826118b3565b9050611733600083836000015161146c565b80516001600160a01b039081166000908152600560209081526040808320805467ffffffffffffffff1981166001600160401b0391821660001901821617909155855185168452818420805467ffffffffffffffff60801b198116600160801b9182900484166001908101851690920217909155865188865260049094528285208054600160e01b9588166001600160e01b031990911617600160a01b42909416939093029290921760ff60e01b1916939093179055908501808352912054909116611853576001546001600160801b031681101561185357815160008281526004602090815260409091208054918501516001600160401b0316600160a01b026001600160e01b03199092166001600160a01b03909316929092171790555b50805160405183916000916001600160a01b03909116907fddf252ad1be2c89b69c2b068fc378daa952ba7f163c4a11628f55a4df523b3ef908390a45050600180546001600160801b03600160801b808304821684018216029116179055565b604080516060810182526000808252602082018190529181019190915260015482906001600160801b03168110156119be57600081815260046020908152604091829020825160608101845290546001600160a01b0381168252600160a01b81046001600160401b031692820192909252600160e01b90910460ff161515918101829052906119bc5780516001600160a01b031615611953579392505050565b5060001901600081815260046020908152604091829020825160608101845290546001600160a01b038116808352600160a01b82046001600160401b031693830193909352600160e01b900460ff16151592810192909252156119b7579392505050565b611953565b505b604051636f96cda160e11b815260040160405180910390fd5b600080546001600160a01b038381166001600160a01b0319831681178455604051919092169283917f8be0079c531659141344cd1fd0a4f28419497f9722a3daafe3b4186f6b6457e09190a35050565b6000610767611a34611cda565b8360405161190160f01b6020820152602281018390526042810182905260009060620160405160208183030381529060405280519060200120905092915050565b6000806000611a848585611dcd565b91509150611a9181611e3d565b509392505050565b60006001600160a01b0384163b15611b9c57604051630a85bd0160e11b81526001600160a01b0385169063150b7a0290611add9033908990889088906004016127c1565b602060405180830381600087803b158015611af757600080fd5b505af1925050508015611b27575060408051601f3d908101601f19168201909252611b24918101906125a2565b60015b611b82573d808015611b55576040519150601f19603f3d011682016040523d82523d6000602084013e611b5a565b606091505b508051611b7a576040516368d2bf6b60e11b815260040160405180910390fd5b805181602001fd5b6001600160e01b031916630a85bd0160e11b149050611ba0565b5060015b949350505050565b606081611bcc5750506040805180820190915260018152600360fc1b602082015290565b8160005b8115611bf65780611be08161290f565b9150611bef9050600a8361285e565b9150611bd0565b6000816001600160401b03811115611c1e57634e487b7160e01b600052604160045260246000fd5b6040519080825280601f01601f191660200182016040528015611c48576020820181803683370190505b5090505b8415611ba057611c5d600183612891565b9150611c6a600a8661292a565b611c75906030612846565b60f81b818381518110611c9857634e487b7160e01b600052603260045260246000fd5b60200101906001600160f81b031916908160001a905350611cba600a8661285e565b9450611c4c565b60006114d48284612872565b6107db838383600161203e565b60007f0000000000000000000000000000000000000000000000000000000000000000461415611d2957507f000000000000000000000000000000000000000000000000000000000000000090565b50604080517f00000000000000000000000000000000000000000000000000000000000000006020808301919091527f0000000000000000000000000000000000000000000000000000000000000000828401527f000000000000000000000000000000000000000000000000000000000000000060608301524660808301523060a0808401919091528351808403909101815260c0909201909252805191012090565b600080825160411415611e045760208301516040840151606085015160001a611df8878285856121c6565b94509450505050611e36565b825160401415611e2e5760208301516040840151611e238683836122b3565b935093505050611e36565b506000905060025b9250929050565b6000816004811115611e5f57634e487b7160e01b600052602160045260246000fd5b1415611e685750565b6001816004811115611e8a57634e487b7160e01b600052602160045260246000fd5b1415611ed85760405162461bcd60e51b815260206004820152601860248201527f45434453413a20696e76616c6964207369676e617475726500000000000000006044820152606401610797565b6002816004811115611efa57634e487b7160e01b600052602160045260246000fd5b1415611f485760405162461bcd60e51b815260206004820152601f60248201527f45434453413a20696e76616c6964207369676e6174757265206c656e677468006044820152606401610797565b6003816004811115611f6a57634e487b7160e01b600052602160045260246000fd5b1415611fc35760405162461bcd60e51b815260206004820152602260248201527f45434453413a20696e76616c6964207369676e6174757265202773272076616c604482015261756560f01b6064820152608401610797565b6004816004811115611fe557634e487b7160e01b600052602160045260246000fd5b1415610ba55760405162461bcd60e51b815260206004820152602260248201527f45434453413a20696e76616c6964207369676e6174757265202776272076616c604482015261756560f01b6064820152608401610797565b6001546001600160801b03166001600160a01b03851661207057604051622e076360e81b815260040160405180910390fd5b8361208e5760405163b562e8dd60e01b815260040160405180910390fd5b6001600160a01b038516600081815260056020908152604080832080546001600160801b031981166001600160401b038083168c0181169182176801000000000000000067ffffffffffffffff1990941690921783900481168c018116909202179091558584526004909252822080546001600160e01b031916909317600160a01b42909216919091021790915581905b858110156121a05760405182906001600160a01b038916906000907fddf252ad1be2c89b69c2b068fc378daa952ba7f163c4a11628f55a4df523b3ef908290a483801561217657506121746000888488611a99565b155b15612194576040516368d2bf6b60e11b815260040160405180910390fd5b6001918201910161211f565b50600180546001600160801b0319166001600160801b039290921691909117905561170f565b6000807f7fffffffffffffffffffffffffffffff5d576e7357a4501ddfe92f46681b20a08311156121fd57506000905060036122aa565b8460ff16601b1415801561221557508460ff16601c14155b1561222657506000905060046122aa565b6040805160008082526020820180845289905260ff881692820192909252606081018690526080810185905260019060a0016020604051602081039080840390855afa15801561227a573d6000803e3d6000fd5b5050604051601f1901519150506001600160a01b0381166122a3576000600192509250506122aa565b9150600090505b94509492505050565b6000806001600160ff1b03831660ff84901c601b016122d4878288856121c6565b935093505050935093915050565b8280546122ee906128d4565b90600052602060002090601f0160209004810192826123105760008555612356565b82601f106123295782800160ff19823516178555612356565b82800160010185558215612356579182015b8281111561235657823582559160200191906001019061233b565b50612362929150612366565b5090565b5b808211156123625760008155600101612367565b80356001600160a01b038116811461239257600080fd5b919050565b8035801515811461239257600080fd5b600082601f8301126123b7578081fd5b81356001600160401b03808211156123d1576123d161296a565b604051601f8301601f19908116603f011681019082821181831017156123f9576123f961296a565b81604052838152866020858801011115612411578485fd5b8360208701602083013792830160200193909352509392505050565b60006020828403121561243e578081fd5b6114d48261237b565b60008060408385031215612459578081fd5b6124628361237b565b91506124706020840161237b565b90509250929050565b60008060006060848603121561248d578081fd5b6124968461237b565b92506124a46020850161237b565b9150604084013590509250925092565b600080600080608085870312156124c9578081fd5b6124d28561237b565b93506124e06020860161237b565b92506040850135915060608501356001600160401b03811115612501578182fd5b61250d878288016123a7565b91505092959194509250565b6000806040838503121561252b578182fd5b6125348361237b565b915061247060208401612397565b60008060408385031215612554578182fd5b61255d8361237b565b946020939093013593505050565b6000806040838503121561257d578182fd5b61255d83612397565b600060208284031215612597578081fd5b81356114d481612980565b6000602082840312156125b3578081fd5b81516114d481612980565b600080602083850312156125d0578182fd5b82356001600160401b03808211156125e6578384fd5b818501915085601f8301126125f9578384fd5b813581811115612607578485fd5b866020828501011115612618578485fd5b60209290920196919550909350505050565b60006020828403121561263b578081fd5b5035919050565b60008060408385031215612654578182fd5b8235915060208301356001600160401b03811115612670578182fd5b61267c858286016123a7565b9150509250929050565b60008060006060848603121561269a578283fd5b833592506020840135915060408401356001600160401b038111156126bd578182fd5b6126c9868287016123a7565b9150509250925092565b600081518084526126eb8160208601602086016128a8565b601f01601f19169290920160200192915050565b600081516127118185602086016128a8565b9290920192915050565b600080845482600182811c91508083168061273757607f831692505b602080841082141561275757634e487b7160e01b87526022600452602487fd5b81801561276b576001811461277c576127a8565b60ff198616895284890196506127a8565b60008b815260209020885b868110156127a05781548b820152908501908301612787565b505084890196505b5050505050506127b881856126ff565b95945050505050565b6001600160a01b03858116825284166020820152604081018390526080606082018190526000906127f4908301846126d3565b9695505050505050565b6020815260006114d460208301846126d3565b6020808252818101527f4f776e61626c653a2063616c6c6572206973206e6f7420746865206f776e6572604082015260600190565b600082198211156128595761285961293e565b500190565b60008261286d5761286d612954565b500490565b600081600019048311821515161561288c5761288c61293e565b500290565b6000828210156128a3576128a361293e565b500390565b60005b838110156128c35781810151838201526020016128ab565b83811115610f1d5750506000910152565b600181811c908216806128e857607f821691505b6020821081141561290957634e487b7160e01b600052602260045260246000fd5b50919050565b60006000198214156129235761292361293e565b5060010190565b60008261293957612939612954565b500690565b634e487b7160e01b600052601160045260246000fd5b634e487b7160e01b600052601260045260246000fd5b634e487b7160e01b600052604160045260246000fd5b6001600160e01b031981168114610ba557600080fdfea2646970667358221220558e01f65cf5c80de7bd74d5e3c9c02b75dd16b1326ee2730383f6aecff99c4864736f6c63430008040033687474703a2f2f6170692e6c696f6e64616f6e66742e636f6d2f4d657461646174612f",
  "devdoc": {
    "kind": "dev",
    "methods": {
      "approve(address,uint256)": {
        "details": "See {IERC721-approve}."
      },
      "balanceOf(address)": {
        "details": "See {IERC721-balanceOf}."
      },
      "getApproved(uint256)": {
        "details": "See {IERC721-getApproved}."
      },
      "isApprovedForAll(address,address)": {
        "details": "See {IERC721-isApprovedForAll}."
      },
      "name()": {
        "details": "See {IERC721Metadata-name}."
      },
      "owner()": {
        "details": "Returns the address of the current owner."
      },
      "ownerOf(uint256)": {
        "details": "See {IERC721-ownerOf}."
      },
      "renounceOwnership()": {
        "details": "Leaves the contract without owner. It will not be possible to call `onlyOwner` functions anymore. Can only be called by the current owner. NOTE: Renouncing ownership will leave the contract without an owner, thereby removing any functionality that is only available to the owner."
      },
      "safeTransferFrom(address,address,uint256)": {
        "details": "See {IERC721-safeTransferFrom}."
      },
      "safeTransferFrom(address,address,uint256,bytes)": {
        "details": "See {IERC721-safeTransferFrom}."
      },
      "setApprovalForAll(address,bool)": {
        "details": "See {IERC721-setApprovalForAll}."
      },
      "supportsInterface(bytes4)": {
        "details": "See {IERC165-supportsInterface}."
      },
      "symbol()": {
        "details": "See {IERC721Metadata-symbol}."
      },
      "tokenByIndex(uint256)": {
        "details": "See {IERC721Enumerable-tokenByIndex}. This read function is O(totalSupply). If calling from a separate contract, be sure to test gas first. It may also degrade with extremely large collection sizes (e.g >> 10000), test for your use case."
      },
      "tokenOfOwnerByIndex(address,uint256)": {
        "details": "See {IERC721Enumerable-tokenOfOwnerByIndex}. This read function is O(totalSupply). If calling from a separate contract, be sure to test gas first. It may also degrade with extremely large collection sizes (e.g >> 10000), test for your use case."
      },
      "tokenURI(uint256)": {
        "details": "See {IERC721Metadata-tokenURI}."
      },
      "totalSupply()": {
        "details": "See {IERC721Enumerable-totalSupply}."
      },
      "transferFrom(address,address,uint256)": {
        "details": "See {IERC721-transferFrom}."
      },
      "transferOwnership(address)": {
        "details": "Transfers ownership of the contract to a new account (`newOwner`). Can only be called by the current owner."
      }
    },
    "version": 1
  },
  "userdoc": {
    "kind": "user",
    "methods": {},
    "version": 1
  },
  "storageLayout": {
    "storage": [
      {
        "astId": 7,
        "contract": "contracts/LionDAO.sol:LionDAO",
        "label": "_owner",
        "offset": 0,
        "slot": "0",
        "type": "t_address"
      },
      {
        "astId": 2901,
        "contract": "contracts/LionDAO.sol:LionDAO",
        "label": "_currentIndex",
        "offset": 0,
        "slot": "1",
        "type": "t_uint128"
      },
      {
        "astId": 2903,
        "contract": "contracts/LionDAO.sol:LionDAO",
        "label": "_burnCounter",
        "offset": 16,
        "slot": "1",
        "type": "t_uint128"
      },
      {
        "astId": 2905,
        "contract": "contracts/LionDAO.sol:LionDAO",
        "label": "_name",
        "offset": 0,
        "slot": "2",
        "type": "t_string_storage"
      },
      {
        "astId": 2907,
        "contract": "contracts/LionDAO.sol:LionDAO",
        "label": "_symbol",
        "offset": 0,
        "slot": "3",
        "type": "t_string_storage"
      },
      {
        "astId": 2912,
        "contract": "contracts/LionDAO.sol:LionDAO",
        "label": "_ownerships",
        "offset": 0,
        "slot": "4",
        "type": "t_mapping(t_uint256,t_struct(TokenOwnership)2892_storage)"
      },
      {
        "astId": 2917,
        "contract": "contracts/LionDAO.sol:LionDAO",
        "label": "_addressData",
        "offset": 0,
        "slot": "5",
        "type": "t_mapping(t_address,t_struct(AddressData)2899_storage)"
      },
      {
        "astId": 2921,
        "contract": "contracts/LionDAO.sol:LionDAO",
        "label": "_tokenApprovals",
        "offset": 0,
        "slot": "6",
        "type": "t_mapping(t_uint256,t_address)"
      },
      {
        "astId": 2927,
        "contract": "contracts/LionDAO.sol:LionDAO",
        "label": "_operatorApprovals",
        "offset": 0,
        "slot": "7",
        "type": "t_mapping(t_address,t_mapping(t_address,t_bool))"
      },
      {
        "astId": 4198,
        "contract": "contracts/LionDAO.sol:LionDAO",
        "label": "MAX_LION",
        "offset": 0,
        "slot": "8",
        "type": "t_uint256"
      },
      {
        "astId": 4201,
        "contract": "contracts/LionDAO.sol:LionDAO",
        "label": "STAGE_LIMIT",
        "offset": 0,
        "slot": "9",
        "type": "t_uint256"
      },
      {
        "astId": 4204,
        "contract": "contracts/LionDAO.sol:LionDAO",
        "label": "PRICE",
        "offset": 0,
        "slot": "10",
        "type": "t_uint256"
      },
      {
        "astId": 4207,
        "contract": "contracts/LionDAO.sol:LionDAO",
        "label": "numWhitelistSale",
        "offset": 0,
        "slot": "11",
        "type": "t_uint256"
      },
      {
        "astId": 4210,
        "contract": "contracts/LionDAO.sol:LionDAO",
        "label": "numGiveaway",
        "offset": 0,
        "slot": "12",
        "type": "t_uint256"
      },
      {
        "astId": 4213,
        "contract": "contracts/LionDAO.sol:LionDAO",
        "label": "whitelistSaleTimestamp",
        "offset": 0,
        "slot": "13",
        "type": "t_uint256"
      },
      {
        "astId": 4216,
        "contract": "contracts/LionDAO.sol:LionDAO",
        "label": "hasWhitelistSaleStarted",
        "offset": 0,
        "slot": "14",
        "type": "t_bool"
      },
      {
        "astId": 4219,
        "contract": "contracts/LionDAO.sol:LionDAO",
        "label": "_baseTokenURI",
        "offset": 0,
        "slot": "15",
        "type": "t_string_storage"
      },
      {
        "astId": 4222,
        "contract": "contracts/LionDAO.sol:LionDAO",
        "label": "treasury",
        "offset": 0,
        "slot": "16",
        "type": "t_address"
      },
      {
        "astId": 4226,
        "contract": "contracts/LionDAO.sol:LionDAO",
        "label": "hasMinted",
        "offset": 0,
        "slot": "17",
        "type": "t_mapping(t_address,t_uint256)"
      }
    ],
    "types": {
      "t_address": {
        "encoding": "inplace",
        "label": "address",
        "numberOfBytes": "20"
      },
      "t_bool": {
        "encoding": "inplace",
        "label": "bool",
        "numberOfBytes": "1"
      },
      "t_mapping(t_address,t_bool)": {
        "encoding": "mapping",
        "key": "t_address",
        "label": "mapping(address => bool)",
        "numberOfBytes": "32",
        "value": "t_bool"
      },
      "t_mapping(t_address,t_mapping(t_address,t_bool))": {
        "encoding": "mapping",
        "key": "t_address",
        "label": "mapping(address => mapping(address => bool))",
        "numberOfBytes": "32",
        "value": "t_mapping(t_address,t_bool)"
      },
      "t_mapping(t_address,t_struct(AddressData)2899_storage)": {
        "encoding": "mapping",
        "key": "t_address",
        "label": "mapping(address => struct ERC721A.AddressData)",
        "numberOfBytes": "32",
        "value": "t_struct(AddressData)2899_storage"
      },
      "t_mapping(t_address,t_uint256)": {
        "encoding": "mapping",
        "key": "t_address",
        "label": "mapping(address => uint256)",
        "numberOfBytes": "32",
        "value": "t_uint256"
      },
      "t_mapping(t_uint256,t_address)": {
        "encoding": "mapping",
        "key": "t_uint256",
        "label": "mapping(uint256 => address)",
        "numberOfBytes": "32",
        "value": "t_address"
      },
      "t_mapping(t_uint256,t_struct(TokenOwnership)2892_storage)": {
        "encoding": "mapping",
        "key": "t_uint256",
        "label": "mapping(uint256 => struct ERC721A.TokenOwnership)",
        "numberOfBytes": "32",
        "value": "t_struct(TokenOwnership)2892_storage"
      },
      "t_string_storage": {
        "encoding": "bytes",
        "label": "string",
        "numberOfBytes": "32"
      },
      "t_struct(AddressData)2899_storage": {
        "encoding": "inplace",
        "label": "struct ERC721A.AddressData",
        "members": [
          {
            "astId": 2894,
            "contract": "contracts/LionDAO.sol:LionDAO",
            "label": "balance",
            "offset": 0,
            "slot": "0",
            "type": "t_uint64"
          },
          {
            "astId": 2896,
            "contract": "contracts/LionDAO.sol:LionDAO",
            "label": "numberMinted",
            "offset": 8,
            "slot": "0",
            "type": "t_uint64"
          },
          {
            "astId": 2898,
            "contract": "contracts/LionDAO.sol:LionDAO",
            "label": "numberBurned",
            "offset": 16,
            "slot": "0",
            "type": "t_uint64"
          }
        ],
        "numberOfBytes": "32"
      },
      "t_struct(TokenOwnership)2892_storage": {
        "encoding": "inplace",
        "label": "struct ERC721A.TokenOwnership",
        "members": [
          {
            "astId": 2887,
            "contract": "contracts/LionDAO.sol:LionDAO",
            "label": "addr",
            "offset": 0,
            "slot": "0",
            "type": "t_address"
          },
          {
            "astId": 2889,
            "contract": "contracts/LionDAO.sol:LionDAO",
            "label": "startTimestamp",
            "offset": 20,
            "slot": "0",
            "type": "t_uint64"
          },
          {
            "astId": 2891,
            "contract": "contracts/LionDAO.sol:LionDAO",
            "label": "burned",
            "offset": 28,
            "slot": "0",
            "type": "t_bool"
          }
        ],
        "numberOfBytes": "32"
      },
      "t_uint128": {
        "encoding": "inplace",
        "label": "uint128",
        "numberOfBytes": "16"
      },
      "t_uint256": {
        "encoding": "inplace",
        "label": "uint256",
        "numberOfBytes": "32"
      },
      "t_uint64": {
        "encoding": "inplace",
        "label": "uint64",
        "numberOfBytes": "8"
      }
    }
  }
}